:020000040800F2
:10000000103200207D0100088F07000887070008D4
:100010008B07000863070008D508000800000000EF
:10002000000000000000000000000000E5000008E3
:10003000850700080000000029010008910700085A
:100040009701000897010008970100089701000830
:100050009701000897010008970100089701000820
:1000600000000000970100086907000897010008D8
:1000700097010008970100089701000800000000A0
:10008000970100088D080008000000009701000893
:100090003108000897010008690800089701000866
:1000A000970100089701000897010008B1080008AF
:1000B00097010008000000000000000000000000A0
:1000C000970100080000000097010008DFF810D039
:1000D00000F00AFB00480047E93A0008AFF300804F
:1000E00010320020224B19680868B0E8F00F80F346
:1000F0000988BFF36F8F4FF0000080F311884EF036
:100100000D0E70470000000006480068006880F38C
:10011000088862B661B6BFF34F8FBFF36F8F00DF01
:1001200000BF00BF08ED00E0EFF30980BFF36F8F61
:100130000F4B1A6820E9F00F106008B54FF0BF00B0
:1001400080F31188BFF34F8FBFF36F8F05F00CFC66
:100150004FF0000080F31188BDE808401968086876
:10016000B0E8F00F80F30988BFF36F8F704700BFCE
:100170002C000020EFF30580704700000648804700
:1001800006480047FEE7FEE7FEE7FEE7FEE7FEE77C
:10019000FEE7FEE7FEE7FEE7C5070008CD00000822
:1001A0002DE9F05F0546002092469B4688460646AC
:1001B000814640241BE0284641464746224600F03F
:1001C00014FA53465A46C01A914110D311461846A4
:1001D000224600F0FBF92D1A67EB01084F46224634
:1001E0000120002100F0F2F917EB00094E41201E1A
:1001F000A4F10104DFDC484631462A464346BDE807
:10020000F09F00000649074A0868504343F239024C
:1002100010440860400870470149086070470000BA
:10022000080200206D4EC64140EA01039B0703D03F
:1002300009E008C9121F08C0042AFAD203E011F825
:10024000013B00F8013B521EF9D27047D2B201E0E7
:1002500000F8012B491EFBD270470022F6E710B5CB
:1002600013460A4604461946FFF7F0FF204610BD24
:100270002DE9FE4F804681EA0300C00F0C46009036
:1002800021F0004123F00045B8EB0200A94105D25E
:100290004046214690461C460B46024623F000404D
:1002A000104347D0270DC7F30A00C3F30A51029049
:1002B000401A019040286BDAC3F3130040F4801B0E
:1002C0000098924620B10023D2EB030A63EB0B0B9C
:1002D00001985946C0F14002504600F077F90646B1
:1002E0000D4650465946019A00F08FF910EB080070
:1002F0006141002487EA115284EAE7731A4340D02F
:10030000009A62B3019A012A4FEA075215DC001BDA
:1003100061EB02014FF0004202EA0752CDE90042D0
:10032000001C41F5801132462B4600F08FF903B0D6
:10033000BDE8F08F40462146F9E7001B61EB020162
:10034000001C41F5801300185B412018A2F500172E
:1003500047EB030140EAD570B6196D4111E06D0815
:100360004FEA360645EAC0754FEA0752001B61EBBB
:100370000201001C41F5801149084FEA30000019C4
:10038000514132462B4603B0BDE8F04F00F04FB963
:100390000098012240000023D0EB020263EBE073DF
:1003A000009821464FEAE074B8EB000061EB0401CD
:1003B000E9E783F000435BE781F0004158E72DE96E
:1003C000FE4F81EA030404F0004421F00041009450
:1003D0004FF0000B23F0004350EA01045ED052EAD4
:1003E00003045BD0C3F30A54C1F30A552C44A4F2AE
:1003F000F3340194A0FB0254C1F3130141F48011C2
:10040000C3F3130343F4801301FB024400FB034EC8
:10041000840A970A44EA815447EA8357A4FB076891
:1004200002958D0A05FB07854FEA932C04FB0C54BB
:100430002705029D4FEA065847EA1637B5EB08052F
:100440006EEB070C870E920E47EA811742EA831281
:10045000A7FB0201B6EB0B0164EB00042B0D43EA92
:100460000C335E1844EB1C50DA465146E7FB0201A0
:10047000C5F313044FEA0B3343EA14534FEA043233
:10048000019C43EA0603A4F10C040294009CCDE90C
:1004900000B400F0DBF803B0BDE8F08F00200146A7
:1004A000F9E72DE9F04D81EA030404F0004B21F057
:1004B000004514464FF0000A23F0004150EA0502BF
:1004C00020D054EA01021DD0C5F30A570246C5F3F5
:1004D0001303C1F31300C1F30A5640F4801543F42B
:1004E0008013A7EB0608101BD64608F2FD3873EB05
:1004F000050002D308F1010801E092185B41B8F150
:10050000000F03DA00200146BDE8F08D00204FF413
:100510008011064684460EE0171B73EB050705D3D2
:10052000121B63EB050306434CEA010C49084FEA32
:10053000300092185B4150EA0107EDD152EA030006
:1005400012D082EA040083EA0501084305D0101B9B
:10055000AB4106D20122002306E000224FF0004307
:1005600002E06FF0010253101AEB06004CEB085149
:1005700010EB0A0041EB0B01BDE8F04D00F057B85D
:100580000EB540F2334102910021CDE900110A4637
:100590000B4600F05BF803B000BDC1F30A5210B582
:1005A000C1F3130140F2FF3341F480119A4201DAA2
:1005B000002010BD40F233439A42A2F2334203DCE2
:1005C000524200F012F810BD904010BD202A04DB0A
:1005D000203A00FA02F1002070479140C2F1200356
:1005E00020FA03F3194390407047202A04DB203A95
:1005F00021FA02F00021704721FA02F3D040C2F143
:1006000020029140084319467047202A06DBCB1789
:10061000203A41FA02F043EAE07306E041FA02F3BD
:10062000D040C2F12002914008431946704710B5EE
:10063000141E73F1000408DA401C41F10001921805
:100640005B411A4301D120F0010010BD2DE9F04DAE
:1006500092469B4611B1B1FA81F202E0B0FA80F203
:1006600020329046FFF7B2FF04460F4640EA0A00E8
:1006700041EA0B0153465A46084313D0114653EA48
:10068000010019D0C8F140025046FFF7AEFF054601
:100690000E46504659464246FFF798FF084305D09C
:1006A000012004E020463946BDE8F08D00200543D6
:1006B00046EAE0762C4337430A986305E40AA0EB48
:1006C00008000022FD0A44EA47540A3002D50020FF
:1006D0000146E9E7010510196941DDE908450019FE
:1006E0006941BDE8F04DA2E7064C074D06E0E06821
:1006F00040F0010394E8070098471034AC42F6D369
:10070000FFF7E8FCE0B3000800B4000870B58C18EF
:1007100010F8015B15F0070301D110F8013B2A1115
:1007200006D110F8012B03E010F8016B01F8016B02
:100730005B1EF9D12B0705D40023521E0DD401F8FE
:10074000013BFAE710F8013BCB1A921C03E013F8C7
:10075000015B01F8015B521EF9D5A142D8D30020FC
:1007600070BD00BFFEE7000010B5202001F008F9C1
:1007700028B1034804F007FE202001F0FBF810BD6B
:10078000FC2C0020704700BFFEE700BFFEE770476B
:1007900010B500BFBF2080F31188BFF34F8FBFF3A8
:1007A0006F8F00BF05F0AEFD18B14FF080500449C7
:1007B000086000BF002080F3118800BF10BD00005A
:1007C00004ED00E01748006820F00100401C1549C6
:1007D000086000BF13480068C0F340000028F9D04B
:1007E0001048406820F003000E49486000BF0D48E3
:1007F0004068C0F381000028F9D10A4800680A491E
:100800000840084908600020486041F61070C8623E
:100810004FF4801008634FF41F008860C803034939
:100820000860704700100240FFFFF2FE08ED00E094
:1008300010B501210A4804F098FA80B1002408E0BC
:1008400004EB4401074A02EBC10001F0E5FA601C29
:10085000C4B2052CF4DB0121014804F078FA10BD84
:1008600000400140EC2B002010B50121054804F0A8
:100870007CFA30B1044803F0A9F80121014804F0E2
:1008800066FA10BD00480140A42C002010B50121DB
:10089000054804F06AFA30B1044800F0E6FD012191
:1008A000014804F054FA10BD00100040742B0020E1
:1008B00010B507490868102104F055FC30B1044810
:1008C00004F003FD0249086804F08DFB10BD000030
:1008D000FC2C002000BFFEE70FB4084B10B504A9A4
:1008E00002AA039800F01CF8044602A9002000F0B8
:1008F00042FA204610BC5DF814FB0000770D00089A
:1009000002E008C8121F08C1002AFAD170477047D8
:10091000002001E001C1121F002AFBD17047000036
:100920002DE9FF4F8DB00F460546002606E025282D
:100930000BD0DDE90F1290476D1C761C287800283B
:10094000F5D111B03046BDE8F08F0024A246A14693
:100950000122E94900E0044315F8013F203B02FA77
:1009600003F00842F7D128782A2810D06FF02F0220
:100970002878A0F13001092914D80AEB8A0102EB8A
:10098000410144F0020400EB010A6D1CF0E701CFC5
:100990005FEA000A03D544F40054CAF1000A44F0A7
:1009A00002046D1C28782E2817D115F8010F44F089
:1009B00004042A280ED06FF02F022878A0F130010D
:1009C00009290AD809EB890102EB410100EB010971
:1009D0006D1CF2E757F8049B6D1C28786C280FD02B
:1009E00006DC4C2817D068280DD06A2814D104E002
:1009F000742810D07A280FD10DE044F400140AE0D6
:100A000044F4801401E044F440146978814202D136
:100A100004F580146D1C6D1C28786E281ED00CDC2B
:100A2000632830D004DC00288BD0582811D19FE0F7
:100A3000642867D069280CD164E073282DD004DCC9
:100A40006F2872D0702804D194E075286ED0782871
:100A50006DD0DDE90F129047761C4BE1C4F30250D4
:100A6000022806D0032809D0042801CF09D0066047
:100A700040E101CFF117C0E900613BE101CF068001
:100A800038E1067036E117F8040B8DF800000020FD
:100A90008DF80100EB46012003E057F804BB4FF04E
:100AA000FF3061074FF0000102D40DE008F10101B1
:100AB000884649450FDA8045F8DB1BF80810002905
:100AC000F4D108E008F1010188468142FADB1BF805
:100AD00008100029F6D1DDE90F23AAEB08008146B2
:100AE000214600F031F9304400EB080604E0DDE96E
:100AF0000F121BF8010B9047B8F10108F7D22146FD
:100B00004846F2E00A21C4F302524FF0000B08916C
:100B1000022A04D001CFC117032A09D00AE0FF1D21
:100B200027F00707F7E8020108E02CE01EE01FE0CD
:100B300000B2C117042A01D140B2C117021E71F1DF
:100B4000000206DA0023D0EB030063EB01012D2243
:100B500002E0220504D52B228DF82420012203E097
:100B6000E20701D02022F7E7904653E00A210BE08C
:100B7000102109E010214FF0000B44F004044FF065
:100B80000809089103E008214FF0000B0891C4F315
:100B90000252022A04D001CF0021032A06D006E027
:100BA000FF1D27F00707F7E8020103E080B2042ADF
:100BB00000D1C0B24FF0000822072BD52A78702A46
:100BC00007D0DDF820C08CF0100C5CEA0B0C05D0CF
:100BD0000EE040228DF82420012208E050EA0103B3
:100BE00006D030238DF824308DF82520022290463F
:100BF000089B83F0080353EA0B030BD150EA010270
:100C000001D1620706D530228DF824204FF001086B
:100C1000A9F101092A78582A04D038A20B9208AA0F
:100C20000A920BE03AA2F9E75B46089AFFF7B8FA96
:100C30000B9B9B5C0A9A521E0A92137050EA0102A7
:100C4000F2D10A98ADEB000000F1200B600702D54D
:100C500024F4803401E04FF00109D94502DDA9EB0D
:100C60000B0000E0002000EB0B0141440890AAEBD0
:100C7000010AE00306D4DDE90F232146504600F0C7
:100C800063F806444FF0000908E009A911F80900CB
:100C9000DDE90F12904709F10109761CC145F4DB2B
:100CA000E0030CD5DDE90F232146504600F04CF857
:100CB000064404E0DDE90F1230209047761C0899C5
:100CC000481E08900029F5DC08E00A980A99007887
:100CD000491C0A91DDE90F129047761CBBF1000117
:100CE000ABF1010BF1DC21465046DDE90F2300F0AA
:100CF00019F806446D1C21E6092801003031323311
:100D00003435363738396162636465660000000047
:100D10003031323334353637383941424344454631
:100D2000000000002DE9F041044600251E4617464C
:100D3000880404D405E039462020B0476D1C641EA9
:100D4000F9D52846BDE8F0812DE9F041044600259B
:100D50001E469046C80301D5302700E020278804AE
:100D600004D505E041463846B0476D1C641EF9D5F0
:100D70002846BDE8F0810A68531C0B60107070476C
:100D800008B51F4800680090022000F083FB694608
:100D90001C4800F039F8072301220821194800F007
:100DA0007AF9072302221021164800F074F907236C
:100DB00003221121134800F06EF901220721114886
:100DC00000F0BDF901210F4800F01CF9012000F0EE
:100DD00077FA01210B4800F01AF90A4800F02AF8C6
:100DE00000BF084800F02CF80028FAD1054800F0B0
:100DF00030F800BF034800F032F80028FAD108BDEF
:100E000088690008002401400B78426863F30822D7
:100E100042604B78826863F3410282608B7882681B
:100E200063F3CB228260CA78521EC36A62F31753FF
:100E3000C3627047816821F0080108318160704702
:100E400001468868C0F3C00008B101207047002047
:100E5000FCE7816821F00401091D816070470146AB
:100E60008868C0F3800008B1012070470020FCE7CB
:100E700028B1016819B1416809B1816801B97047A9
:100E800090F8381039B900214E4A11704E4A11704D
:100E90004E4A117094E04B490978B9B3002132E011
:100EA00000F10C0252F8212090F83630B2FBF3F337
:100EB00000F10C0252F82120D31A00F10C0242F882
:100EC000213052F82130183232F81120134400F149
:100ED0000C0242F8213052F8212090F83630B2FB53
:100EE000F3F293B200F12A0222F81130123A52F8CA
:100EF0002130123232F81120134400F1180242F866
:100F000021304A1CD1B20329CADB35E0FFE72E4964
:100F10000978491CC9B22C4A117090F836209142C8
:100F200002DB0121274A1170002123E000F10C02AD
:100F300052F82130183232F81120134400F10C021B
:100F400042F8213052F821201F4B1B78B2FBF3F2FC
:100F500093B200F12A0222F81130123A52F82130ED
:100F6000123232F81120134400F1180242F82130F5
:100F70004A1CD1B20329D9DB14490978491CC9B2EA
:100F8000124A117090F83720914219DB00210F4A64
:100F9000117000BF12E000F1180252F8212090F801
:100FA0003730B2FBF3F293B200F1300222F8113085
:100FB0000023183A42F821304A1CD1B20329EADB57
:100FC00000BF5CE76C0000206D0000206E00002078
:100FD00010B586B004461422084901A8FFF724F989
:100FE0000294074800F012FD01A9054800F0D6FC64
:100FF0000021034800F0B2FC06B010BD746900087F
:1010000008000240826861F30822826070478268AB
:1010100061F30002826070471CB5044903C9CDE941
:1010200000016946024800F016FD1CBD6C6900080D
:101030000004004810B50446FFF7EEFF2046FFF716
:10104000C7FFFFF79DFE10BD2DE9F04704460D4692
:1010500016461F46DDE9088914B10DB106B10FB976
:10106000BDE8F0873C212046FFF7F7F82560666071
:10107000A760B8F1050F01DA052000E0404684F8CA
:101080003600B9F1030F01DA032000E0484684F886
:10109000370000BFE4E770B504460A290CDA20697E
:1010A00001EB41060725B540A84301EB410503FAD2
:1010B00005F5284320610FE0E068A1F10A0505EB82
:1010C00045060725B540A843A1F10A0505EB4505EE
:1010D00003FA05F52843E0600D2A10DBE06AA2F16F
:1010E0000D0505EB85061F25B540A843A2F10D05AA
:1010F00005EB850501FA05F52843E0621EE0072AA5
:101100000EDB206BD51F05EB85061F25B540A843D8
:10111000D51F05EB850501FA05F5284320630DE091
:10112000606B551E05EB85061F25B540A843551E6F
:1011300005EB850501FA05F52843606370BD0729B5
:1011400004DD836861F35343836003E0836861F3E4
:1011500053438360836862F31453836070478268EB
:1011600061F396528260704710B504462CB1206836
:1011700018B1606808B1A06800B910BD00212068EE
:1011800000F0ECFB0321206800F0F1FB0121206856
:1011900000F0E4FB01216068FFF7E1FF012084F823
:1011A000380000BFE9E700001CB503200521314BE2
:1011B000314ACDE9001031493148FFF745FF304849
:1011C000FFF7D2FF54E02E48FFF752FE2C4890F86C
:1011D000380000282ED02A49488EFFF7D1F98046E2
:1011E0004FF06632274BFFF7EAF806460022264BFF
:1011F000FFF757F90446254A254BFFF7DDF88246ED
:10120000244A254BFFF74DF90022244BCDE900017C
:10121000FFF72EF8224A03C21949888EFFF7B0F96A
:10122000044622460B4600201E49FFF73AF91E4AA3
:1012300003C208E000211D48194AC2E900101C48F9
:10124000194AC2E900101B48407848B91A4840685A
:1012500030B1194900231A464868194604F060FE67
:10126000002004F0DFF8154908600A2004F0C6F9F0
:10127000A9E7000078000020002401400800024097
:10128000382B002066660A4000FEAF407B14AE4754
:10129000E17AF43F22FDF675E09C71BF0000394011
:1012A000800000200032B34088000020F069F84040
:1012B0000000F0BFBC010020942C0020740000202E
:1012C0000349096860F3D751014A11607047000073
:1012D0000824014010B504460CB1206800B910BDC7
:1012E000237C0BB9012300E000231A46A38899B29E
:1012F000206800F0ABFB00BFF1E710B504460CB16D
:10130000206800B910BD237C0BB1012300E000234D
:101310001A46A38899B2206800F098FB00BFF1E755
:101320001CB5074903C9CDE900016946054800F02D
:1013300092FB4FF40051034800F084FB1CBD0000F9
:101340008C6900080008004810B5FFF7E9FF00F0BD
:1013500043F810BD30B5039C00B930BD0160426058
:10136000836000258581C581047400BFF5E770B5F1
:1013700004460D460CB1A06800B970BD204600F0CF
:101380004BF80020A081E5812046FFF7B6FF2046FC
:1013900000F05AF800BFF0E708B501200A4B4203FD
:1013A0000A4900900A48FFF7D5FF32210848FFF7A5
:1013B000DEFF07E0002004F035F8064908600A2047
:1013C00004F01CF9F6E70000001000400008004897
:1013D000742B00209400002010B5772240F2E731F2
:1013E0000C4803F06DFC01210A4803F0C0FD012107
:1013F000084803F0ACFC01221146064803F0AAFCA1
:1014000000220121112002F089FB0021014803F094
:1014100094FC10BD0010004010B504460CB1A0684B
:1014200000B910BDA068006800F0010038B10021CB
:10143000A06803F082FC0021024803F083FC00BF97
:10144000EFE700000010004010B504460CB1A068A2
:1014500000B910BDA068006800F0010018B90121B2
:10146000A06803F06AFC00BFF3E710B504460CB1B6
:10147000A06800B910BDA089401C80B2A081E1899C
:10148000884205DB2046FFF725FF2046FFF7C4FF13
:1014900000BFEFE70649496860F38F31044A5160A5
:1014A00082080349496862F31C71014A5160704720
:1014B000001002400349496860F30711014A516076
:1014C00070470000001002400349496860F30A2198
:1014D000014A51607047000000100240034949680A
:1014E00060F3CD21014A51607047000000100240B6
:1014F000012807D10749496D21F030013031054AF3
:10150000516505E00349496D21F03001014A5165FB
:101510007047000000100240052827D2DFE800F0E5
:10152000030A11181F00134A126861F30002114BDD
:101530001A601CE00F4A126861F310420D4B1A60EA
:1015400015E00C4A126861F318620A4B1A600EE04B
:10155000084A126A61F30002064B1A6207E0054A64
:10156000526A61F30002034B5A6200E000BF00BF01
:1015700070470000001002402DE9F04F85B004468E
:101580000025AA46AB460026A946002004900390F9
:101590000290019000F0DAF90090009820B1012843
:1015A00012D0022875D112E05648406DC0F3402099
:1015B00038B15448006BC0F3406010B1524820600D
:1015C00001E05248206067E05048206064E04D48E8
:1015D0004068C0F3004B4B48C06AC00F30BB49485D
:1015E0004068C0F3834547484068C0F3417ABAF188
:1015F000000F01D10F2D04D14FEA0A10401C054401
:1016000000E0AD1CBBF1000F03D1414868432060EE
:101610003DE03C484068C0F3404018B13C48684356
:10162000206034E039486843206030E03548C06AC3
:10163000C0F3031003903348C06AC0F3082002903F
:101640003048C06A00F007000190BBF1000F02D1E2
:101650002F48049009E02B484068C0F3404010B187
:101660002B48049001E0294804900121019801FAD7
:1016700000F0039900FB01FC02990498A0FB0170A3
:101680000146624600233846FEF78AFD206003E0EB
:10169000FFE71E48206000BF00BF1A484068C0F343
:1016A00003161C4810F80690206820FA09F06060C4
:1016B00014484068C0F30226174810F80690606886
:1016C00020FA09F0E0600F484068C0F3C2261348D2
:1016D00010F80690606820FA09F0A0600948406898
:1016E000C0F3007607484068C0F3813040EA8606C0
:1016F0000B4810F80690A068B0FBF9F0206105B027
:10170000BDE8F08F00100240006CDC0200127A008D
:1017100000093D0044690008546900085C6900083C
:101720006469000810B501460020094B03EB114223
:10173000126801F01F040123A3401A4001F01F04A6
:101740000123A3409A4200D000E0012010BD000018
:101750000010024010B501290DD10E4B03EB1042D1
:10176000126800F01F040123A3401A43094C04EB44
:1017700010431A600CE0074B03EB1042126800F0B4
:101780001F040123A3409A43024C04EB10431A6048
:1017900010BD00000010024030B5024600200023BA
:1017A00072B9354C646824F48034334D6C6033482E
:1017B0002C46246B24F0007404F100742C6319E0AF
:1017C0002D4C646824F4803404F580342A4D6C6018
:1017D000012A06D12A482C46646824F400346C603F
:1017E00008E02648244C646824F4003404F50034EE
:1017F000214D6C60234CA04204D9234CA04201D25D
:10180000002326E0214CA04204D9214CA04201D261
:1018100001231EE01F4CA04204D91F4CA04201D25C
:10182000022316E01C4CA04204D91C4CA04201D259
:1018300003230EE01A4CA04204D91A4CA04201D254
:10184000042306E0174CA04203D9174CA04200D253
:101850000523094C646861F39544074D6C600D09DC
:10186000054C646865F35E74034D6C602C46E46A55
:1018700063F31A64EC6230BD0010024000093D00C1
:1018800000127A0060823B00404B4C0080584F00B1
:10189000105E5F0094357700101B7F0020BCBE00F7
:1018A000286BEE0030D73D01D8E9DC01164800680E
:1018B00020F00100401C1449086000BF1248006875
:1018C000C0F340000028F9D00F48406820F0030022
:1018D0000D49486000BF0C484068C0F381000028F3
:1018E000F9D1094800680949084007490860002003
:1018F000486041F61070C8624FF4801008634FF4DE
:101900001F0088607047000000100240FFFFF2FED9
:101910000D49496860F301010B4A516000BF00BFE7
:1019200000BF00BF00BF00BF00BF00BF00BF00BFBF
:1019300000BF00BF00BF00BF00BF00BF00BF00BFAF
:1019400000BF00BF7047000000100240024840681E
:10195000C0F381007047000000100240026861F38C
:101960000002026070470146486880B270474160DB
:1019700070470000014948607047000000000240C5
:10198000014600200022044B1A6802EA01030BB151
:10199000012000E0002070470000024002684BF682
:1019A000EF731A40026002680B891A4302604B7C95
:1019B000026863F30D320260CB7B026863F38B2213
:1019C00002608B7B026863F3092202604B7B026832
:1019D00063F3C71202600B7B026863F38612026036
:1019E0000B7C026863F3451202604A8942600A6810
:1019F00082604A68C26070471AB103680B43036093
:101A000002E003688B430360704700000021026816
:101A100022F0010202600022026042608260C26025
:101A20000146CAB2083A1423B2FBF3F293000F2224
:101A30009A40034B5B681A43014B5A6070470000A1
:101A40000000024081627047816170470AB1816184
:101A500000E08162704770B50A4600211488A3B285
:101A600033E003F001046CB304684E000325B54075
:101A7000AC43046094794D00AC4005682C4304608D
:101A8000446801258D40AC434460446815798D401D
:101A90002C43446084684E000325B540AC43846009
:101AA000D4794D00AC4085682C438460C4684E00F6
:101AB0000325B540AC43C46054794D00AC40C568C3
:101AC0002C43C4605B104C1CA1B2002BC9DC70BD60
:101AD0000246002013690B408B4200D000E0012039
:101AE00070470246002053690B400BB1012000E013
:101AF00000207047F0B5002300244D07ED0E02FAD8
:101B000005F3CD105DB1456A4E07F70E0F26BE40B6
:101B1000B5434562456A45EA030444620AE0056A42
:101B20004E07F70E0F26BE40B5430562056A45EA2B
:101B300003040462F0BD00001CB504462E480621D3
:101B400000234022CDE900102CA12F4804F0A6FB71
:101B50002E48062100234022CDE900102CA12F4859
:101B600004F09CFB2E48052100234022CDE9001003
:101B70002CA12F4804F092FB2E480621002380223E
:101B8000CDE900102CA12F4804F088FB2E48042139
:101B900000234022CDE900102CA12F4804F07EFB49
:101BA0002E48032100234022CDE900102CA12F480C
:101BB00004F074FB2E48042100234022CDE90010DC
:101BC0002CA12F4804F06AFB2E4806210023402256
:101BD000CDE900102CA12F4804F060FB2E48022113
:101BE00000234022CDE900102CA12F4804F056FB21
:101BF000002003F031FD1CBD700000206164635FB4
:101C00007461736B00000000A911000890000020AF
:101C1000626565705F7461736B0000009913000862
:101C20009C0000206B65795F7461736B000000009D
:101C3000A5200008AC0100206C63645F7461736BC5
:101C40000000000035310008C00100206C65645FB1
:101C50007461736B00000000B9380008C4010020F3
:101C600070776D5F7461736B00000000D5440008ED
:101C7000CC010020736572766F5F7461736B000036
:101C800005480008E401002075736172745F746197
:101C9000736B000029530008EC0100207773323881
:101CA00031325F7461736B00E95A000810B5044665
:101CB00004B910BD204603F0A1FC00BFF9E7000005
:101CC0000421024880F8241070470000EC2B00200B
:101CD0000021024880F8241070470000EC2B0020FF
:101CE0000021024880F8241070470000EC2B0020EF
:101CF00070B504462CB1206818B1606808B1A068BE
:101D000000B970BD207B1E490870002526E0A06840
:101D1000006810F835001A49097888421CD1A0687B
:101D2000006800EBC5004078A1688979884213D12A
:101D3000A068006800EBC5008078A1688871A06881
:101D4000006800EBC500406828B1A168096801EB94
:101D5000C5014868804705E0681C85B2A068808896
:101D6000A842D4DC00BF207B05490978884205D110
:101D700003480078042801D00020207300BFC0E78A
:101D80009800002008B101B102B970470023036038
:101D9000436001608280837100BFF6E71CB5114982
:101DA00003C9CDE9000169460F48FFF754FE8020C2
:101DB000009069460C48FFF74EFE042000906946EB
:101DC0000A48FFF748FE4FF4006000906946074854
:101DD000FFF741FE4FF48060009069460348FFF72B
:101DE0003AFE1CBD94690008001400480004004835
:101DF00010B500B101B910BD0024046044608460D6
:101E000001604260037200BFF5E710B5FFF7C6FF3F
:101E100000F0DEF910BD000010B504462CB12068BA
:101E200018B1606808B1A06800B910BDA07C78B195
:101E3000E089401C80B2E081218A884208DB0020D2
:101E4000A074E08103202073C8210248FFF78FFAB5
:101E500000BFEAE7742B00200948407801280AD126
:101E600008480078002805DD06480078401E05492E
:101E7000087000E000BF0421034880F83C10704760
:101E8000BC010020E0010020EC2B002000210248D2
:101E900080F83C1070470000EC2B00200948407887
:101EA00001280AD108480078002805DD0648007896
:101EB000401E0549087000E000BF0021034880F87B
:101EC0003C107047BC010020E0010020EC2B0020FA
:101ED0000548007818B901200349087002E0002085
:101EE0000149087070470000BC0100200021024831
:101EF00080F86C1070470000EC2B00200948007837
:101F000058B908484078401CC0B2064948708978E2
:101F1000884202DB0020034948700021024880F813
:101F20006C107047BC010020EC2B00202DE9F04123
:101F300004460D4617461E46DDF8188024B11DB133
:101F400016B1B8F1000F01D1BDE8F081182120468B
:101F5000FEF783F925606760A66000202073A4F86F
:101F6000108000BFF0E700000948407801280AD13E
:101F700008480078B42805DA06480078401C05496E
:101F8000087000E000BF0421034880F85410704737
:101F9000BC010020E0010020EC2B002000210248C1
:101FA00080F8541070470000EC2B0020094840785E
:101FB00001280AD108480078B42805DA06480078D4
:101FC000401C0549087000E000BF0021034880F86C
:101FD00054107047BC010020E0010020EC2B0020D1
:101FE00010B504462CB1206818B1606808B1A0682B
:101FF00000B910BDE07C20BB2268928891B22268B3
:102000001068FFF765FD2168097A884219D10F2011
:10201000FFF74CFE2268928891B222681068FFF7A1
:1020200057FD2168097A884226D10120E0740020FA
:10203000E0810120A074204600F0EEF80220207319
:102040001AE0E07CC0B12268928891B222681068E0
:10205000FFF73EFD2168097A88420DD00020E07428
:10206000A074E08101202073A0688079022803D148
:1020700032210A48FFF77BF9207DE17C88420BD0B2
:102080000748406830B1064900231A464868194697
:1020900003F046FFE07C207500BFAAE7742B002008
:1020A000942C002008B50023402240494048FFF707
:1020B0009FFE002380223D493D480C30FFF798FEEB
:1020C000002304223B493A481830FFF791FE0023D1
:1020D0004FF40062374936482430FFF789FE002369
:1020E0004FF48062334932483030FFF781FE0024DC
:1020F0001DE0314A52F82410304A02EBC400062297
:10210000FFF740FE40F2DC502C4A02EBC40304EB24
:102110004402274D05EB820104EB4402284D009058
:1021200005EBC200274AFFF701FF601CC4B2052C73
:10213000DFDB3AE000240FE004EB4401204A02EB2D
:10214000C100FFF74DFF04EB44011D4A02EBC10043
:10215000FFF7CEFD601CC4B2052CEDDB00201A4950
:1021600008700EE01848007800EB4000144901EBBD
:10217000C000C07C00B108E013480078401C124940
:102180000870114800780528ECDB00BF0E48007885
:10219000052802D10A4800F050F8002003F042F967
:1021A0000A4908600A2003F029FAC3E7001400482E
:1021B000882B00200004004898010020C42B002038
:1021C000EC2B002000400140A4000020A0000020D3
:1021D00010B5772240F2E7310E4802F071FD002180
:1021E0000C4802F0A0FD01210A4802F0C0FE0121C6
:1021F000084802F0ACFD01221146064802F0AAFD93
:1022000000220121142001F089FC0021014802F084
:1022100094FD10BD0040014010B504460CB160684B
:1022200000B910BD6068006800F0010018B9012114
:10223000606802F082FD00BFF3E710B504460CB100
:10224000606800B910BD6068006800F0010038B136
:102250000021606802F071FD0021606802F072FDEB
:1022600000BFEFE70420014908737047EC2B002002
:102270000020014908737047EC2B00200020014921
:1022800008737047EC2B002010B504460CB1206891
:1022900000B910BD2268928D91B222685069FFF793
:1022A000D1FB00BFF5E710B504460CB1206800B9BA
:1022B00010BD2268928D91B222685069FFF7C4FB6D
:1022C00000BFF5E77CB504460D460CB1206800B9A7
:1022D0007CBD6089401E80B2CDE900052089401E8A
:1022E00083B200221146204600F047F800BFEFE716
:1022F00010B504460CB1206800B910BD2268128CDC
:1023000091B222689068FFF79FFB00BFF5E710B518
:1023100004460CB1206800B910BD2268128C91B23D
:1023200022689068FFF78EFB00BFF5E710B5044602
:102330000CB1206800B910BD2268928C91B222685D
:10234000D068FFF77FFB00BFF5E710B504460CB17E
:10235000206800B910BD2268928C91B22268D068C2
:10236000FFF772FB00BFF5E710B5044604B910BDD6
:10237000204603F043F900BFF9E72DE9F84F044682
:102380000F4690461D46DDE90A6B5CB1206848B1F6
:10239000AF4207DCB04505DC2089A84202DD608938
:1023A000B04201DCBDE8F88F2B4642463946204654
:1023B000009600F0B1FC2046FFF7A9FF2046FFF78A
:1023C000C4FFB9460FE0C24607E05946204602F076
:1023D00050F90AF101001FFA80FAB245F5DD09F162
:1023E00001001FFA80F9A945EDDD2046FFF780FFC7
:1023F00000BFD7E71CB5214903C9CDE900016946F3
:102400001F48FFF728FB20211D48FFF71DFB082070
:10241000009069461A48FFF71EFB08211848FFF78D
:1024200013FB4FF40040009069464FF09040FFF7D7
:1024300012FB4FF400414FF09040FFF705FB1020D6
:10244000009069460E48FFF706FB10210C48FFF785
:10245000FBFA4020009069460948FFF7FCFA40214A
:102460000748FFF7F1FA8020009069460448FFF71B
:10247000F2FA80210248FFF7E5FA1CBDBC9500087E
:10248000000400482DE9F04F09AC94E8F010DDE9B4
:1024900010ABDDE90E8908B9BDE8F08F016042603C
:1024A0008360C460056146618761C0F81CC0C0F8E4
:1024B0002080C0F82490C0F828A0C0F82CB000BF3D
:1024C000EAE710B5FFF796FF10BD10B504460CB152
:1024D000206800B910BD2268128B91B22268106882
:1024E000FFF7B2FA00BFF5E710B504460CB120685B
:1024F00000B910BD2268128B91B222681068FFF7F4
:10250000A1FA00BFF5E72DE9F04104460D46164655
:102510001F46DDF8188004B10DB9BDE8F0812560D3
:1025200003220021012003F059FC606026816781AD
:1025300084F80C8000BFF0E710B504460CB12068A9
:1025400000B910BD2046FFF79FFEFE21204602F095
:102550007AF8EF21204602F076F88021204602F03A
:1025600072F8FF21204602F095F88121204602F002
:102570006AF8FF21204602F08DF88221204602F001
:1025800062F8FF21204602F085F88321204602F000
:102590005AF8FF21204602F07DF88421204602F0FF
:1025A00052F8FF21204602F075F88521204602F0FE
:1025B0004AF8FF21204602F06DF88621204602F0FD
:1025C00042F8FF21204602F065F88721204602F0FC
:1025D0003AF8FF21204602F05DF88821204602F0FB
:1025E00032F8FF21204602F055F88921204602F0FA
:1025F0002AF8FF21204602F04DF88A21204602F0F9
:1026000022F8FF21204602F045F88B21204602F0F7
:102610001AF8FF21204602F03DF88C21204602F0F6
:1026200012F8FF21204602F035F88D21204602F0F5
:102630000AF8FF21204602F02DF88E21204602F0F4
:1026400002F8FF21204602F025F88F21204601F0F4
:10265000FAFFFF21204602F01DF83A21204601F042
:10266000F2FF0521204602F015F8EC21204601F08A
:10267000EAFF1121204602F00DF87E21204601F0EC
:10268000E2FF7A21204602F005F87421204601F08D
:10269000DAFF0221204601F0FDFF0E21204601F065
:1026A000F9FF0021204601F0F5FF0021204601F04E
:1026B000F1FF2821204601F0EDFF0021204601F026
:1026C000E9FF0021204601F0E5FF9821204601F0B6
:1026D000BAFF3E21204601F0DDFF9921204601F09E
:1026E000B2FF3E21204601F0D5FFB521204601F082
:1026F000AAFF0E21204601F0CDFF0E21204601F059
:10270000C9FF6021204601F09EFF3821204601F0DC
:10271000C1FF0921204601F0BDFF6D21204601F0D7
:10272000B9FF6721204601F0B5FF6321204601F083
:102730008AFF3821204601F0ADFFAD21204601F08F
:10274000A9FF6D21204601F0A5FF6721204601F079
:10275000A1FF0521204601F09DFF6421204601F0E4
:1027600072FF3821204601F095FF0B21204601F031
:1027700091FF7021204601F08DFFAB21204601F032
:1027800089FF6D21204601F085FF6721204601F079
:1027900081FF6621204601F056FF3821204601F0D6
:1027A00079FF0F21204601F075FF7021204601F0CE
:1027B00071FFAF21204601F06DFF6D21204601F031
:1027C00069FF6721204601F065FF6A21204601F07C
:1027D0003AFF0021204601F05DFF0021204601F074
:1027E00059FF6821204601F02EFF3B21204601F0D1
:1027F00051FF0821204601F04DFF0421204601F041
:1028000049FF0021204601F045FF0421204601F048
:1028100041FF6421204601F03DFF6721204601F081
:1028200039FF6C21204601F00EFF2221204601F0E5
:1028300031FF0221204601F02DFF2221204601F028
:1028400029FF0221204601F025FF2221204601F028
:1028500021FF2221204601F01DFF5021204601F0DA
:1028600019FF6E21204601F0EEFE0021204601F006
:1028700011FF0021204601F00DFF0021204601F04C
:1028800009FF0021204601F005FF0721204601F045
:1028900001FF0121204601F0FDFE1321204601F039
:1028A000F9FE1121204601F0F5FE0B21204601F032
:1028B000F1FE0921204601F0EDFE1621204601F02F
:1028C000E9FE1521204601F0E5FE1D21204601F01C
:1028D000E1FE1E21204601F0DDFE0021204601F030
:1028E000D9FE0021204601F0D5FE0021204601F04E
:1028F000D1FE0021204601F0CDFE1E21204601F030
:10290000C9FE1D21204601F0C5FE1521204601F01B
:10291000C1FE1621204601F0BDFE0A21204601F02D
:10292000B9FE0C21204601F0B5FE1221204601F02F
:10293000B1FE1421204601F0ADFE0221204601F037
:10294000A9FE0821204601F0A5FE0021204601F045
:10295000A1FE0021204601F09DFE0021204601F04D
:1029600099FE0021204601F095FEA921204601F0A4
:102970006AFE1B21204601F08DFEA821204601F0B1
:1029800062FE6B21204601F085FEA821204601F061
:102990005AFE6D21204601F07DFEA721204601F060
:1029A00052FE4021204601F075FEAD21204601F087
:1029B0004AFE4721204601F06DFEAF21204601F07E
:1029C00042FE7321204601F065FEAF21204601F052
:1029D0003AFE7321204601F05DFEAC21204601F055
:1029E00032FE4421204601F055FEA321204601F08D
:1029F0002AFE6C21204601F04DFECB21204601F03D
:102A000022FE0021204601F045FECD21204601F0A6
:102A10001AFE2221204601F03DFEC221204601F08F
:102A200012FE1021204601F035FEC521204601F09E
:102A30000AFE0021204601F02DFEC621204601F0AD
:102A400002FE0E21204601F025FEC721204601F09E
:102A5000FAFD1F21204601F01DFEC821204601F08D
:102A6000F2FD0E21204601F015FEBF21204601F0A7
:102A7000EAFD0021204601F00DFEF921204601F07B
:102A8000E2FD2021204601F005FE9B21204601F0B9
:102A9000DAFD3B21204601F0FDFD9321204601F0A7
:102AA000D2FD3321204601F0F5FD7F21204601F0C3
:102AB000F1FD0021204601F0EDFD7021204601F0DE
:102AC000C2FD0E21204601F0E5FD0F21204601F058
:102AD000E1FD0321204601F0DDFD0E21204601F03D
:102AE000D9FD0F21204601F0D5FD0321204601F03C
:102AF000D1FD7121204601F0A6FD0E21204601F0F6
:102B0000C9FD1621204601F0C5FD0321204601F034
:102B1000C1FD9121204601F096FD0E21204601F0D5
:102B2000B9FD0921204601F0B5FDC321204601F081
:102B30008AFD2C21204601F0ADFDC421204601F084
:102B400082FD1A21204601F0A5FDF021204601F06A
:102B50007AFD5121204601F09DFD1321204601F010
:102B600099FD0C21204601F095FD0621204601F03B
:102B700091FD0021204601F08DFD2F21204601F01E
:102B800089FDF221204601F05EFD5121204601F031
:102B900081FD1321204601F07DFD0C21204601F02E
:102BA00079FD0621204601F075FD0021204601F047
:102BB00071FD3321204601F06DFDF121204601F029
:102BC00042FD3C21204601F065FD9421204601F0A4
:102BD00061FD4F21204601F05DFD3321204601F0CB
:102BE00059FD3421204601F055FDCF21204601F04A
:102BF00051FDF321204601F026FD4D21204601F034
:102C000049FD9421204601F045FD4F21204601F069
:102C100041FD3321204601F03DFD3421204601F0E5
:102C200039FDCF21204601F035FD3621204601F047
:102C30000AFD207B08B9002000E0C02001462046A4
:102C400001F028FD1121204601F0FDFCC820FFF70E
:102C50008BFB2921204601F0F6FC2C21204601F0B7
:102C6000F2FC2046FFF71FFB00BF6AE410B50446E4
:102C70000CB1206800B910BD2268128D91B2226893
:102C80001069FEF7E1FE00BFF5E710B504460CB190
:102C9000206800B910BD2268128D91B222681069B7
:102CA000FEF7D0FE00BFF5E710B504460CB1206872
:102CB00000B910BD2046FFF7D9FF0A20FFF754FBEB
:102CC0002046FFF7E2FF0A20FFF74EFB2046FFF702
:102CD000CDFF6420FFF748FB00BFEAE710B50446CC
:102CE0000CB1206800B910BD2268928B91B22268A5
:102CF0005068FEF7A9FE00BFF5E710B504460CB119
:102D0000206800B910BD2268928B91B22268506889
:102D1000FEF798FE00BFF5E72DE9F04104460E46A8
:102D200017461D46DDF818805CB1206848B1AE42F8
:102D300007DC474505DC2089A84202DD6089404563
:102D400001DCBDE8F0812A21204601F07CFC390A33
:102D5000204601F09FFCF9B2204601F09BFC4FEAAF
:102D60001821204601F096FC08F0FF01204601F0F2
:102D700091FC2B21204601F066FC2089401B401E5F
:102D8000C0F30721204601F085FC207A401B401E3D
:102D9000C1B2204601F07EFC2089801B401EC0F39A
:102DA0000721204601F076FC207A801B401EC1B22C
:102DB000204601F06FFC2C21204601F044FC00BFAE
:102DC000BFE72DE9FF4F83B0044699460025002751
:102DD00000200290DDF81080059E64B1206850B19B
:102DE000119840B1B9F17F0F05DC2089404502DD23
:102DF0006089B04202DC07B0BDE8F08F109830B1B6
:102E0000012807D0022808D003280CD108E00825A3
:102E100010270BE01025182708E01025202705E0D3
:102E20001825202702E00825102700BF00BF08EB67
:102E300005002189884203DD4FF00008F01986B2B1
:102E4000F0196189884200DD0026F019401E80B229
:102E5000009008EB0500401E83B2324641462046F2
:102E6000FFF75AFF2046FFF752FA2046FFF76DFAA8
:102E70002846E91705EB5171C910794389B20291CF
:102E80004FF0000A1EE04FF0000B14E0029809FB1F
:102E900000A21198805C40FA0BF000F0010008B12C
:102EA000129800E013980146204601F0E2FB0BF176
:102EB000010000F0FF0BBBF1080FE7DB0AF1010096
:102EC0001FFA80FA02988245DDDB2046FFF710FAF0
:102ED00000BF90E72DE9FF4F8BB004468846DDE93F
:102EE000199A4FF0000B00200A9045460D9E1421C0
:102EF00005A8FDF7B2F905AF54B1206840B1BAF1A9
:102F0000000F05D02089A84202DD6089B04202DCB2
:102F10000FB0BDE8F08FB9F1000F09D0B9F1010F82
:102F20000BD0B9F1020F0DD0B9F1030F14D10EE09F
:102F30004FF0080B10200A9013E04FF0100B1820F0
:102F40000A900EE04FF0100B20200A9009E04FF09D
:102F5000180B20200A9004E04FF0080B10200A9074
:102F600000BF00BF05A80E9A1899FDF7B5FC23E035
:102F700005EB0B00A02803DD00250A98304486B23B
:102F80000A983044282800DD0026DDE91B10CDE931
:102F9000009ACDE902103878202801D1002001E004
:102FA00038782F38C3B2324629462046FFF709FF4A
:102FB00005EB0B0085B27F1C38780028D8D100BF04
:102FC000A6E72DE9F84F04460E4617469846DDE978
:102FD0000B9BDDF828A0A4B1206890B1B9F1000FD7
:102FE0000FD02089B0420CDD6089B84209DD06EBC4
:102FF00008002189884204DC07EB0A0061898842C5
:1030000001DDBDE8F88F07EB0A00401E80B200909A
:1030100006EB0800401E83B23A4631462046FFF7D1
:103020007BFE2046FFF773F92046FFF78EF9002557
:103030000DE0012000EB450019F8000019F81520FB
:1030400040EA0221204601F014FB681C85B20BEB1C
:10305000DB71B5EB610FECDB2046FFF749F900BFF0
:10306000CFE72DE9F04F87B00446884691461D46CC
:10307000DDE910AB00200690059046464F465CB156
:10308000206848B1BBF1000F06D02DB12089B042B5
:1030900002DD6089B84202DC07B0BDE8F08FBAF10A
:1030A000000F09D0BAF1010F0BD0BAF1020F0DD009
:1030B000BAF1030F14D10EE00820069010200590FD
:1030C00013E010200690182005900EE010200690C6
:1030D0002020059009E0182006902020059004E0AB
:1030E000082006901020059000BF00BF1CE0069845
:1030F0003044A02803DD00260598384487B205989F
:103100003844282800DD0027DDE91210CDE900ABA6
:10311000CDE9021015F8013B3A4631462046FFF74B
:1031200050FE0698304486B228780028DFD100BFD0
:10313000B2E700008AB08020402110220302CDE9CE
:103140000532CDE9071008202021FE4A0192CDE981
:1031500002214FF09043114600920490FA48FFF785
:1031600091F900202823A022F7490090F748FFF7A3
:10317000CAF9F648FFF798FDF448FFF7DDF94FF676
:10318000FF71F248FFF79EF841F6B050F04928224F
:103190005F23CDE90021029000222121EB48FFF7B7
:1031A00010FF4FF4FA6002F029FA0021E748FFF718
:1031B00089F87FE2E548406800287DD0E348406810
:1031C0004FF0FF31099002F06BFF012874D1E14804
:1031D0004078E149097888420AD00021DB48FFF7AE
:1031E00071F8DC484078DC4908703220DB4908700F
:1031F000D8480078DA49097888420DD00021D348B0
:10320000FFF760F8D3480078D54908703220D349D9
:1032100008700020D3490870CE48007800287DD17E
:10322000CC48407810B1012879D17AE1CB480078B8
:10323000401CC0B2C9490870322871DB00200870F8
:10324000C9480068C8490968491CC74A1160099003
:10325000FCF7E2FFC348007820B1012878D00228AB
:1032600075D1E3E0FCF7CEFFC117079000EBD1600A
:1032700041110798A0EB4110C006040CFCF7C2FFF7
:10328000C117089000EB916081110898A0EB8110A4
:1032900000F03F0044EA4014FCF7B4FFC117099066
:1032A00000EBD16041110998A0EB411000F01F0024
:1032B00020430021AD4A00E0F4E10690CDE9001280
:1032C000ABA30A46CDE90201A048FFF7CAFEFCF70E
:1032D00099FFC117079000EBD16041110798A0EB4F
:1032E0004110C006040CFCF78DFFC117089000EBDD
:1032F000916081110898A0EB811000F03F0044EA32
:103300004014FCF77FFFC117099000EBD160411119
:103310000998A0EB411000F01F0002E054E151E1D8
:10332000FEE020430021944A03230690CDE90132B8
:10333000CDE9030191A000909148008E034604223C
:10334000402105908148FFF7C5FDDEE000E0DBE0AD
:10335000FCF758FFC117079000EBD16041110798A7
:10336000A0EB4110C006040CFCF74CFFC1170890FD
:1033700000EB916081110898A0EB811000F03F00F4
:1033800044EA4014FCF73EFFC117099000EBD160FE
:1033900041110998A0EB411000F01F0020430021CB
:1033A000724A0690CDE9001276A30A46CDE90201E1
:1033B0006648FFF756FEFCF725FFC117079000EBA4
:1033C000D16041110798A0EB4110C006040CFCF736
:1033D00019FFC117089000EB916081110898A0EBCC
:1033E000811000F03F0044EA4014FCF70BFFC117C6
:1033F000099000EBD16041110998A0EB411000F059
:103400001F00204300215C4A03230690CDE90132CE
:10341000CDE9030159A000905948408E034604228B
:10342000402105904948FFF755FD6EE0FCF7EAFEA4
:10343000C117079000EBD16041110798A0EB411034
:10344000C006040CFCF7DEFEC117089000EB91608B
:1034500081110898A0EB811000F03F0044EA40146D
:10346000FCF7D0FEC117099000EBD160411109981B
:10347000A0EB411000F01F00204300213B4A0690C2
:10348000CDE9001241A30A46CDE902012F48FFF71A
:10349000E8FDFCF7B7FEC117079000EBD1604111C2
:1034A0000798A0EB4110C006040CFCF7ABFEC11757
:1034B000089000EB916081110898A0EB811000F05A
:1034C0003F0044EA4014FCF79DFEC117099000EB51
:1034D000D16041110998A0EB411000F01F0020437A
:1034E0000021254A03230690CDE90132CDE90301ED
:1034F00022A000902248808E03460422402105909D
:103500001248FFF7E7FC00E000BF00BF1548007855
:10351000401CC0B213490870032801DB002008706A
:1035200051E000204FF61F01104ACDE9000219A317
:103530000246CDE9021001460448FFF792FD002043
:103540002CE0000000040048642C0020942C002093
:10355000C4950008BC010020BA010020B801002079
:10356000BB010020B9010020B40100209C690008C3
:1035700061646320000000009C9100082534750000
:10358000382B002074656D7000000000767265664F
:1035900000000000736572766F00000040F2FF715A
:1035A000454A0323CDE90132CDE9031043A0009041
:1035B0004348807903460422582109904148FFF787
:1035C00089FC00E000BF00E000BF00204FF6205162
:1035D0003D4ACDE90002CDE902103C48C07C08B16B
:1035E000552000E02020034618220021099035488C
:1035F000FFF7E7FB00204FF62051334ACDE90002E8
:10360000CDE90210314890F82B0008B1442000E0C9
:10361000202003461822082109902A48FFF7D1FBF1
:1036200000204FF62051284ACDE90002CDE90210D2
:10363000264890F8430008B14C2000E020200346C3
:103640001822102109901F48FFF7BBFB00204FF6FE
:1036500020511D4ACDE90002CDE902101B4890F827
:10366000730008B14D2000E02020034618221146C7
:1036700009901448FFF7A5FB00204FF62051124A8D
:10368000CDE90002CDE90210104890F85B0008B1C6
:10369000522000E0202003461822202109900948EA
:1036A000FFF78FFB002001F0BDFE094908600A20EA
:1036B00001F0A4FF7EE500009C9100082533750011
:1036C000D8010020942C00209C690008EC2B0020DD
:1036D000B00100207CB505460C4605B97CBD054906
:1036E00003C9CDE90001009469462846FEF7B3F905
:1036F00000BFF3E78CB300082DE9FC4107460C46F8
:1037000015461E460FB9BDE8FC81084903C9CDE93D
:103710000001009469463846FEF79DF93246294675
:103720003846FEF7E7F900BFEDE7000084B3000874
:103730001CB50F4903C9CDE9000169464FF090401F
:10374000FEF789F9052207214FF09040FEF7D2F9E4
:1037500001208DF80600009069464FF09040FEF77A
:103760007AF901214FF09040FEF76CF91CBD000082
:1037700074B3000810B5FFF7DBFF00F0E9F810BDE7
:103780002DE9F05F04460D4616461F46DDE90CABF9
:10379000DDE90A9804B10DB9BDE8F09F2421204667
:1037A000FCF75BFD25606660277284F80990C4F819
:1037B0000C80A4F814A0A4F810B00E9860820F98A2
:1037C00020830120A0761198E07612982077B8F136
:1037D000000F01D0002000E00220A07700206077D9
:1037E000109884F8200000BFD6E710B5044624B135
:1037F000206810B1A07F022800D010BD94F82030BE
:103800000BB9012300E000231A46A38899B220686F
:10381000FEF71CF900BFF0E728B102681AB1C268D0
:103820000AB1642900DA7047018300BFFBE748B1A1
:1038300002683AB1C2682AB1C27E8A4202DC027FC3
:103840008A4200DA7047817600BFFBE770B5044614
:103850000D461CB1206808B1E06800B970BD25B103
:10386000012D10D0022D22D119E0637A227AD4E9F9
:103870000001FFF741FF218AE06801F080FB20464C
:1038800000F0F2F814E0D4E90001FFF723FF618AA9
:10389000E06801F074FB204600F0E6F808E0D4E9A7
:1038A0000001FFF717FF204600F0EFF800E000BF2F
:1038B00000BFA57700BFD1E78AB014200121002204
:1038C0004FF4FA73CDE90532CDE9071040F2E73045
:1038D00041F287311B4BCDE90131CDE903100520C1
:1038E000072380224FF0904100901748FFF748FFD0
:1038F00014211548FFF79BFF4FF496711248FFF70C
:103900008BFF00211048FFF7A1FF002005900690D3
:1039100007900890019002900390049003460122C2
:103920004FF0904100900948FFF72AFF0221074815
:10393000FFF78CFF0548FFF758FF02E00A2001F06F
:103940005DFEFBE700480140A42C0020C82C0020AD
:103950001CB51C4903C9CDE90001772241F287312A
:10396000194801F0ADF90021174801F0DCF90121F7
:10397000154801F0FCFA6A460021134801F022FACA
:1039800041F287320021104801F0B9F901220021EB
:103990000D4801F0F6F901210B4801F0D8F9012298
:1039A0001146094801F0D6F900220121162000F045
:1039B000B5F80121044801F0D5FA0121024801F0CF
:1039C000BCF91CBD7CB300080048014010B504469A
:1039D000A07F98BB0020E082607FB8B9A08AA17E5A
:1039E000084441F28731884204DCA08AA17E084461
:1039F000A0821DE0A08A41F28731884203DAA08AC2
:103A0000401CA08214E00120607711E0A08AA17E12
:103A1000884204DBA08AA17E401AA08208E0A08A26
:103A2000002803DDA08A401EA08201E0002060770C
:103A3000A28A00210B4801F062F912E0FFE7A07FA3
:103A400001280ED10020A0826077E08A401C80B25D
:103A5000E082218B884204DB0020E082204600F0D7
:103A600029F810BD0048014010B504460CB1E068CB
:103A700000B910BDE068006800F0010018B901212C
:103A8000E06801F05AF900BFF3E710B504460CB145
:103A9000E06800B910BDE068006800F0010038B1CE
:103AA0000021E06801F049F90021E06801F04AF9DD
:103AB00000BFEFE770B504461CB1206808B1A07FD5
:103AC00000B970BDA28891B22068FEF70AF808B963
:103AD000012000E000200546A28891B22A46206815
:103AE000FDF7B4FF00BFECE71CB501F083F8002040
:103AF000012103464022CDE9001004A1064802F04E
:103B0000CDFB01F0E1FE00201CBD0000696E697470
:103B10005F7461736B000000391B00082DE9F047EA
:103B20000B4614464FF0000C00BF2C4A1268C2F33B
:103B300002211D4626460A46C2F10709B9F1040FC3
:103B400002D94FF0040901E0C2F10709C84602F1A9
:103B50000409B9F1070F02D24FF0000901E0A2F108
:103B600003094F464FF0010909FA08F9A9F10109C3
:103B700009EA050909FA07F94FF0010A0AFA07FAF2
:103B8000AAF1010A0AEA060A49EA0A09CC460146EC
:103B90006246002904DB15072E0E114D6E5407E016
:103BA00015072F0E0D4D0C3501F00F06361FAF55C2
:103BB00000BF014600290DDB00BF00BF01F01F055B
:103BC0000122AA404D09AD0005F1E025C5F800210C
:103BD00000BF00BF00BFBDE8F08700000CED00E0B3
:103BE00000E400E000BF00F00702064B19684FF642
:103BF000FF031940044B0B4343EA0221014B1960B8
:103C000000BF70470CED00E00000FA052DE9F0411F
:103C100005460E462648076826480068001D01F044
:103C2000EDFB50B92348006890F82C100120884023
:103C300021490968814320480160681CD8B9D6B180
:103C40001E4948681B49096888601A4982680968E2
:103C5000CA6018490968091D8268516015490968D8
:103C6000091D8160154A134909684A6111460968AE
:103C7000491C11601AE07C190E4800684460BC427F
:103C800007D20C480168091D0D48006801F0EEFBE1
:103C90000CE008480168091D0A48006801F0E6FBCD
:103CA00009480068844201D207480460BDE8F081F9
:103CB000400000202C00002044000020242B002085
:103CC00034000020300000205C00002010B50446C5
:103CD00001F0F2FB2F480068401C2E4908602E4876
:103CE000006840B92C4804600846006801280DD1DE
:103CF00000F09AF90AE02948006838B926480068B7
:103D0000C06AE16A884201D82348046024480068F8
:103D1000401C2349086094F82C1001208840214958
:103D2000096808431F490860E16A01EB81011E4AE6
:103D300002EB81014868A0608268E260211D826810
:103D400051608160E16A01EB8101174A02EB810257
:103D50006261E16A01EB8101134A52F82110491CAA
:103D6000E26A02EB8202104B43F8221001F0CEFB14
:103D70000A48006868B108480068C06AE16A884279
:103D800007D24FF0805009490860BFF34F8FBFF34F
:103D90006F8F10BD3C0000202C0000204800002048
:103DA00058000020440000200C2A002004ED00E010
:103DB00010B516E001F080FB0C48C068C468201DF7
:103DC00001F01CFB0A480068401E094908600948C8
:103DD0000068401E0749086001F098FB204600F08B
:103DE0004AF8044800680028E4D110BD102B0020D8
:103DF0003C000020380000202DE9F04104460F4629
:103E000015464FF00008A66B206C48B920680028C2
:103E10002CD1A06802F054FB80460020A06025E071
:103E20007DB93946226C6068FCF7FEF9216C606848
:103E300008446060D4E90101884217D320686060BB
:103E400014E03946226CE068FCF7EEF9216CE0687A
:103E5000411AE1602168E068884203D2216CA068C1
:103E6000411AE160022D01D106B1761E701CA063DB
:103E70004046BDE8F08110B50446206B01F064FBBC
:103E8000204601F061FB10BD01464A6A22B10A6B6F
:103E90001268C2F10A0000E00020704730B54FF40C
:103EA0002053154800F007042CB1C01D20F0070076
:103EB000114C041B1B1B0246104C226000240F4DAA
:103EC0006C60D018083820F007000D4C20600024EA
:103ED0000B4D2D686C600A4D2D682C601146441AFC
:103EE0004C60074C24680C60064D4C682C60064DF5
:103EF0004C682C6030BD00000C0200200400002043
:103F00000C000020140000201000002000BFFFF76C
:103F10004FFF064800680128F9D94FF08050044946
:103F20000860BFF34F8FBFF36F8FF0E70C2A0020BC
:103F300004ED00E02DE9F04106460D46174698468F
:103F4000069C0DB9246000E02760E663256401212A
:103F5000204601F077FFBDE8F0812DE9F05F824651
:103F60000F4690469B460A9E0C9C4FEA8801A5226C
:103F7000206BFCF76BF9A8F10100216B01EB8009C4
:103F800029F0070909F0070008B9012000E0002026
:103F900050B900BFBF2080F31188BFF34F8FBFF32C
:103FA0006F8F00BF00BFFEE77FB1002507E0795D9E
:103FB00004F134004155785D00B902E06D1C0C2D10
:103FC000F5D300BF00213F2001550A2E01D2012068
:103FD00000E0002050B900BFBF2080F31188BFF37C
:103FE0004F8FBFF36F8F00BF00BFFEE70A2E00D3D5
:103FF0000926E6622664201D01F035FA04F1180056
:1040000001F031FA2461C6F10A00A06164625A46E7
:104010005146484600F0AAFA20600B9808B10B9868
:104020000460BDE8F09F000010B5002407E004EB39
:1040300084010F4A02EB810001F008FA641C0A2C8B
:10404000F5D30C4801F002FA0B4801F0FFF90B48D8
:1040500001F0FCF90A4801F0F9F90A4801F0F6F913
:1040600004480949086004480849086010BD000078
:104070000C2A0020D42A0020E82A0020FC2A002054
:10408000102B0020242B00203000002034000020C2
:1040900010B50146164800E0006803688B42FBD368
:1040A0000246436813448B4204D143684C6823445E
:1040B000436001460A464B6813440468A34211D189
:1040C0000C4C03682468A34208D04B6804686468F9
:1040D00023444B6003681B680B6005E0054B1B68BD
:1040E0000B6001E003680B60884200D0016010BDE6
:1040F000040000200C00002070B5054601F0DCF93A
:10410000A86B08B9012400E0002401F0FFF9204663
:1041100070BD70B5054601F0CFF9A86BE96B884218
:1041200001D1012400E0002401F0F0F9204670BD27
:1041300009480068006808B9012000E0002020B1AB
:104140004FF0FF300549086005E003480068C0688B
:104150000068024908607047300000205C000020C1
:104160000246002101E0521C491C1078A528FAD013
:10417000890888B2704700000E480068401C08B9E2
:10418000012000E0002050B900BFBF2080F311885B
:10419000BFF34F8FBFF36F8F00BF00BFFEE700BFBD
:1041A000BF2080F31188BFF34F8FBFF36F8F00BF25
:1041B00000BFFEE72000002070B5044601F07CF946
:1041C00094F9455010E0606A08B9012000E0002031
:1041D00038B904F1240002F061FA18B101F0C6FA0E
:1041E00000E003E0681E45B2002DECDC00BFFF20BC
:1041F00084F8450001F08AF901F05EF994F9445021
:1042000010E0206908B9012000E0002048B904F15D
:10421000100002F043FA08B101F0A8FA681E45B296
:1042200000E001E0002DECDC00BFFF2084F844003A
:1042300001F06CF970BD00002DE9F04705464FF024
:10424000000901F089FB4248006808B9FFF726FE23
:1042500075B105F00700C0F11008C8F1FF30A842A1
:1042600001D2012000E0002008B9454400E000250B
:10427000012000EBE570002853D0002D51D03548C7
:10428000006885424DD8344E3046046801E0264629
:1042900024686068A84202D220680028F7D12C4820
:1042A000006884423DD0306800F108092068306021
:1042B0006068401B102819D9671907F0070008B972
:1042C000012000E0002050B900BFBF2080F311881A
:1042D000BFF34F8FBFF36F8F00BF00BFFEE7606873
:1042E000401B786065603846FFF7D2FE1949606868
:1042F0000968081A174908600846006817490968DC
:10430000884203D21348006814490860606840F08E
:10431000004060600020206011480068401C104987
:10432000086002F04BFA09F0070008B9012000E02C
:10433000002050B900BFBF2080F31188BFF34F8F1A
:10434000BFF36F8F00BF00BFFEE74846BDE8F087B0
:104350000C000020100000200400002014000020A9
:10436000180000200648006830B10549096801F1CD
:104370004400496C491C0160014800687047000016
:104380002C00002070B504460CB1206800B970BD47
:10439000206800F0D9FC451C206800F0EDFD401CB1
:1043A00045430A48B0FBF5F0A0602179206800F091
:1043B0008FFC401C642100FB01F5206800F0DCFD4F
:1043C000401CB5FBF0F0207300BFE0E7000E2707AC
:1043D0001CB5074903C9CDE9000169460548FDF749
:1043E0003AFB002201210348FDF784FB1CBD0000BD
:1043F00094B300080004004810B5FFF7E9FF00F08F
:104400008BF810BD2DE9F04104460D46164604B167
:104410000DB9BDE8F08125602671206800F094FC9C
:10442000471C206800F0A8FD401C47430A48B0FB29
:10443000F7F0A0602179206800F04AFC401C64215C
:1044400000FB01F7206800F097FD401CB7FBF0F07F
:10445000207300BFDDE70000000E270770B504469B
:104460000D461CB1206808B1642D00DD70BD2068C8
:1044700000F082FD401C68436421B0FBF1F60EB1F0
:10448000731E00E000231A462179206800F037FCF3
:1044900000BFEBE770B504460D4634B1206820B18B
:1044A000102D02D30948854200D970BD206800F064
:1044B0004BFC401C68430649B1FBF0F0461E3146F8
:1044C000206800F05CFD00BFEFE70000A08601005F
:1044D000000E270700220D490D48FFF793FF42F217
:1044E00010710B48FFF7D6FF32210948FFF7B6FFDE
:1044F0000748FFF747FF07E0002000F093FF05495A
:1045000008600A2001F07AF8F6E700000020004079
:10451000EC2C0020C80100201CB5124903C9CDE9CC
:10452000000177226321104800F0CAFB00210E48E9
:1045300000F0F9FB01210C4800F019FD6A4600214A
:10454000094800F03FFC09220021074800F0D7FB92
:1045500001220021044800F014FC0121024800F06F
:10456000ECFB1CBD9CB3000800200040001F4FF076
:1045700080730360001F21F001030360001F034BE1
:104580000360143802602038704700007941000849
:1045900070B504460D460CB1206800B970BD00BF6F
:1045A00021680868022100F0AAF90028F8D015B1A6
:1045B0002268127901E02268527911462268106857
:1045C00000F09BF900BF21680868022100F097F90C
:1045D0000028F8D000BFE1E770B504460E460CB1E4
:1045E000206800B970BD002513E02046FEF785FB6A
:1045F00006FA05F000F0800018B12046FDF765FFCF
:1046000002E02046FDF770FF2046FEF767FB681CBE
:10461000C5B2082DE9DB00BFE4E770B504460E46DD
:104620000CB1206800B970BD002508E006FA05F05D
:1046300000F080012046FFF7ABFF681CC5B2082DD3
:10464000F4DB00BFEFE770B504460D460CB12068FF
:1046500000B970BD2046FDF75AFE2046FDF766FE04
:1046600029462046FFF7B8FF2046FDF741FE00BF70
:10467000EFE770B504460D460CB1206800B970BD77
:10468000290A2046FFF7A8FFE9B22046FFF7A4FF5A
:1046900000BFF4E770B504460D460CB1206800B9C0
:1046A00070BD2046FDF733FE2046FDF74EFE29463D
:1046B0002046FFF791FF2046FDF71AFE00BFEFE707
:1046C00070B504460CB1206800B970BD002516E035
:1046D00000BF21680868022100F011F90028F8D015
:1046E00022689179106800F008F900BF2168086815
:1046F000022100F004F90028F8D0681C85B2B5F555
:10470000967FE5DB00BFE0E71CB5084903C9CDE9AA
:10471000000169464FF09040FDF79DF90222082103
:104720004FF09040FDF7E6F91CBD0000A4B300086F
:1047300010B5FFF7E9FF00F0A7F810BD2DE9F04133
:1047400004460D46164604B10DB9BDE8F08125605A
:1047500026712179206800F0BBFA401C642100FB1F
:1047600001F7206800F008FC401CB7FBF0F0607116
:104770000020A07100BFE8E72DE9F0478246BAF1BA
:10478000B40F02DD40F6C31010E05046FBF7F8FE10
:104790000646084A084BFBF712FE04460022074B68
:1047A000FBF766FD8046FBF7F8FE401E80B2BDE8D1
:1047B000F0870000B81E85EB5138264000487F4046
:1047C00070B504460D460CB1B42D00DD70BD284611
:1047D000FFF7D2FF064621793246206800F08FFAB3
:1047E0002179206800F074FA401C642100FB01F676
:1047F000206800F0C1FB401CB6FBF0F06071A571B1
:1048000000BFE3E7002219491948FFF797FF5A2133
:104810001748FFF7D5FF5A201649087024E01648BC
:10482000007814490978884216D012480178104857
:10483000FFF7C6FF0F4800780F4908700F4840780F
:10484000012809D10E48406830B10D4900231A46AD
:104850004868194601F064FB002000F0E3FD0949B7
:1048600008600A2000F0CAFED9E70000002C0140D1
:10487000D8010020E0010020D4010020BC0100206C
:10488000942C0020D00100201CB5174903C9CDE9A4
:104890000001772244F61F61144800F011FA00214C
:1048A000124800F045FA0021104800F03CFA0121BE
:1048B0000E4800F05CFB6A4600210C4800F082FACA
:1048C00040F2F3120021094800F019FA01220021F8
:1048D000064800F056FA0121044800F043FB01218C
:1048E000024800F02AFA1CBDACB30008002C0140BD
:1048F000026861F3861202607047C1607047024629
:10490000002093680B4003B900E001207047C269A2
:1049100022F40062C2610A7862B9026822F400429D
:104920000260026822F480420260026822F480621F
:10493000026036E00A78012A0ED1026822F40042B1
:104940000260026822F480420260026822F48062FF
:1049500002F58062026024E00A78022A0ED1026821
:1049600022F4004202F500420260026822F4804212
:104970000260026822F48062026012E00A78032A70
:104980000FD1026822F4004202F500420260026880
:1049900022F4804202F580420260026822F48062C2
:1049A0000260CB79026863F3492202604A78012AE7
:1049B00009D1CA79012A06D1026822F4807202F56F
:1049C0008072026003E0026822F4807202604B7819
:1049D000026863F3820202608A78072A0BDD42686C
:1049E00022F4807202F5807242608A78036862F372
:1049F000C503036008E0426822F4807242608B784D
:104A0000026863F3C5020260CB78026863F3C712E1
:104A100002600B79026863F3CB2202604B79026873
:104A200063F3410202608B79026863F30002026063
:104A30007047000010B5FCF739FF40F253101749DA
:104A4000086000210120FCF767FD1D210020FCF714
:104A5000A3FE01210220FCF75FFD00BF1920FCF737
:104A600061FE0128FAD10020FCF724FD0020FCF7AC
:104A700035FD0020FCF728FD0120FCF739FD022060
:104A8000FCF746FF00BFFCF761FF0228FBD10020C6
:104A9000FCF72EFD00F004F810BD000000200240DD
:104AA0002DE9FF5F002400250026A146A246A3466B
:104AB0000020039002900190FCF748FF00900098BE
:104AC00020B1012814D0022874D115E04348406D6C
:104AD000C0F3402040B14148006BC0F3406018B1C2
:104AE0003F484049086002E03F483E49086065E0B1
:104AF0003D483C49086061E038484068C0F30046E2
:104B00003648C06AC00F20BB34484068C0F38344B5
:104B100032484068C0F341750DB90F2C03D128010C
:104B2000401C044400E0A41C26B9304860432D49D1
:104B300008603DE029484068C0F3404020B12B4860
:104B400060432849086033E02748604325490860EE
:104B50002EE02248C06AC0F3031003901F48C06AC9
:104B6000C0F3082002901D48C06A00F007000190C1
:104B700016B9DFF878B009E018484068C0F3404043
:104B800010B1DFF868B001E0DFF85CB001210198F6
:104B900001FA00F0039900FB01FC0298ABFB0070E6
:104BA0000146624600233846FBF7FAFA0D490860D1
:104BB00004E0FFE70C480B49086000BF00BF07484E
:104BC0004068C0F303190A4810F809A005480068B6
:104BD00020FA0AF003490860BDE8FF9F0010024078
:104BE000006CDC020000002000127A0000093D0089
:104BF0003469000810B5FFF71DFF0520FEF7F2FF2E
:104C000001212A48FCF7A6FD01214FF4A010FCF772
:104C1000A1FD01212648FCF79DFD01212448401CEF
:104C2000FCF798FD01212248801CFCF793FD01212F
:104C30001F48401DFCF78EFD01211E48FCF78AFD30
:104C400001211A48801CFCF785FD012119480A380A
:104C5000FCF780FD01211748801FFCF77BFD012137
:104C60001248C01DFCF776FD012110480930FCF701
:104C700071FD01210D48401DFCF76CFD0E48FCF74D
:104C8000D9F9FCF761FBFDF7C0F8FDF71AFCFEF758
:104C900071FDFFF7B1FBFFF74BFD0849A1F1800063
:104CA00000F06FF900F0BAFE10BD00000900180016
:104CB000110014000E001C005C2B00208C2D002025
:104CC000C1628262436923F001035B1C4361704748
:104CD00010B5024600200B4633B1022B06D0042B40
:104CE00006D0062B08D105E0506B06E0906B04E07F
:104CF000D06B02E0106C00E000BF00BF10BD0B469F
:104D000033B1022B06D0042B06D0062B08D105E0C8
:104D1000426306E0826304E0C26302E0026400E0F2
:104D200000BF00BF7047026861F30922026070474C
:104D3000026861F3061202607047026861F30002C4
:104D400002607047416270470146886A7047CA43F3
:104D500002617047012A03D1C3680B43C36003E0BB
:104D600012B9C3688B43C3607047024600201369C1
:104D70000B4023B1D3680B400BB1012000E00020B1
:104D8000704710B50B4633B1022B09D0042B0CD061
:104D9000062B14D10EE0846962F3C30484610FE032
:104DA000846962F3CB2484610AE0C46962F3C304BA
:104DB000C46105E0C46962F3CB24C46100E000BFB4
:104DC00000BF10BD2DE9F04100250026002701F1AC
:104DD00008035C1C92F801C00CFA03FC1FFA8CF566
:104DE00092F802C00CFA04FC1FFA8CF6D0F804C04A
:104DF0004FF0010808FA04F82CEA080CC0F804C0C7
:104E0000D0F804C04CEA060CC0F804C0D0F804C0C6
:104E10004FF0010808FA03F82CEA080CC0F804C0A7
:104E2000D0F804C04CEA050CC0F804C00F4637B1F6
:104E3000022F0DD0042F14D0062F24D11AE092F89F
:104E40000080D0F818C068F3061CC0F818C01BE03A
:104E500092F80080D0F818C068F30E3CC0F818C073
:104E600012E092F80080D0F81CC068F3061CC0F86D
:104E70001CC009E092F80080D0F81CC068F30E3C1A
:104E8000C0F81CC000E000BF00BF4FF0010C0CEBED
:104E900041034FF0030C0CEB410492F803C00CFAF1
:104EA00003FC1FFA8CF592F804C00CFA04FC1FFAFC
:104EB0008CF64FF0010808FA04F8D0F820C02CEA6C
:104EC000080CC0F820C0D0F820C04CEA060CC0F88E
:104ED00020C04FF0010C0CFA03FCD0F8208028EA27
:104EE0000C08C0F82080D0F820C04CEA050CC0F8AF
:104EF00020C04B004FF0020C0CEB410492F805C0AF
:104F00004FEA41080CFA08FC1FFA8CF592F806C02B
:104F10004FF0020808EB41080CFA08FC1FFA8CF667
:104F20004FF0010808FA04F8D0F820C02CEA080C69
:104F3000C0F820C0D0F820C04CEA060CC0F820C051
:104F40004FF0010808FA03F8D0F820C02CEA080C4A
:104F5000C0F820C0D0F820C04CEA050CC0F820C032
:104F6000BDE8F081426C61F3CF3242647047026861
:104F700061F3C712026070470146C86A7047C16298
:104F8000704770B504460D4600F07CF8294620466F
:104F900000F02EF800F002FA70BD2DE9F041044651
:104FA0000F46154600260CB107B115B90220BDE821
:104FB000F0818026314604F11000FBF74EF9B5422E
:104FC00008DD3246394604F11000FBF72DF9A681C1
:104FD0000120ECE72A46394604F11000FBF724F9DA
:104FE000A5810020E3E70146486880B270470000D1
:104FF00030B585B005460C46142218496846FBF7C3
:1050000013F901951648FCF701FD69461448FCF7B1
:10501000C5FC012202211248FCF7EEFC002201210E
:105020000A20FEF77BFD00210D48FCF797FC019458
:105030000020ADF808008020ADF80A0008481430C0
:10504000FCF7E4FC694606481430FCF7A7FC012194
:1050500003481430FCF782FC05B030BDBCB3000837
:105060001C000240426961F3861242617047426946
:1050700061F3C71242617047C26861F34D32C2608A
:10508000704700001CB50E4903C9CDE9000169460F
:105090004FF09040FCF7DFFC01220921C806FCF725
:1050A00029FD4FF48060009069464FF09040FCF776
:1050B000D2FC01220A214FF09040FCF71BFD1CBDE1
:1050C000B4B300082DE9F04385B004460F4690467E
:1050D00099466846FCF750FA1448844201D1029E72
:1050E00000E0039E06EB86004000B0FBF7F50A20C7
:1050F000B5FBF0F100FB1150052803D20A20B5FBE7
:10510000F0F503E00A20B5FBF0F0451CA06865F35C
:105110000F00A060E06868F30C30E060206969F37C
:105120000D30206105B0BDE8F0830000003801407B
:1051300030B5012A0BD100EB11431B6801F01F05AC
:105140000124AC40234300EB114423600AE000EB50
:1051500011431B6801F01F050124AC40A34300EB81
:105160001144236030BD02460023202927D00CDCE7
:10517000042939D004DC01293BD002293DD134E097
:10518000082920D0102938D12AE0402913D08029BD
:105190000DD0B1F5807F06D0B1F5007F2DD15069DB
:1051A000C0F380232BE01069C0F3801327E0D068A0
:1051B000C0F3C01323E0D068C0F380131FE0D068B1
:1051C000C0F340131BE0D068C0F3401018B9506919
:1051D00000F0010008B1012000E0002003460EE0CD
:1051E000D068C0F300130AE000BF506900F001036B
:1051F00005E0D068C0F3002301E0002300BF00BF3A
:10520000012B01D0002070471068084008B1012030
:10521000F9E70020F7E72DE9F04104460D4617466F
:105220001E460CB105B10EB9BDE8F0814FF48A718C
:105230002046FBF712F825606760A660012084F81D
:105240001001002084F8110100BFEDE741B9C268E8
:1052500022F40072C260C26822F48062C2601AE066
:1052600001290AD1C26822F40072C260C26822F425
:10527000806202F58062C2600DE002290BD1C26833
:1052800022F4007202F50072C260C26822F48062E9
:1052900002F58062C2607047C26861F38202C26038
:1052A000704710B504460CB1A06800B910BD80214C
:1052B00004F19000FAF7D1FF0121A068FCF74EFB42
:1052C000002084F8110100BFF0E710B504460CB1CE
:1052D000A06800B910BD0021A068FCF73FFBA068E2
:1052E000FCF741FBC0F18000E0818021A068FCF761
:1052F0003EFB012084F8110100BFEBE710B5044626
:1053000014B194F8100108B9012010BDA18960689A
:10531000FCF72DFB01216068FCF720FB002084F8DE
:10532000100100BFF1E70000104B104A143A104979
:105330001048FFF770FF18E00E4890F8110101289F
:105340000BD10C48C28900F19001FFF726FE0948F5
:10535000FFF7D4FF0748FFF7A4FF002000F062F832
:10536000054908600A2000F049F9E5E730000240ED
:1053700000380140FC2C0020E8010020C26861F3E5
:10538000C302C260704710B5044600216068FCF794
:10539000E5FA012084F8100110BD000010B50023CB
:1053A0001A464FF4E1311348FFF78CFE00211148F3
:1053B000FFF74CFF01210F48FFF7E0FF01210D48E7
:1053C000FFF76AFF01210B48FFF751FE0121094851
:1053D000FFF748FE012208490648FFF7A9FE002210
:1053E00001211B20FEF79AFB01210248FFF744FE32
:1053F00010BD00000038014004000C0001460A699D
:10540000D1E901309860D1E90103586050688842C1
:1054100001D188685060002008611068401E10604B
:10542000106870472DE9F041044614B90648006839
:1054300000E0204607463D6B2846FEF791FE0646F3
:105440003046BDE8F08100002C00002000F108018A
:1054500041604FF0FF31816000F10801C1600161DE
:1054600000210160704700210161704710B50246BC
:105470000B685C1C0CB9106907E002F1080000E041
:105480004068446824689C42FAD944684C604C687F
:10549000A160886041600A611468641C146010BDDA
:1054A00042684A6093688B609368596091600861B4
:1054B00003685B1C0360704700BFBF2080F3118846
:1054C000BFF34F8FBFF36F8F00BF0E480068401CC3
:1054D0000C49086008460068012812D10A48006893
:1054E000C0B208B9012000E0002050B900BFBF20C1
:1054F00080F31188BFF34F8FBFF36F8F00BF00BFE2
:10550000FEE770472000002004ED00E00D48006831
:1055100050B900BFBF2080F31188BFF34F8FBFF396
:105520006F8F00BF00BFFEE706480068401E0549B8
:1055300008600846006820B9002080F3118800BF89
:1055400000BF70472000002070B506463546002E8B
:105550003BD0083D2C466068C00F50B900BFBF204B
:1055600080F31188BFF34F8FBFF36F8F00BF00BF71
:10557000FEE7206808B9012000E0002050B900BF14
:10558000BF2080F31188BFF34F8FBFF36F8F00BF31
:1055900000BFFEE76068C00FB8B12068A8B96068B6
:1055A00020F00040606000F0D7F9084960680968A1
:1055B0000844064908602046FEF76AFD0448006872
:1055C000401C0349086001F0F9F870BD100000208C
:1055D0001C00002000204FF0E0210861886106488F
:1055E00000684FF47A71B0FBF1F0401E4FF0E021FB
:1055F00048610720086170470000002070B504462C
:105600000025D4B11248006808B9012000E000204C
:1056100050B900BFBF2080F31188BFF34F8FBFF395
:105620006F8F00BF00BFFEE700F096F90021204613
:10563000FEF7ECFA01F0C2F805463DB94FF0805094
:1056400004490860BFF34F8FBFF36F8F70BD000038
:105650006800002004ED00E070B50546FFF72CFF60
:1056600015B93248006800E028460446201DFFF7BF
:10567000C5FE78B9E06A00EB80002D4951F82000A2
:1056800040B994F82C10012088402A4909688143C8
:1056900028480160A06A18B104F11800FFF7AEFEB7
:1056A00025480068401C244908602048006884425E
:1056B00009D1211D2148FFF7F3FE21480068401C55
:1056C0001F49086006E01F480068401E1D49086029
:1056D000FEF72EFDFFF71AFF14480068844202D03F
:1056E0002046FEF7C8FB18480068E8B10F4800687C
:1056F000844219D11548006808B9012000E0002053
:1057000050B900BFBF2080F31188BFF34F8FBFF3A4
:105710006F8F00BF00BFFEE74FF080500C4908605C
:10572000BFF34F8FBFF36F8F70BD00002C000020C0
:105730000C2A00204400002058000020102B0020DC
:10574000380000203C0000204800002068000020B5
:1057500004ED00E0034909680160034909684160FC
:105760007047000054000020400000200120014943
:10577000086070475000002070B504460D4654B9CB
:1057800000BFBF2080F31188BFF34F8FBFF36F8F2F
:1057900000BF00BFFEE70548016818312046FFF74B
:1057A00065FE01212846FEF731FA70BD2C0000206D
:1057B0002DE9F04706460F4634464FF00109002E0A
:1057C0007AD0606C50B900BFBF2080F31188BFF35E
:1057D0004F8FBFF36F8F00BF00BFFEE7206CB84252
:1057E00001D23D4600E0256CE06AA84264D0606CBE
:1057F000012861D131480068844201D0012000E0D5
:10580000002050B900BFBF2080F31188BFF34F8F35
:10581000BFF36F8F00BF00BFFEE7D4F82C80E562B6
:10582000A06900F0004010B9C5F10A00A06108EBC2
:105830008801234A02EB81016069884201D101207D
:1058400000E00020C0B3201DFFF7D8FD40B994F858
:105850002C10012088401B490968814319480160C8
:1058600094F82C100120884016490968084315490E
:105870000860E16A01EB8101114A02EB810148688D
:10588000A0608268E260211D826851608160E16AE7
:1058900001EB81010A4A02EB81026261E16A01EBDC
:1058A0008101074A52F82110491CE26A02EB820288
:1058B000034B43F8221000BFBDE8F0872C00002006
:1058C0000C2A0020440000201CB51B4800210B4678
:1058D0004022CDE9001019A11A4800F0DFFC04466F
:1058E000012C15D100BFBF2080F31188BFF34F8F6B
:1058F000BFF36F8F00BF4FF0FF30134908600120E6
:105900001249086000201249086000F001FA10E016
:10591000601C08B1012000E0002050B900BFBF208A
:1059200080F31188BFF34F8FBFF36F8F00BF00BFAD
:10593000FEE7084800681CBD6000002049444C4553
:10594000000000000D3F00085C000020480000201F
:10595000400000206400002002480068401C01490B
:1059600008607047680000201D48006818B10120D9
:105970001C49086032E000201A4908601A48006893
:10598000B0FA80F0C0F11F0101EB8100174A52F814
:10599000200008B1012000E0002050B900BFBF2066
:1059A00080F31188BFF34F8FBFF36F8F00BF00BF2D
:1059B000FEE701EB81020D4B03EB82004268526867
:1059C000426000F108024368934202D14268526883
:1059D00042604268D268064B1A6000BF7047000000
:1059E0006800002050000020440000200C2A002005
:1059F0002C0000201CB5074903C9CDE90001694608
:105A00000548FCF728F800220F210348FCF772F83C
:105A10001CBD0000D0B300080004004810B5FFF71B
:105A2000E9FF00F04FF810BD00B101B97047002246
:105A300002604260016000BFF8E770B504460CB137
:105A4000206800B970BD002515E0201D00EB850021
:105A500041782046FEF7E1FD201D00EB85008178AE
:105A60002046FEF7DAFD201D10F825102046FEF72F
:105A7000D4FD681C85B2002DE7D02046FEF720FE3D
:105A800000BFDFE710B1036803B102B17047031D27
:105A900003F8221000BFF9E710B1036803B102B1A7
:105AA0007047031D03EB8203597000BFF8E710B184
:105AB000036803B102B17047031D03EB82039970C1
:105AC00000BFF8E71CB5064903C9CDE900016946E6
:105AD0000448FEF71CFF01210248FEF709FF1CBD28
