:020000040800F2
:10000000603300207D010008AF070008A707000843
:10001000AB0700086307000819090008000000008A
:10002000000000000000000000000000E5000008E3
:10003000A50700080000000029010008B10700081A
:100040009701000897010008970100089701000830
:100050009701000897010008970100089701000820
:1000600000000000970100086907000885070008E4
:1000700097010008970100089701000800000000A0
:1000800097010008AD080008000000009701000873
:100090005108000897010008890800089701000826
:1000A000970100089701000897010008D10800088F
:1000B000F50800080000000000000000000000003B
:1000C000970100080000000097010008DFF810D039
:1000D00000F00AFB00480047553B0008AFF30080E2
:1000E00060330020224B19680868B0E8F00F80F3F5
:1000F0000988BFF36F8F4FF0000080F311884EF036
:100100000D0E70470000000006480068006880F38C
:10011000088862B661B6BFF34F8FBFF36F8F00DF01
:1001200000BF00BF08ED00E0EFF30980BFF36F8F61
:100130000F4B1A6820E9F00F106008B54FF0BF00B0
:1001400080F31188BFF34F8FBFF36F8F05F004FE6C
:100150004FF0000080F31188BDE808401968086876
:10016000B0E8F00F80F30988BFF36F8F704700BFCE
:100170002C000020EFF30580704700000648804700
:1001800006480047FEE7FEE7FEE7FEE7FEE7FEE77C
:10019000FEE7FEE7FEE7FEE7E5070008CD00000802
:1001A0002DE9F05F0546002092469B4688460646AC
:1001B000814640241BE0284641464746224600F03F
:1001C00014FA53465A46C01A914110D311461846A4
:1001D000224600F0FBF92D1A67EB01084F46224634
:1001E0000120002100F0F2F917EB00094E41201E1A
:1001F000A4F10104DFDC484631462A464346BDE807
:10020000F09F00000649074A0868504343F239024C
:1002100010440860400870470149086070470000BA
:10022000100200206D4EC64140EA01039B0703D037
:1002300009E008C9121F08C0042AFAD203E011F825
:10024000013B00F8013B521EF9D27047D2B201E0E7
:1002500000F8012B491EFBD270470022F6E710B5CB
:1002600013460A4604461946FFF7F0FF204610BD24
:100270002DE9FE4F804681EA0300C00F0C46009036
:1002800021F0004123F00045B8EB0200A94105D25E
:100290004046214690461C460B46024623F000404D
:1002A000104347D0270DC7F30A00C3F30A51029049
:1002B000401A019040286BDAC3F3130040F4801B0E
:1002C0000098924620B10023D2EB030A63EB0B0B9C
:1002D00001985946C0F14002504600F077F90646B1
:1002E0000D4650465946019A00F08FF910EB080070
:1002F0006141002487EA115284EAE7731A4340D02F
:10030000009A62B3019A012A4FEA075215DC001BDA
:1003100061EB02014FF0004202EA0752CDE90042D0
:10032000001C41F5801132462B4600F08FF903B0D6
:10033000BDE8F08F40462146F9E7001B61EB020162
:10034000001C41F5801300185B412018A2F500172E
:1003500047EB030140EAD570B6196D4111E06D0815
:100360004FEA360645EAC0754FEA0752001B61EBBB
:100370000201001C41F5801149084FEA30000019C4
:10038000514132462B4603B0BDE8F04F00F04FB963
:100390000098012240000023D0EB020263EBE073DF
:1003A000009821464FEAE074B8EB000061EB0401CD
:1003B000E9E783F000435BE781F0004158E72DE96E
:1003C000FE4F81EA030404F0004421F00041009450
:1003D0004FF0000B23F0004350EA01045ED052EAD4
:1003E00003045BD0C3F30A54C1F30A552C44A4F2AE
:1003F000F3340194A0FB0254C1F3130141F48011C2
:10040000C3F3130343F4801301FB024400FB034EC8
:10041000840A970A44EA815447EA8357A4FB076891
:1004200002958D0A05FB07854FEA932C04FB0C54BB
:100430002705029D4FEA065847EA1637B5EB08052F
:100440006EEB070C870E920E47EA811742EA831281
:10045000A7FB0201B6EB0B0164EB00042B0D43EA92
:100460000C335E1844EB1C50DA465146E7FB0201A0
:10047000C5F313044FEA0B3343EA14534FEA043233
:10048000019C43EA0603A4F10C040294009CCDE90C
:1004900000B400F0DBF803B0BDE8F08F00200146A7
:1004A000F9E72DE9F04D81EA030404F0004B21F057
:1004B000004514464FF0000A23F0004150EA0502BF
:1004C00020D054EA01021DD0C5F30A570246C5F3F5
:1004D0001303C1F31300C1F30A5640F4801543F42B
:1004E0008013A7EB0608101BD64608F2FD3873EB05
:1004F000050002D308F1010801E092185B41B8F150
:10050000000F03DA00200146BDE8F08D00204FF413
:100510008011064684460EE0171B73EB050705D3D2
:10052000121B63EB050306434CEA010C49084FEA32
:10053000300092185B4150EA0107EDD152EA030006
:1005400012D082EA040083EA0501084305D0101B9B
:10055000AB4106D20122002306E000224FF0004307
:1005600002E06FF0010253101AEB06004CEB085149
:1005700010EB0A0041EB0B01BDE8F04D00F057B85D
:100580000EB540F2334102910021CDE900110A4637
:100590000B4600F05BF803B000BDC1F30A5210B582
:1005A000C1F3130140F2FF3341F480119A4201DAA2
:1005B000002010BD40F233439A42A2F2334203DCE2
:1005C000524200F012F810BD904010BD202A04DB0A
:1005D000203A00FA02F1002070479140C2F1200356
:1005E00020FA03F3194390407047202A04DB203A95
:1005F00021FA02F00021704721FA02F3D040C2F143
:1006000020029140084319467047202A06DBCB1789
:10061000203A41FA02F043EAE07306E041FA02F3BD
:10062000D040C2F12002914008431946704710B5EE
:10063000141E73F1000408DA401C41F10001921805
:100640005B411A4301D120F0010010BD2DE9F04DAE
:1006500092469B4611B1B1FA81F202E0B0FA80F203
:1006600020329046FFF7B2FF04460F4640EA0A00E8
:1006700041EA0B0153465A46084313D0114653EA48
:10068000010019D0C8F140025046FFF7AEFF054601
:100690000E46504659464246FFF798FF084305D09C
:1006A000012004E020463946BDE8F08D00200543D6
:1006B00046EAE0762C4337430A986305E40AA0EB48
:1006C00008000022FD0A44EA47540A3002D50020FF
:1006D0000146E9E7010510196941DDE908450019FE
:1006E0006941BDE8F04DA2E7064C074D06E0E06821
:1006F00040F0010394E8070098471034AC42F6D369
:10070000FFF7E8FCECB700080CB8000870B58C18CF
:1007100010F8015B15F0070301D110F8013B2A1115
:1007200006D110F8012B03E010F8016B01F8016B02
:100730005B1EF9D12B0705D40023521E0DD401F8FE
:10074000013BFAE710F8013BCB1A921C03E013F8C7
:10075000015B01F8015B521EF9D5A142D8D30020FC
:1007600070BD00BFFEE7000010B5202001F02AF99F
:1007700028B1034804F0FBFF202001F01DF910BD53
:10078000482E002010B54FF4005001F01BF930B195
:10079000034804F085F84FF4005001F00DF910BD46
:1007A000042D0020704700BFFEE700BFFEE7704742
:1007B00010B500BFBF2080F31188BFF34F8FBFF388
:1007C0006F8F00BF05F096FF18B14FF080500449BD
:1007D000086000BF002080F3118800BF10BD00003A
:1007E00004ED00E01748006820F00100401C1549A6
:1007F000086000BF13480068C0F340000028F9D02B
:100800001048406820F003000E49486000BF0D48C2
:100810004068C0F381000028F9D10A4800680A49FD
:100820000840084908600020486041F61070C8621E
:100830004FF4801008634FF41F008860C803034919
:100840000860704700100240FFFFF2FE08ED00E074
:1008500010B501210A4804F074FC80B1002408E0BE
:1008600004EB4401074A02EBC10001F00BFB601CE2
:10087000C4B2052CF4DB0121014804F054FC10BD86
:1008800000400140F42B002010B50121054804F080
:1008900058FC30B1044803F0CFF80121014804F0BE
:1008A00042FC10BD00480140AC2C002010B50121D5
:1008B000054804F046FC30B1044800F0F8FD012181
:1008C000014804F030FC10BD001000407C2B0020DB
:1008D00010B507490868102104F039FE30B104480A
:1008E00004F0E7FE0249086804F069FD10BD00004D
:1008F000482E002010B507498868102104F027FE13
:1009000030B1044803F050FF0249886804F057FDF5
:1009100010BD0000042D002000BFFEE70FB4084BFF
:1009200010B504A902AA039800F01CF8044602A915
:10093000002000F042FA204610BC5DF814FB0000D5
:10094000BB0D000802E008C8121F08C1002AFAD136
:1009500070477047002001E001C1121F002AFBD13F
:10096000704700002DE9FF4F8DB00F460546002669
:1009700006E025280BD0DDE90F1290476D1C761C90
:1009800028780028F5D111B03046BDE8F08F00245A
:10099000A246A1460122E94900E0044315F8013FBF
:1009A000203B02FA03F00842F7D128782A2810D019
:1009B0006FF02F022878A0F13001092914D80AEB32
:1009C0008A0102EB410144F0020400EB010A6D1CB4
:1009D000F0E701CF5FEA000A03D544F40054CAF1FE
:1009E000000A44F002046D1C28782E2817D115F84F
:1009F000010F44F004042A280ED06FF02F0228784B
:100A0000A0F1300109290AD809EB890102EB410163
:100A100000EB01096D1CF2E757F8049B6D1C287868
:100A20006C280FD006DC4C2817D068280DD06A2817
:100A300014D104E0742810D07A280FD10DE044F4CA
:100A400000140AE044F4801401E044F4401469788E
:100A5000814202D104F580146D1C6D1C28786E282B
:100A60001ED00CDC632830D004DC00288BD0582842
:100A700011D19FE0642867D069280CD164E0732805
:100A80002DD004DC6F2872D0702804D194E0752832
:100A90006ED078286DD0DDE90F129047761C4BE1BF
:100AA000C4F30250022806D0032809D0042801CF3D
:100AB00009D0066040E101CFF117C0E900613BE1D8
:100AC00001CF068038E1067036E117F8040B8DF887
:100AD000000000208DF80100EB46012003E057F8EC
:100AE00004BB4FF0FF3061074FF0000102D40DE06E
:100AF00008F10101884649450FDA8045F8DB1BF80B
:100B000008100029F4D108E008F10101884681426B
:100B1000FADB1BF808100029F6D1DDE90F23AAEB58
:100B200008008146214600F031F9304400EB080608
:100B300004E0DDE90F121BF8010B9047B8F1010842
:100B4000F7D221464846F2E00A21C4F302524FF0A0
:100B5000000B0891022A04D001CFC117032A09D043
:100B60000AE0FF1D27F00707F7E8020108E02CE084
:100B70001EE01FE000B2C117042A01D140B2C11724
:100B8000021E71F1000206DA0023D0EB030063EBD2
:100B900001012D2202E0220504D52B228DF824200C
:100BA000012203E0E20701D02022F7E7904653E05C
:100BB0000A210BE0102109E010214FF0000B44F056
:100BC00004044FF00809089103E008214FF0000BDE
:100BD0000891C4F30252022A04D001CF0021032A53
:100BE00006D006E0FF1D27F00707F7E8020103E043
:100BF00080B2042A00D1C0B24FF0000822072BD5E2
:100C00002A78702A07D0DDF820C08CF0100C5CEA3E
:100C10000B0C05D00EE040228DF82420012208E0C4
:100C200050EA010306D030238DF824308DF82520BA
:100C300002229046089B83F0080353EA0B030BD172
:100C400050EA010201D1620706D530228DF8242036
:100C50004FF00108A9F101092A78582A04D038A2D6
:100C60000B9208AA0A920BE03AA2F9E75B46089AAF
:100C7000FFF796FA0B9B9B5C0A9A521E0A9213701E
:100C800050EA0102F2D10A98ADEB000000F1200B0E
:100C9000600702D524F4803401E04FF00109D94502
:100CA00002DDA9EB0B0000E0002000EB0B0141444A
:100CB0000890AAEB010AE00306D4DDE90F232146E0
:100CC000504600F063F806444FF0000908E009A917
:100CD00011F80900DDE90F12904709F10109761CAE
:100CE000C145F4DBE0030CD5DDE90F232146504676
:100CF00000F04CF8064404E0DDE90F123020904784
:100D0000761C0899481E08900029F5DC08E00A982E
:100D10000A990078491C0A91DDE90F129047761C68
:100D2000BBF10001ABF1010BF1DC21465046DDE9DE
:100D30000F2300F019F806446D1C21E60928010074
:100D40003031323334353637383961626364656641
:100D50000000000030313233343536373839414203
:100D600043444546000000002DE9F04104460025BB
:100D70001E461746880404D405E039462020B047B3
:100D80006D1C641EF9D52846BDE8F0812DE9F041BF
:100D9000044600251E469046C80301D5302700E0D2
:100DA0002027880404D505E041463846B0476D1C2D
:100DB000641EF9D52846BDE8F0810A68531C0B6013
:100DC0001070704708B51F4800680090022000F0BE
:100DD00083FB69461C4800F039F8072301220821EB
:100DE000194800F07AF9072302221021164800F072
:100DF00074F9072303221121134800F06EF9012230
:100E00000721114800F0BDF901210F4800F01CF93D
:100E1000012000F077FA01210B4800F01AF90A4886
:100E200000F02AF800BF084800F02CF80028FAD19A
:100E3000054800F030F800BF034800F032F8002801
:100E4000FAD108BD786D0008002401400B78426893
:100E500063F3082242604B78826863F34102826048
:100E60008B78826863F3CB228260CA78521EC36A91
:100E700062F31753C3627047816821F0080108319B
:100E80008160704701468868C0F3C00008B1012046
:100E900070470020FCE7816821F00401091D816092
:100EA000704701468868C0F3800008B10120704790
:100EB0000020FCE728B1016819B1416809B18168D7
:100EC00001B9704790F8381039B900214E4A1170B5
:100ED0004E4A11704E4A117094E04B490978B9B3EB
:100EE000002132E000F10C0252F8212090F8363057
:100EF000B2FBF3F300F10C0252F82120D31A00F1F7
:100F00000C0242F8213052F82130183232F8112008
:100F1000134400F10C0242F8213052F8212090F8DD
:100F20003630B2FBF3F293B200F12A0222F811300C
:100F3000123A52F82130123232F81120134400F1E3
:100F4000180242F821304A1CD1B20329CADB35E02D
:100F5000FFE72E490978491CC9B22C4A117090F854
:100F60003620914202DB0121274A1170002123E043
:100F700000F10C0252F82130183232F811201344DB
:100F800000F10C0242F8213052F821201F4B1B784F
:100F9000B2FBF3F293B200F12A0222F81130123AB6
:100FA00052F82130123232F81120134400F11802A5
:100FB00042F821304A1CD1B20329D9DB14490978FF
:100FC000491CC9B2124A117090F83720914219DBBE
:100FD00000210F4A117000BF12E000F1180252F810
:100FE000212090F83730B2FBF3F293B200F13002D7
:100FF00022F811300023183A42F821304A1CD1B2AD
:101000000329EADB00BF5CE76C0000206D000020D4
:101010006E00002010B586B004461422084901A8CD
:10102000FFF702F90294074800F012FD01A90548F4
:1010300000F0D6FC0021034800F0B2FC06B010BD61
:10104000646D000808000240826861F30822826033
:101050007047826861F30002826070471CB50449E2
:1010600003C9CDE900016946024800F016FD1CBD28
:101070005C6D00080004004810B50446FFF7EEFF61
:101080002046FFF7C7FFFFF79DFE10BD2DE9F04793
:1010900004460D4616461F46DDE9088914B10DB118
:1010A00006B10FB9BDE8F0873C212046FFF7D5F81F
:1010B00025606660A760B8F1050F01DA052000E041
:1010C000404684F83600B9F1030F01DA032000E04E
:1010D000484684F8370000BFE4E770B504460A29A3
:1010E0000CDA206901EB41060725B540A84301EB66
:1010F000410503FA05F5284320610FE0E068A1F1FE
:101100000A0505EB45060725B540A843A1F10A05E8
:1011100005EB450503FA05F52843E0600D2A10DBD1
:10112000E06AA2F10D0505EB85061F25B540A84331
:10113000A2F10D0505EB850501FA05F52843E062EE
:101140001EE0072A0EDB206BD51F05EB85061F2549
:10115000B540A843D51F05EB850501FA05F52843E1
:1011600020630DE0606B551E05EB85061F25B5401D
:10117000A843551E05EB850501FA05F52843606374
:1011800070BD072904DD836861F35343836003E086
:10119000836861F353438360836862F3145383600D
:1011A0007047826861F396528260704710B50446BA
:1011B0002CB1206818B1606808B1A06800B910BDF2
:1011C0000021206800F0ECFB0321206800F0F1FB17
:1011D0000121206800F0E4FB01216068FFF7E1FFD6
:1011E000012084F8380000BFE9E700001CB50320A7
:1011F0000521314B314ACDE9001031493148FFF723
:1012000045FF3048FFF7D2FF54E02E48FFF752FE6B
:101210002C4890F8380000282ED02A49488EFFF735
:10122000AFF980464FF06632274BFFF7C8F8064605
:101230000022264BFFF735F90446254A254BFFF7D8
:10124000BBF88246244A254BFFF72BF90022244B9A
:10125000CDE90001FFF70CF8224A03C21949888E34
:10126000FFF78EF9044622460B4600201E49FFF781
:1012700018F91E4A03C208E000211D48194AC2E9B4
:1012800000101C48194AC2E900101B48407848B9B0
:101290001A48406830B1194900231A46486819466F
:1012A00005F036F8002004F0B5FA154908600A2068
:1012B00004F09CFBA9E70000780000200024014016
:1012C00008000240402B002066660A4000FEAF4046
:1012D0007B14AE47E17AF43F22FDF675E09C71BFC6
:1012E00000003940800000200032B3408800002018
:1012F000F069F8400000F0BFBC0100209C2C0020E9
:10130000740000200349096860F3D751014A116055
:10131000704700000824014010B504460CB1206855
:1013200000B910BD237C0BB9012300E000231A464D
:10133000A38899B2206800F0ABFB00BFF1E710B5BD
:1013400004460CB1206800B910BD237C0BB1012309
:1013500000E000231A46A38899B2206800F098FBA9
:1013600000BFF1E71CB5074903C9CDE90001694693
:10137000054800F092FB4FF40051034800F084FB55
:101380001CBD00007C6D00080008004810B5FFF788
:10139000E9FF00F043F810BD30B5039C00B930BD43
:1013A00001604260836000258581C581047400BFAF
:1013B000F5E770B504460D460CB1A06800B970BDE4
:1013C000204600F04BF80020A081E5812046FFF781
:1013D000B6FF204600F05AF800BFF0E708B501203C
:1013E0000A4B42030A4900900A48FFF7D5FF322111
:1013F0000848FFF7DEFF07E0002004F00BFA06497B
:1014000008600A2004F0F2FAF6E70000001000403D
:10141000000800487C2B00209400002010B57722A3
:1014200040F2E7310C4803F037FE01210A4803F08F
:101430008AFF0121084803F076FE01221146064882
:1014400003F074FE00220121112002F09DFB002117
:10145000014803F05EFE10BD0010004010B50446C8
:101460000CB1A06800B910BDA068006800F00100D0
:1014700038B10021A06803F04CFE0021024803F0BF
:101480004DFE00BFEFE700000010004010B504461D
:101490000CB1A06800B910BDA068006800F00100A0
:1014A00018B90121A06803F034FE00BFF3E710B5BE
:1014B00004460CB1A06800B910BDA089401C80B2E0
:1014C000A081E189884205DB2046FFF725FF204601
:1014D000FFF7C4FF00BFEFE70649496860F38F31AB
:1014E000044A516082080349496862F31C71014A49
:1014F00051607047001002400349496860F30711CA
:10150000014A5160704700000010024003494968D9
:1015100060F30A21014A5160704700000010024048
:101520000349496860F3CD21014A516070470000CA
:1015300000100240012807D10749496D21F0300110
:101540003031054A516505E00349496D21F030010C
:10155000014A51657047000000100240052827D25B
:10156000DFE800F0030A11181F00134A126861F344
:101570000002114B1A601CE00F4A126861F310421E
:101580000D4B1A6015E00C4A126861F318620A4BA1
:101590001A600EE0084A126A61F30002064B1A62F2
:1015A00007E0054A526A61F30002034B5A6200E009
:1015B00000BF00BF70470000001002402DE9F04F4F
:1015C00085B004460025AA46AB460026A946002061
:1015D000049003900290019000F0DAF900900098D6
:1015E00020B1012812D0022875D112E05648406D72
:1015F000C0F3402038B15448006BC0F3406010B1D4
:101600005248206001E05248206067E05048206066
:1016100064E04D484068C0F3004B4B48C06AC00FBF
:1016200030BB49484068C0F3834547484068C0F331
:10163000417ABAF1000F01D10F2D04D14FEA0A10FF
:10164000401C054400E0AD1CBBF1000F03D1414834
:10165000684320603DE03C484068C0F3404018B11A
:101660003C486843206034E039486843206030E0FB
:101670003548C06AC0F3031003903348C06AC0F312
:10168000082002903048C06A00F007000190BBF1CA
:10169000000F02D12F48049009E02B484068C0F3A6
:1016A000404010B12B48049001E0294804900121EA
:1016B000019801FA00F0039900FB01FC02990498DB
:1016C000A0FB01700146624600233846FEF768FD24
:1016D000206003E0FFE71E48206000BF00BF1A48FB
:1016E0004068C0F303161C4810F80690206820FAE2
:1016F00009F0606014484068C0F30226174810F8EB
:101700000690606820FA09F0E0600F484068C0F376
:10171000C226134810F80690606820FA09F0A0600D
:1017200009484068C0F3007607484068C0F381303C
:1017300040EA86060B4810F80690A068B0FBF9F066
:10174000206105B0BDE8F08F00100240006CDC02A3
:1017500000127A0000093D00346D0008446D000855
:101760004C6D0008546D000810B501460020094B6F
:1017700003EB1142126801F01F040123A3401A4039
:1017800001F01F040123A3409A4200D000E0012091
:1017900010BD00000010024010B501290DD10E4B04
:1017A00003EB1042126800F01F040123A3401A4308
:1017B000094C04EB10431A600CE0074B03EB10429A
:1017C000126800F01F040123A3409A43024C04EB6B
:1017D00010431A6010BD00000010024030B50246F0
:1017E0000020002372B9354C646824F48034334DF2
:1017F0006C6033482C46246B24F0007404F10074B0
:101800002C6319E02D4C646824F4803404F5803492
:101810002A4D6C60012A06D12A482C46646824F4BB
:1018200000346C6008E02648244C646824F40034DA
:1018300004F50034214D6C60234CA04204D9234CA4
:10184000A04201D2002326E0214CA04204D9214C21
:10185000A04201D201231EE01F4CA04204D91F4C1C
:10186000A04201D2022316E01C4CA04204D91C4C19
:10187000A04201D203230EE01A4CA04204D91A4C14
:10188000A04201D2042306E0174CA04203D9174C12
:10189000A04200D20523094C646861F39544074DCA
:1018A0006C600D09054C646865F35E74034D6C60F3
:1018B0002C46E46A63F31A64EC6230BD0010024007
:1018C00000093D0000127A0060823B00404B4C0052
:1018D00080584F00105E5F0094357700101B7F002A
:1018E00020BCBE00286BEE0030D73D01D8E9DC01FA
:1018F0001648006820F00100401C1449086000BF31
:1019000012480068C0F340000028F9D00F48406832
:1019100020F003000D49486000BF0C484068C0F348
:1019200081000028F9D109480068094908400749A1
:1019300008600020486041F61070C8624FF48010C3
:1019400008634FF41F0088607047000000100240D9
:10195000FFFFF2FE0D49496860F301010B4A516037
:1019600000BF00BF00BF00BF00BF00BF00BF00BF7F
:1019700000BF00BF00BF00BF00BF00BF00BF00BF6F
:1019800000BF00BF00BF00BF704700000010024052
:1019900002484068C0F38100704700000010024018
:1019A000026861F30002026070470146486880B235
:1019B000704741607047000001494860704700006F
:1019C00000000240014600200022044B1A6802EA8F
:1019D00001030BB1012000E000207047000002402D
:1019E00002684BF6EF731A40026002680B891A43D3
:1019F00002604B7C026863F30D320260CB7B0268AD
:101A000063F38B2202608B7B026863F3092202601E
:101A10004B7B026863F3C71202600B7B026863F3BF
:101A2000861202600B7C026863F3451202604A89E9
:101A300042600A6882604A68C26070471AB10368EF
:101A40000B43036002E003688B43036070470000B0
:101A50000021026822F0010202600022026042605E
:101A60008260C2600146CAB2083A1423B2FBF3F2A4
:101A700093000F229A40034B5B681A43014B5A6054
:101A8000704700000000024081627047816170472A
:101A90000AB1816100E08162704770B50A46002199
:101AA0001488A3B233E003F001046CB304684E0061
:101AB0000325B540AC43046094794D00AC40056803
:101AC0002C430460446801258D40AC434460446865
:101AD00015798D402C43446084684E000325B54041
:101AE000AC438460D4794D00AC4085682C4384605D
:101AF000C4684E000325B540AC43C46054794D0022
:101B0000AC40C5682C43C4605B104C1CA1B2002BD8
:101B1000C9DC70BD0246002013690B408B4200D027
:101B200000E0012070470246002053690B400BB1D2
:101B3000012000E000207047F0B5002300244D078D
:101B4000ED0E02FA05F3CD105DB1456A4E07F70EB2
:101B50000F26BE40B5434562456A45EA0304446228
:101B60000AE0056A4E07F70E0F26BE40B543056230
:101B7000056A45EA03040462F0BD00001CB5044692
:101B80003348062100234022CDE9001031A134481A
:101B900004F07CFD3348062100234022CDE90010EB
:101BA00031A1344804F072FD33480521002340225E
:101BB000CDE9001031A1344804F068FD3348062116
:101BC00000238022CDE9001031A1344804F05EFDED
:101BD0003348042100234022CDE9001031A13448CC
:101BE00004F054FD3348032100234022CDE90010C6
:101BF00031A1344804F04AFD334806210023402235
:101C0000CDE9001031A1344804F040FD33480421EF
:101C100000234022CDE9001031A1344804F036FD04
:101C20003348062100234022CDE9001031A1344879
:101C300004F02CFD3348022100234022CDE900109E
:101C400031A1344804F022FD002003F0FDFE1CBD4C
:101C5000700000206164635F7461736B00000000BA
:101C6000ED11000890000020626565705F7461737B
:101C70006B000000DD1300089C0000206B65795F9D
:101C80007461736B0000000011210008AC0100209A
:101C90006C63645F7461736B00000000A131000825
:101CA000C00100206C65645F7461736B000000000C
:101CB00025390008C401002070776D5F7461736B73
:101CC0000000000041450008CC0100207273343848
:101CD000355F7461736B0000F5470008D401002084
:101CE000736572766F5F7461736B0000C54B00089B
:101CF000EC01002075736172745F7461736B000096
:101D000011570008F40100207773323831325F74C4
:101D100061736B00D95E000810B5044604B910BDAC
:101D2000204603F063FE00BFF9E7000004210248EB
:101D300080F8241070470000F42B00200021024896
:101D400080F8241070470000F42B00200021024886
:101D500080F8241070470000F42B002070B5044672
:101D60002CB1206818B1606808B1A06800B970BDD6
:101D7000207B1E490870002526E0A068006810F846
:101D800035001A49097888421CD1A068006800EB28
:101D9000C5004078A1688979884213D1A06800689D
:101DA00000EBC5008078A1688871A068006800EB2E
:101DB000C500406828B1A168096801EBC501486801
:101DC000804705E0681C85B2A0688088A842D4DC02
:101DD00000BF207B05490978884205D10348007877
:101DE000042801D00020207300BFC0E79800002025
:101DF00008B101B102B9704700230360436001607C
:101E00008280837100BFF6E71CB5114903C9CDE993
:101E1000000169460F48FFF740FE802000906946A8
:101E20000C48FFF73AFE0420009069460A48FFF785
:101E300034FE4FF40060009069460748FFF72DFE1E
:101E40004FF48060009069460348FFF726FE1CBDF2
:101E5000846D0008001400480004004810B500B16B
:101E600001B910BD002404604460846001604260D8
:101E7000037200BFF5E710B5FFF7C6FF00F0DEF90B
:101E800010BD000010B504462CB1206818B1606880
:101E900008B1A06800B910BDA07C78B1E089401CF1
:101EA00080B2E081218A884208DB0020A074E081B2
:101EB00003202073C8210248FFF77BFA00BFEAE73E
:101EC0007C2B00200948407801280AD10848007876
:101ED000002805DD06480078401E0549087000E02E
:101EE00000BF0421034880F83C107047BC0100206B
:101EF000E8010020F42B00200021024880F83C106B
:101F000070470000F42B00200948407801280AD1CE
:101F100008480078002805DD06480078401E05497D
:101F2000087000E000BF0021034880F83C107047B3
:101F3000BC010020E8010020F42B002005480078B7
:101F400018B901200349087002E000200149087017
:101F500070470000BC0100200021024880F86C108E
:101F600070470000F42B00200948007858B9084851
:101F70004078401CC0B2064948708978884202DB2C
:101F80000020034948700021024880F86C10704717
:101F9000BC010020F42B00202DE9F04104460D4641
:101FA00017461E46DDF8188024B11DB116B1B8F1F0
:101FB000000F01D1BDE8F08118212046FEF74DF950
:101FC00025606760A66000202073A4F8108000BF21
:101FD000F0E700000948407801280AD10848007855
:101FE000B42805DA06480078401C0549087000E06E
:101FF00000BF0421034880F854107047BC01002042
:10200000E8010020F42B00200021024880F8541041
:1020100070470000F42B00200948407801280AD1BD
:1020200008480078B42805DA06480078401C0549BD
:10203000087000E000BF0021034880F8541070478A
:10204000BC010020E8010020F42B002010B504465C
:102050002CB1206818B1606808B1A06800B910BD43
:10206000E07C20BB2268928891B222681068FFF75A
:1020700051FD2168097A884219D10F20FFF74CFEE3
:102080002268928891B222681068FFF743FD2168A8
:10209000097A884226D10120E0740020E0810120E5
:1020A000A074204600F0EEF8022020731AE0E07CD5
:1020B000C0B12268928891B222681068FFF72AFDA9
:1020C0002168097A88420DD00020E074A074E08174
:1020D00001202073A0688079022803D132210A48A8
:1020E000FFF767F9207DE17C88420BD00748406804
:1020F00030B1064900231A464868194604F008F929
:10210000E07C207500BFAAE77C2B00209C2C0020DF
:1021100008B50023402240494048FFF79FFE0023B6
:1021200080223D493D480C30FFF798FE00230422F1
:102130003B493A481830FFF791FE00234FF4006204
:10214000374936482430FFF789FE00234FF4806278
:10215000334932483030FFF781FE00241DE0314A18
:1021600052F82410304A02EBC4000622FFF740FE6A
:1021700040F2DC502C4A02EBC40304EB4402274D2E
:1021800005EB820104EB4402284D009005EBC200F0
:10219000274AFFF701FF601CC4B2052CDFDB3AE0E1
:1021A00000240FE004EB4401204A02EBC100FFF7DA
:1021B0004DFF04EB44011D4A02EBC100FFF7CEFDC9
:1021C000601CC4B2052CEDDB00201A4908700EE03B
:1021D0001848007800EB4000144901EBC000C07CB7
:1021E00000B108E013480078401C124908701148FB
:1021F00000780528ECDB00BF0E480078052802D1E6
:102200000A4800F050F8002003F004FB0A49086077
:102210000A2003F0EBFBC3E700140048902B0020DA
:102220000004004898010020CC2B0020F42B002053
:1022300000400140A4000020A000002010B577223B
:1022400040F2E7310E4802F027FF00210C4802F06F
:1022500056FF01210A4803F076F80121084802F0F0
:1022600062FF01221146064802F060FF00220121B0
:10227000142001F089FC0021014802F04AFF10BD42
:102280000040014010B504460CB1606800B910BDB3
:102290006068006800F0010018B90121606802F070
:1022A00038FF00BFF3E710B504460CB1606800B911
:1022B00010BD6068006800F0010038B1002160685E
:1022C00002F027FF0021606802F028FF00BFEFE75F
:1022D0000420014908737047F42B002000200149B5
:1022E00008737047F42B00200020014908737047E1
:1022F000F42B002010B504460CB1206800B910BDC5
:102300002268928D91B222685069FFF7BDFB00BF31
:10231000F5E710B504460CB1206800B910BD22687D
:10232000928D91B222685069FFF7B0FB00BFF5E7CC
:102330007CB504460D460CB1206800B97CBD6089AF
:10234000401E80B2CDE900052089401E83B20022E4
:102350001146204600F047F800BFEFE710B50446ED
:102360000CB1206800B910BD2268128C91B22268AD
:102370009068FFF78BFB00BFF5E710B504460CB182
:10238000206800B910BD2268128C91B22268906852
:10239000FFF77AFB00BFF5E710B504460CB12068E3
:1023A00000B910BD2268928C91B22268D068FFF704
:1023B0006BFB00BFF5E710B504460CB1206800B90F
:1023C00010BD2268928C91B22268D068FFF75EFB44
:1023D00000BFF5E710B5044604B910BD204603F070
:1023E00005FB00BFF9E72DE9F84F04460F4690467C
:1023F0001D46DDE90A6B5CB1206848B1AF4207DCDD
:10240000B04505DC2089A84202DD6089B04201DCCC
:10241000BDE8F88F2B46424639462046009600F02C
:10242000B1FC2046FFF7A9FF2046FFF7C4FFB946DD
:102430000FE0C24607E05946204602F0FAFA0AF1D8
:1024400001001FFA80FAB245F5DD09F101001FFA1B
:1024500080F9A945EDDD2046FFF780FF00BFD7E7F3
:102460001CB5214903C9CDE9000169461F48FFF7A2
:1024700014FB20211D48FFF709FB08200090694646
:102480001A48FFF70AFB08211848FFF7FFFA4FF434
:102490000040009069464FF09040FFF7FEFA4FF47D
:1024A00000414FF09040FFF7F1FA1020009069468C
:1024B0000E48FFF7F2FA10210C48FFF7E7FA402028
:1024C000009069460948FFF7E8FA40210748FFF7FE
:1024D000DDFA8020009069460448FFF7DEFA80218B
:1024E0000248FFF7D1FA1CBDAC990008000400486F
:1024F0002DE9F04F09AC94E8F010DDE910ABDDE90F
:102500000E8908B9BDE8F08F016042608360C46045
:10251000056146618761C0F81CC0C0F82080C0F822
:102520002490C0F828A0C0F82CB000BFEAE710B58E
:10253000FFF796FF10BD10B504460CB1206800B936
:1025400010BD2268128B91B222681068FFF79EFAC4
:1025500000BFF5E710B504460CB1206800B910BD06
:102560002268128B91B222681068FFF78DFA00BFC3
:10257000F5E72DE9F04104460D4616461F46DDF805
:10258000188004B10DB9BDE8F08125600322002157
:10259000012003F01BFE60602681678184F80C80B7
:1025A00000BFF0E710B504460CB1206800B910BDBB
:1025B0002046FFF79FFEFE21204602F024FAEF217D
:1025C000204602F020FA8021204602F01CFAFF216A
:1025D000204602F03FFA8121204602F014FAFF2142
:1025E000204602F037FA8221204602F00CFAFF2141
:1025F000204602F02FFA8321204602F004FAFF2140
:10260000204602F027FA8421204602F0FCF9FF213F
:10261000204602F01FFA8521204602F0F4F9FF213E
:10262000204602F017FA8621204602F0ECF9FF213D
:10263000204602F00FFA8721204602F0E4F9FF213C
:10264000204602F007FA8821204602F0DCF9FF213B
:10265000204602F0FFF98921204602F0D4F9FF213B
:10266000204602F0F7F98A21204602F0CCF9FF213A
:10267000204602F0EFF98B21204602F0C4F9FF2139
:10268000204602F0E7F98C21204602F0BCF9FF2138
:10269000204602F0DFF98D21204602F0B4F9FF2137
:1026A000204602F0D7F98E21204602F0ACF9FF2136
:1026B000204602F0CFF98F21204602F0A4F9FF2135
:1026C000204602F0C7F93A21204602F09CF9052184
:1026D000204602F0BFF9EC21204602F094F91121C6
:1026E000204602F0B7F97E21204602F08CF97A21CB
:1026F000204602F0AFF97421204602F084F902214D
:10270000204602F0A7F90E21204602F0A3F900218D
:10271000204602F09FF90021204602F09BF9282173
:10272000204602F097F90021204602F093F900219B
:10273000204602F08FF99821204602F064F93E21EC
:10274000204602F087F99921204602F05CF93E21EB
:10275000204602F07FF9B521204602F054F90E21FF
:10276000204602F077F90E21204602F073F960212D
:10277000204602F048F93821204602F06BF9092181
:10278000204602F067F96D21204602F063F96721C7
:10279000204602F05FF96321204602F034F9382127
:1027A000204602F057F9AD21204602F053F96D2181
:1027B000204602F04FF96721204602F04BF905212F
:1027C000204602F047F96421204602F01CF9382126
:1027D000204602F03FF90B21204602F03BF9702120
:1027E000204602F037F9AB21204602F033F96D2183
:1027F000204602F02FF96721204602F02BF96621CE
:10280000204602F000F93821204602F023F90F217A
:10281000204602F01FF97021204602F01BF9AF217B
:10282000204602F017F96D21204602F013F96721C6
:10283000204602F00FF96A21204602F0E4F8002158
:10284000204602F007F90021204602F003F9682132
:10285000204602F0D8F83B21204602F0FBF8082180
:10286000204602F0F7F80421204602F0F3F8002198
:10287000204602F0EFF80421204602F0EBF8642134
:10288000204602F0E7F86721204602F0E3F86C21C9
:10289000204602F0B8F82221204602F0DBF802219F
:1028A000204602F0D7F82221204602F0D3F8022178
:1028B000204602F0CFF82221204602F0CBF8222158
:1028C000204602F0C7F85021204602F0C3F86E21DE
:1028D000204602F098F80021204602F0BBF80021C3
:1028E000204602F0B7F80021204602F0B3F800219C
:1028F000204602F0AFF80721204602F0ABF8012194
:10290000204602F0A7F81321204602F0A3F8112177
:10291000204602F09FF80B21204602F09BF8092187
:10292000204602F097F81621204602F093F8152170
:10293000204602F08FF81D21204602F08BF81E2160
:10294000204602F087F80021204602F083F800219B
:10295000204602F07FF80021204602F07BF800219B
:10296000204602F077F81E21204602F073F81D2160
:10297000204602F06FF81521204602F06BF8162170
:10298000204602F067F80A21204602F063F80C2185
:10299000204602F05FF81221204602F05BF8142175
:1029A000204602F057F80221204602F053F8082191
:1029B000204602F04FF80021204602F04BF800219B
:1029C000204602F047F80021204602F043F800219B
:1029D000204602F03FF8A921204602F014F81B21FE
:1029E000204602F037F8A821204602F00CF86B21AF
:1029F000204602F02FF8A821204602F004F86D21AD
:102A0000204602F027F8A721204601F0FCFF4021D4
:102A1000204602F01FF8AD21204601F0F4FF4721C7
:102A2000204602F017F8AF21204601F0ECFF732199
:102A3000204602F00FF8AF21204601F0E4FF732199
:102A4000204602F007F8AC21204601F0DCFF4421CB
:102A5000204601F0FFFFA321204601F0D4FF6C21A6
:102A6000204601F0F7FFCB21204601F0CCFF0021EA
:102A7000204601F0EFFFCD21204601F0C4FF2221C6
:102A8000204601F0E7FFC221204601F0BCFF1021E3
:102A9000204601F0DFFFC521204601F0B4FF0021F0
:102AA000204601F0D7FFC621204601F0ACFF0E21E1
:102AB000204601F0CFFFC721204601F0A4FF1F21CF
:102AC000204601F0C7FFC821204601F09CFF0E21DF
:102AD000204601F0BFFFBF21204601F094FF0021F6
:102AE000204601F0B7FFF921204601F08CFF20219C
:102AF000204601F0AFFF9B21204601F084FF3B21DF
:102B0000204601F0A7FF9321204601F07CFF3321EE
:102B1000204601F09FFF7F21204601F09BFF00210E
:102B2000204601F097FF7021204601F06CFF0E2136
:102B3000204601F08FFF0F21204601F08BFF03217B
:102B4000204601F087FF0E21204601F083FF0F2170
:102B5000204601F07FFF0321204601F07BFF712119
:102B6000204601F050FF0E21204601F073FF162190
:102B7000204601F06FFF0321204601F06BFF9121F9
:102B8000204601F040FF0E21204601F063FF09219D
:102B9000204601F05FFFC321204601F034FF2C21C5
:102BA000204601F057FFC421204601F02CFF1A21D6
:102BB000204601F04FFFF021204601F024FF512173
:102BC000204601F047FF1321204601F043FF0C216E
:102BD000204601F03FFF0621204601F03BFF002187
:102BE000204601F037FF2F21204601F033FFF2216C
:102BF000204601F008FF5121204601F02BFF132150
:102C0000204601F027FF0C21204601F023FF06217A
:102C1000204601F01FFF0021204601F01BFF332159
:102C2000204601F017FFF121204601F0ECFE3C2187
:102C3000204601F00FFF9421204601F00BFF4F21A9
:102C4000204601F007FF3321204601F003FF342125
:102C5000204601F0FFFECF21204601F0FBFEF321CC
:102C6000204601F0D0FE4D21204601F0F3FE9421D4
:102C7000204601F0EFFE4F21204601F0EBFE33210C
:102C8000204601F0E7FE3421204601F0E3FECF218B
:102C9000204601F0DFFE3621204601F0B4FE207B05
:102CA00008B9002000E0C0200146204601F0D2FE15
:102CB0001121204601F0A7FEC820FFF78BFB292138
:102CC000204601F0A0FE2C21204601F09CFE20466B
:102CD000FFF71FFB00BF6AE410B504460CB1206883
:102CE00000B910BD2268128D91B222681069FEF7FA
:102CF000CDFE00BFF5E710B504460CB1206800B961
:102D000010BD2268128D91B222681069FEF7BCFED8
:102D100000BFF5E710B504460CB1206800B910BD3E
:102D20002046FFF7D9FF0A20FFF754FB2046FFF7A4
:102D3000E2FF0A20FFF74EFB2046FFF7CDFF64209D
:102D4000FFF748FB00BFEAE710B504460CB1206866
:102D500000B910BD2268928B91B222685068FEF7CC
:102D600095FE00BFF5E710B504460CB1206800B928
:102D700010BD2268928B91B222685068FEF784FEE3
:102D800000BFF5E72DE9F04104460E4617461D4603
:102D9000DDF818805CB1206848B1AE4207DC4745D9
:102DA00005DC2089A84202DD6089404501DCBDE8E0
:102DB000F0812A21204601F026FE390A204601F042
:102DC00049FEF9B2204601F045FE4FEA182120469F
:102DD00001F040FE08F0FF01204601F03BFE2B21F0
:102DE000204601F010FE2089401B401EC0F3072141
:102DF000204601F02FFE207A401B401EC1B2204623
:102E000001F028FE2089801B401EC0F307212046C8
:102E100001F020FE207A801B401EC1B2204601F046
:102E200019FE2C21204601F0EEFD00BFBFE72DE981
:102E3000FF4F83B0044699460025002700200290EA
:102E4000DDF81080059E64B1206850B1119840B142
:102E5000B9F17F0F05DC2089404502DD6089B04271
:102E600002DC07B0BDE8F08F109830B1012807D020
:102E7000022808D003280CD108E0082510270BE011
:102E80001025182708E01025202705E01825202701
:102E900002E00825102700BF00BF08EB05002189CC
:102EA000884203DD4FF00008F01986B2F0196189FD
:102EB000884200DD0026F019401E80B2009008EB29
:102EC0000500401E83B2324641462046FFF75AFFB6
:102ED0002046FFF752FA2046FFF76DFA2846E91719
:102EE00005EB5171C910794389B202914FF0000A84
:102EF0001EE04FF0000B14E0029809FB00A21198AD
:102F0000805C40FA0BF000F0010008B1129800E07C
:102F100013980146204601F08CFD0BF1010000F0F2
:102F2000FF0BBBF1080FE7DB0AF101001FFA80FA83
:102F300002988245DDDB2046FFF710FA00BF90E7DC
:102F40002DE9FF4F8BB004468846DDE9199A4FF012
:102F5000000B00200A9045460D9E142105A8FDF7A0
:102F60007CF905AF54B1206840B1BAF1000F05D02B
:102F70002089A84202DD6089B04202DC0FB0BDE8C2
:102F8000F08FB9F1000F09D0B9F1010F0BD0B9F1F1
:102F9000020F0DD0B9F1030F14D10EE04FF0080B62
:102FA00010200A9013E04FF0100B18200A900EE04A
:102FB0004FF0100B20200A9009E04FF0180B202052
:102FC0000A9004E04FF0080B10200A9000BF00BFE9
:102FD00005A80E9A1899FDF7A1FC23E005EB0B005C
:102FE000A02803DD00250A98304486B20A983044B0
:102FF000282800DD0026DDE91B10CDE9009ACDE987
:1030000002103878202801D1002001E038782F38CC
:10301000C3B2324629462046FFF709FF05EB0B00F5
:1030200085B27F1C38780028D8D100BFA6E72DE9EB
:10303000F84F04460E4617469846DDE90B9BDDF82F
:1030400028A0A4B1206890B1B9F1000F0FD0208959
:10305000B0420CDD6089B84209DD06EB0800218929
:10306000884204DC07EB0A006189884201DDBDE883
:10307000F88F07EB0A00401E80B2009006EB0800B4
:10308000401E83B23A4631462046FFF77BFE20467B
:10309000FFF773F92046FFF78EF900250DE00120B8
:1030A00000EB450019F8000019F8152040EA02214C
:1030B000204601F0BEFC681C85B20BEBDB71B5EB62
:1030C000610FECDB2046FFF749F900BFCFE72DE9A0
:1030D000F04F87B00446884691461D46DDE910ABA7
:1030E00000200690059046464F465CB1206848B1E6
:1030F000BBF1000F06D02DB12089B04202DD6089FE
:10310000B84202DC07B0BDE8F08FBAF1000F09D079
:10311000BAF1010F0BD0BAF1020F0DD0BAF1030FC3
:1031200014D10EE0082006901020059013E0102026
:103130000690182005900EE01020069020200590A3
:1031400009E0182006902020059004E00820069051
:103150001020059000BF00BF1CE006983044A02856
:1031600003DD00260598384487B20598384428289E
:1031700000DD0027DDE91210CDE900ABCDE902103A
:1031800015F8013B3A4631462046FFF750FE0698B7
:10319000304486B228780028DFD100BFB2E70000B3
:1031A0008AB08020402110220302CDE90532CDE90A
:1031B000071008202021FE4A0192CDE902214FF09C
:1031C0009043114600920490FA48FFF791F90020CD
:1031D0002823A022F7490090F748FFF7CAF9F648DC
:1031E000FFF798FDF448FFF7DDF94FF6FF71F2485D
:1031F000FFF79EF841F6B050F04928225F23CDE951
:103200000021029000222121EB48FFF710FF4FF42C
:10321000FA6002F0EBFB0021E748FFF789F87FE254
:10322000E548406800287DD0E34840684FF0FF3112
:10323000099003F02DF9012874D1E1484078E14963
:10324000097888420AD00021DB48FFF771F8DC4892
:103250004078DC4908703220DB490870D848007893
:10326000DA49097888420DD00021D348FFF760F889
:10327000D3480078D54908703220D349087000201F
:10328000D3490870CE48007800287DD1CC484078DA
:1032900010B1012879D17AE1CB480078401CC0B246
:1032A000C9490870322871DB00200870C9480068DD
:1032B000C8490968491CC74A11600990FCF7ACFF6E
:1032C000C348007820B1012878D0022875D1E3E006
:1032D000FCF798FFC117079000EBD16041110798E8
:1032E000A0EB4110C006040CFCF78CFFC11708903E
:1032F00000EB916081110898A0EB811000F03F0075
:1033000044EA4014FCF77EFFC117099000EBD1603E
:1033100041110998A0EB411000F01F00204300214B
:10332000AD4A00E0F4E10690CDE90012ABA30A46F5
:10333000CDE90201A048FFF7CAFEFCF763FFC11701
:10334000079000EBD16041110798A0EB4110C00637
:10335000040CFCF757FFC117089000EB9160811136
:103360000898A0EB811000F03F0044EA4014FCF7FD
:1033700049FFC117099000EBD16041110998A0EBFA
:10338000411000F01F0002E054E151E1FEE0204353
:103390000021944A03230690CDE90132CDE90301CF
:1033A00091A000909148008E034604224021059090
:1033B0008148FFF7C5FDDEE000E0DBE0FCF722FF1F
:1033C000C117079000EBD16041110798A0EB4110A5
:1033D000C006040CFCF716FFC117089000EB9160C3
:1033E00081110898A0EB811000F03F0044EA4014DE
:1033F000FCF708FFC117099000EBD1604111099853
:10340000A0EB411000F01F0020430021724A0690FB
:10341000CDE9001276A30A46CDE902016648FFF71E
:1034200056FEFCF7EFFEC117079000EBD16041118B
:103430000798A0EB4110C006040CFCF7E3FEC1178F
:10344000089000EB916081110898A0EB811000F0CA
:103450003F0044EA4014FCF7D5FEC117099000EB89
:10346000D16041110998A0EB411000F01F002043EA
:1034700000215C4A03230690CDE90132CDE9030126
:1034800059A000905948408E0346042240210590DF
:103490004948FFF755FD6EE0FCF7B4FEC1170790F1
:1034A00000EBD16041110798A0EB4110C006040C5D
:1034B000FCF7A8FEC117089000EB916081110898F5
:1034C000A0EB811000F03F0044EA4014FCF79AFEA4
:1034D000C117099000EBD16041110998A0EB411090
:1034E00000F01F00204300213B4A0690CDE9001266
:1034F00041A30A46CDE902012F48FFF7E8FDFCF79A
:1035000081FEC117079000EBD16041110798A0EB35
:103510004110C006040CFCF775FEC117089000EBC3
:10352000916081110898A0EB811000F03F0044EAFF
:103530004014FCF767FEC117099000EBD160411100
:103540000998A0EB411000F01F0020430021254AFC
:1035500003230690CDE90132CDE9030122A00090BA
:103560002248808E03460422402105901248FFF72E
:10357000E7FC00E000BF00BF15480078401CC0B267
:1035800013490870032801DB0020087051E0002077
:103590004FF61F01104ACDE9000219A30246CDE9FA
:1035A000021001460448FFF792FD00202CE00000C5
:1035B000000400486C2C00209C2C0020B4990008CA
:1035C000BC010020BA010020B8010020BB0100208E
:1035D000B9010020B40100208C6D000861646320F3
:1035E000000000008C95000825347500402B002059
:1035F00074656D7000000000767265660000000062
:10360000736572766F00000040F2FF71454A032334
:10361000CDE90132CDE9031043A000904348807901
:1036200003460422582109904148FFF789FC00E035
:1036300000BF00E000BF00204FF620513D4ACDE919
:103640000002CDE902103C48C07C08B1552000E0E2
:10365000202003461822002109903548FFF7E7FB98
:1036600000204FF62051334ACDE90002CDE9021087
:10367000314890F82B0008B1442000E02020034698
:103680001822082109902A48FFF7D1FB00204FF6A5
:103690002051284ACDE90002CDE90210264890F8D1
:1036A000430008B14C2000E02020034618221021DE
:1036B00009901F48FFF7BBFB00204FF620511D4A21
:1036C000CDE90002CDE902101B4890F8730008B163
:1036D0004D2000E02020034618221146099014488E
:1036E000FFF7A5FB00204FF62051124ACDE900025A
:1036F000CDE90210104890F85B0008B1522000E0BC
:10370000202003461822202109900948FFF78FFB4B
:10371000002002F07FF8094908600A2002F066F9EB
:103720007EE500008C95000825337500E00100203F
:103730009C2C00208C6D0008F42B0020B001002090
:103740007CB505460C4605B97CBD054903C9CDE9E4
:103750000001009469462846FEF79FF900BFF3E791
:103760007CB700082DE9FC4107460C4615461E466D
:103770000FB9BDE8FC81084903C9CDE900010094F7
:1037800069463846FEF789F9324629463846FEF73B
:10379000D3F900BFEDE7000074B700081CB50F496E
:1037A00003C9CDE9000169464FF09040FEF775F975
:1037B000052207214FF09040FEF7BEF901208DF859
:1037C0000600009069464FF09040FEF766F901212F
:1037D0004FF09040FEF758F91CBD000064B7000898
:1037E00010B5FFF7DBFF00F0E9F810BD2DE9F05F41
:1037F00004460D4616461F46DDE90CABDDE90A9886
:1038000004B10DB9BDE8F09F24212046FCF725FD49
:1038100025606660277284F80990C4F80C80A4F8CB
:1038200014A0A4F810B00E9860820F982083012095
:10383000A0761198E07612982077B8F1000F01D0A9
:10384000002000E00220A07700206077109884F824
:10385000200000BFD6E710B5044624B1206810B19F
:10386000A07F022800D010BD94F820300BB90123AE
:1038700000E000231A46A38899B22068FEF708F9F1
:1038800000BFF0E728B102681AB1C2680AB1642922
:1038900000DA7047018300BFFBE748B102683AB124
:1038A000C2682AB1C27E8A4202DC027F8A4200DA02
:1038B0007047817600BFFBE770B504460D461CB12A
:1038C000206808B1E06800B970BD25B1012D10D0A5
:1038D000022D22D119E0637A227AD4E90001FFF7A0
:1038E00041FF218AE06801F036FD204600F0F2F841
:1038F00014E0D4E90001FFF723FF618AE06801F0DA
:103900002AFD204600F0E6F808E0D4E90001FFF7C0
:1039100017FF204600F0EFF800E000BF00BFA577DA
:1039200000BFD1E78AB01420012100224FF4FA73BE
:10393000CDE90532CDE9071040F2E73041F2873199
:103940001B4BCDE90131CDE903100520072380226F
:103950004FF0904100901748FFF748FF1421154899
:10396000FFF79BFF4FF496711248FFF78BFF002182
:103970001048FFF7A1FF00200590069007900890DF
:103980000190029003900490034601224FF0904171
:1039900000900948FFF72AFF02210748FFF78CFF34
:1039A0000548FFF758FF02E00A2002F01FF8FBE786
:1039B00000480140AC2C0020D02C00201CB51C4934
:1039C00003C9CDE90001772241F28731194801F09E
:1039D00063FB0021174801F092FB0121154801F01B
:1039E000B2FC6A460021134801F0D8FB41F287324D
:1039F0000021104801F06FFB012200210D4801F069
:103A0000ACFB01210B4801F08EFB01221146094855
:103A100001F08CFB00220121162000F0B5F80121F5
:103A2000044801F08BFC0121024801F072FB1CBD2F
:103A30006CB700080048014010B50446A07F98BB51
:103A40000020E082607FB8B9A08AA17E084441F2DC
:103A50008731884204DCA08AA17E0844A0821DE050
:103A6000A08A41F28731884203DAA08A401CA082F2
:103A700014E00120607711E0A08AA17E884204DB77
:103A8000A08AA17E401AA08208E0A08A002803DD57
:103A9000A08A401EA08201E000206077A28A002157
:103AA0000B4801F018FB12E0FFE7A07F01280ED1C0
:103AB0000020A0826077E08A401C80B2E082218BE7
:103AC000884204DB0020E082204600F029F810BD87
:103AD0000048014010B504460CB1E06800B910BDC3
:103AE000E068006800F0010018B90121E06801F009
:103AF00010FB00BFF3E710B504460CB1E06800B955
:103B000010BDE068006800F0010038B10021E068F5
:103B100001F0FFFA0021E06801F000FB00BFEFE7D1
:103B200070B504461CB1206808B1A07F00B970BD13
:103B3000A28891B22068FDF7F6FF08B9012000E0E5
:103B400000200546A28891B22A462068FDF7A0FF12
:103B500000BFECE71CB501F02DFA0020012103465F
:103B60004022CDE9001004A1064802F08FFD02F0CA
:103B7000A3F800201CBD0000696E69745F74617356
:103B80006B0000007D1B00082DE9F0470B46144632
:103B90004FF0000C00BF2C4A1268C2F302211D46F0
:103BA00026460A46C2F10709B9F1040F02D94FF0BF
:103BB000040901E0C2F10709C84602F10409B9F19C
:103BC000070F02D24FF0000901E0A2F103094F46AE
:103BD0004FF0010909FA08F9A9F1010909EA0509F3
:103BE00009FA07F94FF0010A0AFA07FAAAF1010ADD
:103BF0000AEA060A49EA0A09CC4601466246002951
:103C000004DB15072E0E114D6E5407E015072F0E1D
:103C10000D4D0C3501F00F06361FAF5500BF0146A4
:103C200000290DDB00BF00BF01F01F050122AA40E3
:103C30004D09AD0005F1E025C5F8002100BF00BF2A
:103C400000BFBDE8F08700000CED00E000E400E0FC
:103C500000BF00F00702064B19684FF6FF0319403A
:103C6000044B0B4343EA0221014B196000BF70472C
:103C70000CED00E00000FA052DE9F04105460E4686
:103C80002648076826480068001D01F0AFFD50B9BE
:103C90002348006890F82C100120884021490968C9
:103CA000814320480160681CD8B9D6B11E494868D4
:103CB0001B49096888601A4982680968CA601849FE
:103CC0000968091D8268516015490968091D8160EC
:103CD000154A134909684A6111460968491C11606F
:103CE0001AE07C190E4800684460BC4207D20C48B8
:103CF0000168091D0D48006801F0B0FD0CE008489E
:103D00000168091D0A48006801F0A8FD094800681B
:103D1000844201D207480460BDE8F08140000020E1
:103D20002C000020440000202C2B00203400002018
:103D3000300000205C00002010B5044601F0B4FD06
:103D40002F480068401C2E4908602E48006840B982
:103D50002C4804600846006801280DD100F09AF94B
:103D60000AE02948006838B926480068C06AE16A54
:103D7000884201D82348046024480068401C234935
:103D8000086094F82C1001208840214909680843F4
:103D90001F490860E16A01EB81011E4A02EB8101C3
:103DA0004868A0608268E260211D8268516081607D
:103DB000E16A01EB8101174A02EB81026261E16A6B
:103DC00001EB8101134A52F82110491CE26A02EB0F
:103DD0008202104B43F8221001F090FD0A4800685F
:103DE00068B108480068C06AE16A884207D24FF0AB
:103DF000805009490860BFF34F8FBFF36F8F10BD2C
:103E00003C0000202C00002048000020580000202A
:103E100044000020142A002004ED00E010B516E054
:103E200001F042FD0C48C068C468201D01F0DEFCB2
:103E30000A480068401E0949086009480068401E99
:103E40000749086001F05AFD204600F04AF804488E
:103E500000680028E4D110BD182B00203C00002091
:103E6000380000202DE9F04104460F4615464FF07A
:103E70000008A66B206C48B9206800282CD1A068E7
:103E800002F016FD80460020A06025E07DB939468D
:103E9000226C6068FCF7C8F9216C606808446060B7
:103EA000D4E90101884217D32068606014E03946E4
:103EB000226CE068FCF7B8F9216CE068411AE16017
:103EC0002168E068884203D2216CA068411AE16051
:103ED000022D01D106B1761E701CA0634046BDE8DC
:103EE000F08110B50446206B01F026FD204601F05C
:103EF00023FD10BD01464A6A22B10A6B1268C2F165
:103F00000A0000E00020704730B54FF420531548F8
:103F100000F007042CB1C01D20F00700114C041B59
:103F20001B1B0246104C226000240F4D6C60D01801
:103F3000083820F007000D4C206000240B4D2D6840
:103F40006C600A4D2D682C601146441A4C60074C79
:103F500024680C60064D4C682C60064D4C682C6043
:103F600030BD000014020020040000200C000020DE
:103F7000140000201000002000BFFFF74FFF06488C
:103F800000680128F9D94FF0805004490860BFF358
:103F90004F8FBFF36F8FF0E7142A002004ED00E08D
:103FA0002DE9F04106460D4617469846069C0DB988
:103FB000246000E02760E66325640121204602F0CA
:103FC00039F9BDE8F0812DE9F05F82460F46904651
:103FD0009B460A9E0C9C4FEA8801A522206BFCF7A9
:103FE00035F9A8F10100216B01EB800929F00709DF
:103FF00009F0070008B9012000E0002050B900BF17
:10400000BF2080F31188BFF34F8FBFF36F8F00BFC6
:1040100000BFFEE77FB1002507E0795D04F13400C1
:104020004155785D00B902E06D1C0C2DF5D300BF41
:1040300000213F2001550A2E01D2012000E000207E
:1040400050B900BFBF2080F31188BFF34F8FBFF37B
:104050006F8F00BF00BFFEE70A2E00D30926E6627D
:104060002664201D01F0F7FB04F1180001F0F3FBBA
:104070002461C6F10A00A06164625A46514648466E
:1040800000F0AAFA20600B9808B10B980460BDE814
:10409000F09F000010B5002407E004EB84010F4AF4
:1040A00002EB810001F0CAFB641C0A2CF5D30C481A
:1040B00001F0C4FB0B4801F0C1FB0B4801F0BEFB53
:1040C0000A4801F0BBFB0A4801F0B8FB0448094963
:1040D000086004480849086010BD0000142A002048
:1040E000DC2A0020F02A0020042B0020182B0020BE
:1040F0002C2B0020300000203400002010B5014699
:10410000164800E0006803688B42FBD30246436810
:1041100013448B4204D143684C68234443600146F6
:104120000A464B6813440468A34211D10C4C03683F
:104130002468A34208D04B680468646823444B6039
:1041400003681B680B6005E0054B1B680B6001E012
:1041500003680B60884200D0016010BD040000209D
:104160000C00002070B5054601F09EFBA86B08B955
:10417000012400E0002401F0C1FB204670BD70B5B1
:10418000054601F091FBA86BE96B884201D101243F
:1041900000E0002401F0B2FB204670BD0948006831
:1041A000006808B9012000E0002020B14FF0FF3086
:1041B0000549086005E003480068C06800680249D6
:1041C00008607047300000205C000020024600219B
:1041D00001E0521C491C1078A528FAD0890888B241
:1041E000704700000E480068401C08B9012000E03C
:1041F000002050B900BFBF2080F31188BFF34F8F5C
:10420000BFF36F8F00BF00BFFEE700BFBF2080F38A
:104210001188BFF34F8FBFF36F8F00BF00BFFEE762
:104220002000002070B5044601F03EFB94F9455093
:1042300010E0606A08B9012000E0002038B904F1FC
:10424000240002F023FC18B101F088FC00E003E038
:10425000681E45B2002DECDC00BFFF2084F845004D
:1042600001F04CFB01F020FB94F9445010E0206970
:1042700008B9012000E0002048B904F1100002F064
:1042800005FC08B101F06AFC681E45B200E001E0DF
:10429000002DECDC00BFFF2084F8440001F02EFB71
:1042A00070BD00002DE9F04705464FF0000901F010
:1042B0004BFD4248006808B9FFF726FE75B105F0CE
:1042C0000700C0F11008C8F1FF30A84201D2012058
:1042D00000E0002008B9454400E00025012000EB83
:1042E000E570002853D0002D51D035480068854234
:1042F0004DD8344E3046046801E026462468606894
:10430000A84202D220680028F7D12C4800688442D5
:104310003DD0306800F10809206830606068401BBB
:10432000102819D9671907F0070008B9012000E023
:10433000002050B900BFBF2080F31188BFF34F8F1A
:10434000BFF36F8F00BF00BFFEE76068401B78605F
:1043500065603846FFF7D2FE194960680968081A97
:10436000174908600846006817490968884203D25F
:104370001348006814490860606840F000406060BD
:104380000020206011480068401C1049086002F0BD
:104390000DFC09F0070008B9012000E0002050B929
:1043A00000BFBF2080F31188BFF34F8FBFF36F8F23
:1043B00000BF00BFFEE74846BDE8F0870C000020C4
:1043C000100000200400002014000020180000202D
:1043D0000648006830B10549096801F14400496C9C
:1043E000491C016001480068704700002C00002053
:1043F00070B504460CB1206800B970BD206800F0AB
:104400008FFE451C206800F0A3FF401C45430A486E
:10441000B0FBF5F0A0602179206800F045FE401C5B
:10442000642100FB01F5206800F092FF401CB5FB01
:10443000F0F0207300BFE0E7000E27071CB5074926
:1044400003C9CDE9000169460548FDF726FB0022B6
:1044500001210348FDF770FB1CBD000084B7000874
:104460000004004810B5FFF7E9FF00F08BF810BD1D
:104470002DE9F04104460D46164604B10DB9BDE8DC
:10448000F08125602671206800F04AFE471C2068F4
:1044900000F05EFF401C47430A48B0FBF7F0A06005
:1044A0002179206800F000FE401C642100FB01F728
:1044B000206800F04DFF401CB7FBF0F0207300BFF8
:1044C000DDE70000000E270770B504460D461CB15D
:1044D000206808B1642D00DD70BD206800F038FF51
:1044E000401C68436421B0FBF1F60EB1731E00E07E
:1044F00000231A462179206800F0EDFD00BFEBE7AC
:1045000070B504460D4634B1206820B1102D02D399
:104510000948854200D970BD206800F001FE401CAA
:1045200068430649B1FBF0F0461E3146206800F0B2
:1045300012FF00BFEFE70000A0860100000E270772
:1045400000220D490D48FFF793FF42F210710B480E
:10455000FFF7D6FF32210948FFF7B6FF0748FFF7FC
:1045600047FF07E0002001F055F9054908600A20DF
:1045700001F03CFAF6E7000000200040F42C002097
:10458000C80100201CB5124903C9CDE900017722FA
:104590006321104800F080FD00210E4800F0AFFDBF
:1045A00001210C4800F0CFFE6A460021094800F0C6
:1045B000F5FD09220021074800F08DFD01220021B0
:1045C000044800F0CAFD0121024800F0A2FD1CBD14
:1045D0008CB7000800200040001F4FF0807303607C
:1045E000001F21F001030360001F034B0360143818
:1045F0000260203870470000E541000830B585B002
:1046000005460C46142218496846FBF70DFE019535
:104610001648FDF71DFA69461448FDF7E1F9012235
:1046200002211248FDF70AFA002201210B20FFF7B0
:10463000ABFA00210D48FDF7B3F901940020ADF865
:1046400008008020ADF80A0008481430FDF700FA91
:10465000694606481430FDF7C3F9012103481430B8
:10466000FDF79EF905B030BD9CB70008440002403C
:104670001CB5164903C9CDE9000169464FF09040C9
:10468000FDF70BFA02214FF09040FDF7FDF90220F3
:104690008DF806000420009069464FF09040FDF729
:1046A000FCF9012202214FF09040FDF745FA082065
:1046B000009069464FF09040FDF7EFF90122032189
:1046C0004FF09040FDF738FA1CBD000094B7000889
:1046D00070B504460D46FFF7CBFF29462046FFF78D
:1046E0008DFF00F005F970BDF0B503460C464FF69E
:1046F000FF764AF2010731460BB90020F0BD0020D9
:1047000014E0255C694000250CE001F0010CBCF1CF
:10471000000F02D087EA610100E0491005F1010CA9
:104720000CF0FF05082DF0DB451CA8B29042E8DB39
:104730000846E3E72DE9F04704460E4617461D46B6
:10474000DDE908981CB115B1B8F1000F01D1BDE841
:10475000F0874FF48E712046FBF77FFD266067607F
:10476000A560C4F80C90C4F81080012084F81801EA
:10477000002084F81901012084F81A0100BFE6E73F
:1047800010B504460CB1206900B910BD802104F1B8
:104790009800FBF762FD01212069FDF701F9002077
:1047A00084F8190100BFF0E710B504460CB1206988
:1047B00000B910BD00212069FDF7F2F82069FDF76E
:1047C000F4F8C0F18000E08280212069FDF7F1F863
:1047D000012084F8190100BFEBE710B504460CB1C5
:1047E000206800B910BDA28891B22068FDF74CF98D
:1047F00000BFF7E71CB5264825491439254B02228E
:10480000CDE900104FF090412348FFF793FF3DE0C2
:10481000214890F81901012830D11F48C08A062884
:1048200029DB1D48C08A801E82B21B4998311A4874
:10483000FFF75AFF0446184890F89800164991F877
:104840001A11884216D11448C08A401E1249983164
:10485000085CA04201D1012200E000220E48C08A7B
:10486000801E0D499831085C42EA002010B100BF5B
:1048700000BF00BF00BF0848FFF782FF002000F024
:10488000C9FF06490860322001F0B0F8C0E7000017
:104890005800024000440040042D0020D0010020B8
:1048A00010B504460CB1E06800B910BD00BF40214E
:1048B0000E4800F0D2FD0028F9D02046FFF78DFF0A
:1048C0000021A06800F04EFF0121A06800F0D8FE92
:1048D0000021E068FDF764F801212069FDF760F828
:1048E000012084F8180100BFDFE700000044004009
:1048F00010B500231A464FF4E131134800F0D6FDFD
:104900000021114800F096FE01210F4800F02AFF17
:1049100001210D4800F0B4FE01210B4800F093FD89
:104920000121094800F08AFD01220849064800F0EB
:10493000F3FD002201211C20FFF726F90121024886
:1049400000F086FD10BD00000044004004000C0093
:1049500070B504460D460CB1206800B970BD00BFAB
:1049600021680868022100F0AAF90028F8D015B1E2
:104970002268127901E02268527911462268106893
:1049800000F09BF900BF21680868022100F097F948
:104990000028F8D000BFE1E770B504460E460CB120
:1049A000206800B970BD002513E02046FEF7DBF952
:1049B00006FA05F000F0800018B12046FDF7BBFDB7
:1049C00002E02046FDF7C6FD2046FEF7BDF9681C53
:1049D000C5B2082DE9DB00BFE4E770B504460E461A
:1049E0000CB1206800B970BD002508E006FA05F09A
:1049F00000F080012046FFF7ABFF681CC5B2082D10
:104A0000F4DB00BFEFE770B504460D460CB120683B
:104A100000B970BD2046FDF7B0FC2046FDF7BCFC98
:104A200029462046FFF7B8FF2046FDF797FC00BF58
:104A3000EFE770B504460D460CB1206800B970BDB3
:104A4000290A2046FFF7A8FFE9B22046FFF7A4FF96
:104A500000BFF4E770B504460D460CB1206800B9FC
:104A600070BD2046FDF789FC2046FDF7A4FC2946D1
:104A70002046FFF791FF2046FDF770FC00BFEFE7EF
:104A800070B504460CB1206800B970BD002516E071
:104A900000BF21680868022100F011F90028F8D051
:104AA00022689179106800F008F900BF2168086851
:104AB000022100F004F90028F8D0681C85B2B5F591
:104AC000967FE5DB00BFE0E71CB5084903C9CDE9E7
:104AD000000169464FF09040FCF7DFFF02220821F9
:104AE0004FF09040FDF728F81CBD0000B0B700085B
:104AF00010B5FFF7E9FF00F0A7F810BD2DE9F04170
:104B000004460D46164604B10DB9BDE8F081256096
:104B100026712179206800F0C7FA401C642100FB4F
:104B200001F7206800F014FC401CB7FBF0F0607146
:104B30000020A07100BFE8E72DE9F0478246BAF1F6
:104B4000B40F02DD40F6C31010E05046FBF718FD2D
:104B50000646084A084BFBF732FC04460022074B86
:104B6000FBF786FB8046FBF718FD401E80B2BDE8D0
:104B7000F0870000B81E85EB5138264000487F4082
:104B800070B504460D460CB1B42D00DD70BD28464D
:104B9000FFF7D2FF064621793246206800F09BFAE3
:104BA0002179206800F080FA401C642100FB01F6A6
:104BB000206800F0CDFB401CB6FBF0F06071A571E1
:104BC00000BFE3E7002219491948FFF797FF5A2170
:104BD0001748FFF7D5FF5A201649087024E01648F9
:104BE000007814490978884216D012480178104894
:104BF000FFF7C6FF0F4800780F4908700F4840784C
:104C0000012809D10E48406830B10D4900231A46E9
:104C10004868194601F07CFB002000F0FBFD0949C3
:104C200008600A2000F0E2FED9E70000002C0140F5
:104C3000E0010020E8010020DC010020BC01002090
:104C40009C2C0020D80100201CB5174903C9CDE9D0
:104C50000001772244F61F61144800F01DFA00217C
:104C6000124800F051FA0021104800F048FA0121E2
:104C70000E4800F068FB6A4600210C4800F08EFAEE
:104C800040F2F3120021094800F025FA0122002128
:104C9000064800F062FA0121044800F04FFB0121B0
:104CA000024800F036FA1CBDB8B70008002C0140DD
:104CB000026861F3861202607047C1607047024665
:104CC000002093680B4003B900E001207047C269DF
:104CD00022F40062C2610A7862B9026822F40042DA
:104CE0000260026822F480420260026822F480625C
:104CF000026036E00A78012A0ED1026822F40042EE
:104D00000260026822F480420260026822F480623B
:104D100002F58062026024E00A78022A0ED102685D
:104D200022F4004202F500420260026822F480424E
:104D30000260026822F48062026012E00A78032AAC
:104D40000FD1026822F4004202F5004202600268BC
:104D500022F4804202F580420260026822F48062FE
:104D60000260CB79026863F3492202604A78012A23
:104D700009D1CA79012A06D1026822F4807202F5AB
:104D80008072026003E0026822F4807202604B7855
:104D9000026863F3820202608A78072A0BDD4268A8
:104DA00022F4807202F5807242608A78036862F3AE
:104DB000C503036008E0426822F4807242608B7889
:104DC000026863F3C5020260CB78026863F3C7121E
:104DD00002600B79026863F3CB2202604B790268B0
:104DE00063F3410202608B79026863F300020260A0
:104DF0007047000010B5FCF77BFD40F253101749D7
:104E0000086000210120FCF7A9FB1D210020FCF710
:104E1000E5FC01210220FCF7A1FB00BF1920FCF7F3
:104E2000A3FC0128FAD10020FCF766FB0020FCF768
:104E300077FB0020FCF76AFB0120FCF77BFB0220DC
:104E4000FCF788FD00BFFCF7A3FD0228FBD1002082
:104E5000FCF770FB00F004F810BD000000200240D9
:104E60002DE9FF5F002400250026A146A246A346A7
:104E70000020039002900190FCF78AFD00900098BA
:104E800020B1012814D0022874D115E04348406DA8
:104E9000C0F3402040B14148006BC0F3406018B1FE
:104EA0003F484049086002E03F483E49086065E0ED
:104EB0003D483C49086061E038484068C0F300461E
:104EC0003648C06AC00F20BB34484068C0F38344F2
:104ED00032484068C0F341750DB90F2C03D1280149
:104EE000401C044400E0A41C26B9304860432D490E
:104EF00008603DE029484068C0F3404020B12B489D
:104F000060432849086033E027486043254908602A
:104F10002EE02248C06AC0F3031003901F48C06A05
:104F2000C0F3082002901D48C06A00F007000190FD
:104F300016B9DFF878B009E018484068C0F340407F
:104F400010B1DFF868B001E0DFF85CB00121019832
:104F500001FA00F0039900FB01FC0298ABFB007022
:104F60000146624600233846FBF71AF90D490860EE
:104F700004E0FFE70C480B49086000BF00BF07488A
:104F80004068C0F303190A4810F809A005480068F2
:104F900020FA0AF003490860BDE8FF9F00100240B4
:104FA000006CDC020000002000127A0000093D00C5
:104FB000246D000810B5FFF71DFF0520FEF748FE21
:104FC00001212F48FCF7E8FB01214FF4A010FCF76A
:104FD000E3FB01212B48FCF7DFFB01212948401CA2
:104FE000FCF7DAFB01212748801CFCF7D5FB0121E7
:104FF0002448401DFCF7D0FB01212348FCF7CCFBE3
:1050000001211F48801CFCF7C7FB01211E480A38FC
:10501000FCF7C2FB01211C48801FFCF7BDFB0121EE
:105020001748C01DFCF7B8FB012115480930FCF7F3
:10503000B3FB01211248401DFCF7AEFB01211248D1
:10504000C01CFCF7A9FB1148FCF716F8FCF79EF909
:10505000FCF711FFFDF76BFAFEF7C2FBFFF702FA50
:105060000B49A1F18000FFF733FBFFF741FD094930
:10507000A1F1800000F071F900F0C8FE10BD000041
:1050800009001800110014000E001C00642B002001
:105090009C2D0020D82E0020C1628262436923F03B
:1050A00001035B1C4361704710B5024600200B46AC
:1050B00033B1022B06D0042B06D0062B08D105E015
:1050C000506B06E0906B04E0D06B02E0106C00E0E7
:1050D00000BF00BF10BD0B4633B1022B06D0042B1E
:1050E00006D0062B08D105E0426306E0826304E0A7
:1050F000C26302E0026400E000BF00BF70470268C4
:1051000061F3092202607047026861F306120260CF
:105110007047026861F300020260704741627047A5
:105120000146886A7047CA4302617047012A03D169
:10513000C3680B43C36003E012B9C3688B43C36009
:1051400070470246002013690B4023B1D3680B401F
:105150000BB1012000E00020704710B50B4633B1C1
:10516000022B09D0042B0CD0062B14D10EE084693D
:1051700062F3C30484610FE0846962F3CB24846129
:105180000AE0C46962F3C304C46105E0C46962F360
:10519000CB24C46100E000BF00BF10BD2DE9F04189
:1051A00000250026002701F108035C1C92F801C0CD
:1051B0000CFA03FC1FFA8CF592F802C00CFA04FCFE
:1051C0001FFA8CF6D0F804C04FF0010808FA04F872
:1051D0002CEA080CC0F804C0D0F804C04CEA060C55
:1051E000C0F804C0D0F804C04FF0010808FA03F872
:1051F0002CEA080CC0F804C0D0F804C04CEA050C36
:10520000C0F804C00F4637B1022F0DD0042F14D0C0
:10521000062F24D11AE092F80080D0F818C068F365
:10522000061CC0F818C01BE092F80080D0F818C027
:1052300068F30E3CC0F818C012E092F80080D0F875
:105240001CC068F3061CC0F81CC009E092F800807E
:10525000D0F81CC068F30E3CC0F81CC000E000BFD2
:1052600000BF4FF0010C0CEB41034FF0030C0CEBB3
:10527000410492F803C00CFA03FC1FFA8CF592F873
:1052800004C00CFA04FC1FFA8CF64FF0010808FA6F
:1052900004F8D0F820C02CEA080CC0F820C0D0F8E0
:1052A00020C04CEA060CC0F820C04FF0010C0CFAEC
:1052B00003FCD0F8208028EA0C08C0F82080D0F841
:1052C00020C04CEA050CC0F820C04B004FF0020C87
:1052D0000CEB410492F805C04FEA41080CFA08FCB7
:1052E0001FFA8CF592F806C04FF0020808EB41084F
:1052F0000CFA08FC1FFA8CF64FF0010808FA04F8C3
:10530000D0F820C02CEA080CC0F820C0D0F820C08B
:105310004CEA060CC0F820C04FF0010808FA03F868
:10532000D0F820C02CEA080CC0F820C0D0F820C06B
:105330004CEA050CC0F820C0BDE8F081426C61F376
:10534000CF3242647047026861F3C712026070474F
:105350000146C86A7047C162704770B504460D4681
:1053600000F084F82946204600F02EF800F00EFAEE
:1053700070BD2DE9F04104460F46154600260CB1DC
:1053800007B115B90220BDE8F0818026314604F14D
:105390001000FAF762FFB54208DD3246394604F1E3
:1053A0001000FAF741FFA6810120ECE72A463946B2
:1053B00004F11000FAF738FFA5810020E3E7014669
:1053C000486880B27047000030B585B005460C468D
:1053D000142218496846FAF727FF01951648FCF78A
:1053E00037FB69461448FCF7FBFA012202211248F8
:1053F000FCF724FB002201210A20FEF7C5FB002157
:105400000D48FCF7CDFA01940020ADF8080080208B
:10541000ADF80A0008481430FCF71AFB6946064844
:105420001430FCF7DDFA012103481430FCF7B8FA18
:1054300005B030BDC8B700081C000240426961F3E6
:10544000861242617047426961F3C7124261704738
:10545000C26861F34D32C26070470246106808406E
:1054600008B1012070470020FCE700001CB50E4980
:1054700003C9CDE9000169464FF09040FCF70DFBF0
:1054800001220921C806FCF757FB4FF48060009009
:1054900069464FF09040FCF700FB01220A214FF0D3
:1054A0009040FCF749FB1CBDC0B700082DE9F04354
:1054B00085B004460F46904699466846FCF77EF84C
:1054C0001448844201D1029E00E0039E06EB860050
:1054D0004000B0FBF7F50A20B5FBF0F100FB1150DE
:1054E000052803D20A20B5FBF0F503E00A20B5FB3E
:1054F000F0F0451CA06865F30F00A060E06868F359
:105500000C30E060206969F30D30206105B0BDE822
:10551000F08300000038014030B5012A0BD100EBC8
:1055200011431B6801F01F050124AC40234300EB2D
:10553000114423600AE000EB11431B6801F01F05D2
:105540000124AC40A34300EB1144236030BD02466C
:105550000023202927D00CDC042939D004DC0129C0
:105560003BD002293DD134E0082920D0102938D180
:105570002AE0402913D080290DD0B1F5807F06D0D4
:10558000B1F5007F2DD15069C0F380232BE0106965
:10559000C0F3801327E0D068C0F3C01323E0D068C5
:1055A000C0F380131FE0D068C0F340131BE0D06845
:1055B000C0F3401018B9506900F0010008B1012093
:1055C00000E0002003460EE0D068C0F300130AE0BC
:1055D00000BF506900F0010305E0D068C0F300236C
:1055E00001E0002300BF00BF012B01D00020704765
:1055F0001068084008B10120F9E70020F7E72DE91D
:10560000F04104460D4617461E460CB105B10EB9D1
:10561000BDE8F0814FF48A712046FAF71EFE25603E
:105620006760A660012084F81001002084F8110151
:1056300000BFEDE741B9C26822F40072C260C268DF
:1056400022F48062C2601AE001290AD1C26822F401
:105650000072C260C26822F4806202F58062C26099
:105660000DE002290BD1C26822F4007202F500722B
:10567000C260C26822F4806202F58062C260704734
:10568000C26861F38202C260704710B504460CB173
:10569000A06800B910BD802104F19000FAF7DDFD8B
:1056A0000121A068FCF77CF9002084F8110100BFFB
:1056B000F0E710B504460CB1A06800B910BD002198
:1056C000A068FCF76DF9A068FCF76FF9C0F18000E5
:1056D000E0818021A068FCF76CF9012084F81101B9
:1056E00000BFEBE710B5044614B194F8100108B9F7
:1056F000012010BDA1896068FCF75BF90121606899
:10570000FCF74EF9002084F8100100BFF1E700001B
:10571000104B104A143A10491048FFF770FF18E078
:105720000E4890F8110101280BD10C48C28900F1F4
:105730009001FFF71EFE0948FFF7D4FF0748FFF767
:10574000A4FF002000F066F805490860322000F050
:105750004DF9E5E73000024000380140482E0020B6
:10576000F0010020C26861F3C302C260704710B547
:1057700004460CB1606800B910BD00216068FCF7F8
:105780000FF9012084F8100100BFF5E710B50023E0
:105790001A464FF4E1311348FFF788FE0021114803
:1057A000FFF748FF01210F48FFF7DCFF01210D48FB
:1057B000FFF766FF01210B48FFF745FE012109486D
:1057C000FFF73CFE012208490648FFF7A5FE00222C
:1057D00001211B20FEF7D8F901210248FFF738FE0E
:1057E00010BD00000038014004000C0001460A69A9
:1057F000D1E901309860D1E90103586050688842CE
:1058000001D188685060002008611068401E106057
:10581000106870472DE9F041044614B90648006845
:1058200000E0204607463D6B2846FEF7CFFC0646C3
:105830003046BDE8F08100002C00002000F1080196
:1058400041604FF0FF31816000F10801C1600161EA
:1058500000210160704700210161704710B50246C8
:105860000B685C1C0CB9106907E002F1080000E04D
:105870004068446824689C42FAD944684C604C688B
:10588000A160886041600A611468641C146010BDE6
:1058900042684A6093688B609368596091600861C0
:1058A00003685B1C0360704700BFBF2080F3118852
:1058B000BFF34F8FBFF36F8F00BF0E480068401CCF
:1058C0000C49086008460068012812D10A4800689F
:1058D000C0B208B9012000E0002050B900BFBF20CD
:1058E00080F31188BFF34F8FBFF36F8F00BF00BFEE
:1058F000FEE770472000002004ED00E00D4800683E
:1059000050B900BFBF2080F31188BFF34F8FBFF3A2
:105910006F8F00BF00BFFEE706480068401E0549C4
:1059200008600846006820B9002080F3118800BF95
:1059300000BF70472000002070B506463546002E97
:105940003BD0083D2C466068C00F50B900BFBF2057
:1059500080F31188BFF34F8FBFF36F8F00BF00BF7D
:10596000FEE7206808B9012000E0002050B900BF20
:10597000BF2080F31188BFF34F8FBFF36F8F00BF3D
:1059800000BFFEE76068C00FB8B12068A8B96068C2
:1059900020F00040606000F0D7F9084960680968AD
:1059A0000844064908602046FEF7A8FB0448006842
:1059B000401C0349086001F0F9F870BD1000002098
:1059C0001C00002000204FF0E0210861886106489B
:1059D00000684FF47A71B0FBF1F0401E4FF0E02107
:1059E00048610720086170470000002070B5044638
:1059F0000025D4B11248006808B9012000E0002059
:105A000050B900BFBF2080F31188BFF34F8FBFF3A1
:105A10006F8F00BF00BFFEE700F096F9002120461F
:105A2000FEF72AF901F0C2F805463DB94FF0805063
:105A300004490860BFF34F8FBFF36F8F70BD000044
:105A40006800002004ED00E070B50546FFF72CFF6C
:105A500015B93248006800E028460446201DFFF7CB
:105A6000C5FE78B9E06A00EB80002D4951F82000AE
:105A700040B994F82C10012088402A4909688143D4
:105A800028480160A06A18B104F11800FFF7AEFEC3
:105A900025480068401C244908602048006884426A
:105AA00009D1211D2148FFF7F3FE21480068401C61
:105AB0001F49086006E01F480068401E1D49086035
:105AC000FEF76CFBFFF71AFF14480068844202D00F
:105AD0002046FEF706FA18480068E8B10F4800684B
