:020000040800F2
:10000000603300207D010008170800080F08000871
:1000100013080008CB070008810900080000000051
:10002000000000000000000000000000E5000008E3
:100030000D08000800000000290100081908000848
:100040009701000897010008970100089701000830
:100050009701000897010008970100089701000820
:100060000000000097010008D1070008ED07000814
:1000700097010008970100089701000800000000A0
:10008000970100081509000800000000970100080A
:10009000B908000897010008F10800089701000856
:1000A0009701000897010008970100083909000826
:1000B0005D090008000000000000000000000000D2
:1000C000970100080000000097010008DFF810D039
:1000D00000F03EFB0048004701400008AFF30080FD
:1000E00060330020224B19680868B0E8F00F80F3F5
:1000F0000988BFF36F8F4FF0000080F311884EF036
:100100000D0E70470000000006480068006880F38C
:10011000088862B661B6BFF34F8FBFF36F8F00DF01
:1001200000BF00BF08ED00E0EFF30980BFF36F8F61
:100130000F4B1A6820E9F00F106008B54FF0BF00B0
:1001400080F31188BFF34F8FBFF36F8F06F056F81F
:100150004FF0000080F31188BDE808401968086876
:10016000B0E8F00F80F30988BFF36F8F704700BFCE
:100170002C000020EFF30580704700000648804700
:1001800006480047FEE7FEE7FEE7FEE7FEE7FEE77C
:10019000FEE7FEE7FEE7FEE74D080008CD00000899
:1001A0002DE9F05F0546002092469B4688460646AC
:1001B000814640241BE0284641464746224600F03F
:1001C00017FA53465A46C01A914110D311461846A1
:1001D000224600F0FEF92D1A67EB01084F46224631
:1001E0000120002100F0F5F917EB00094E41201E17
:1001F000A4F10104DFDC484631462A464346BDE807
:10020000F09F40EA01039B0703D009E008C9121FD1
:1002100008C0042AFAD203E011F8013B00F8013BC0
:10022000521EF9D27047D2B201E000F8012B491EEC
:10023000FBD270470022F6E710B513460A46044683
:100240001946FFF7F0FF204610BD2DE9FE4F80460E
:1002500081EA0300C00F0C46009021F0004123F01A
:100260000045B8EB0200A94105D240462146904620
:100270001C460B46024623F00040104347D0270D92
:10028000C7F30A00C3F30A510290401A01904028B4
:100290006BDAC3F3130040F4801B0098924620B140
:1002A0000023D2EB030A63EB0B0B01985946C0F114
:1002B0004002504600F08DF906460D46504659461C
:1002C000019A00F0A5F910EB08006141002487EACB
:1002D000115284EAE7731A4340D0009A62B3019A3C
:1002E000012A4FEA075215DC001B61EB02014FF0B7
:1002F000004202EA0752CDE90042001C41F580119C
:1003000032462B4600F0A5F903B0BDE8F08F404619
:100310002146F9E7001B61EB0201001C41F5801347
:1003200000185B412018A2F5001747EB030140EAD3
:10033000D570B6196D4111E06D084FEA360645EAF1
:10034000C0754FEA0752001B61EB0201001C41F52A
:10035000801149084FEA30000019514132462B46BE
:1003600003B0BDE8F04F00F065B9009801224000ED
:100370000023D0EB020263EBE073009821464FEAC2
:10038000E074B8EB000061EB0401E9E783F000439F
:100390005BE781F0004158E72DE9FE4F81EA030455
:1003A00004F0004421F0004100944FF0000B23F0D2
:1003B000004350EA01045ED052EA03045BD0C3F369
:1003C0000A54C1F30A552C44A4F2F3340194A0FB5F
:1003D0000254C1F3130141F48011C3F3130343F436
:1003E000801301FB024400FB034E840A970A44EA8F
:1003F000815447EA8357A4FB076802958D0A05FBE1
:1004000007854FEA932C04FB0C542705029D4FEA05
:10041000065847EA1637B5EB08056EEB070C870E52
:10042000920E47EA811742EA8312A7FB0201B6EB5C
:100430000B0164EB00042B0D43EA0C335E1844EB14
:100440001C50DA465146E7FB0201C5F313044FEA9C
:100450000B3343EA14534FEA0432019C43EA060388
:10046000A4F10C040294009CCDE900B400F0F1F872
:1004700003B0BDE8F08F00200146F9E72DE9F04D0B
:1004800081EA030404F0004B21F0004514464FF0CC
:10049000000A23F0004150EA050220D054EA01028C
:1004A0001DD0C5F30A570246C5F31303C1F3130069
:1004B000C1F30A5640F4801543F48013A7EB0608F5
:1004C000101BD64608F2FD3873EB050002D308F185
:1004D000010801E092185B41B8F1000F03DA002037
:1004E0000146BDE8F08D00204FF480110646844699
:1004F0000EE0171B73EB050705D3121B63EB050317
:1005000006434CEA010C49084FEA300092185B415F
:1005100050EA0107EDD152EA030012D082EA04004A
:1005200083EA0501084305D0101BAB4106D2012226
:10053000002306E000224FF0004302E06FF00102CA
:1005400053101AEB06004CEB085110EB0A0041EB7C
:100550000B01BDE8F04D00F06DB80EB540F233412F
:1005600002910021CDE900110A460B4600F071F816
:1005700003B000BDC1F30A5210B5C1F3130140F23C
:10058000FF3341F480119A4201DA002010BD40F29D
:1005900033439A42A2F2334203DC524200F028F87D
:1005A00010BD904010BD30B50B4601460020202202
:1005B000012409E021FA02F59D4205D303FA02F570
:1005C000491B04FA02F52844151EA2F10102F1DCD0
:1005D00030BD202A04DB203A00FA02F100207047E7
:1005E0009140C2F1200320FA03F319439040704771
:1005F000202A04DB203A21FA02F00021704721FA78
:1006000002F3D040C2F120029140084319467047DE
:10061000202A06DBCB17203A41FA02F043EAE073C6
:1006200006E041FA02F3D040C2F1200291400843B3
:100630001946704710B5141E73F1000408DA401C07
:1006400041F1000192185B411A4301D120F00100F1
:1006500010BD2DE9F04D92469B4611B1B1FA81F2E1
:1006600002E0B0FA80F220329046FFF7B2FF044673
:100670000F4640EA0A0041EA0B0153465A46084336
:1006800013D0114653EA010019D0C8F14002504678
:10069000FFF7AEFF05460E46504659464246FFF765
:1006A00098FF084305D0012004E020463946BDE804
:1006B000F08D0020054346EAE0762C4337430A9844
:1006C0006305E40AA0EB08000022FD0A44EA47544F
:1006D0000A3002D500200146E9E7010510196941F9
:1006E000DDE9084500196941BDE8F04DA2E7C1F315
:1006F0000A52C1F3130140F2FF3341F480119A42D0
:1007000002DA00200146704740F233439A42A2F2D7
:10071000334202DC5242FFF76BBFFFF75ABF0000C3
:1007200030B5041E71F1000404DB4FF00044404278
:1007300064EB0101141E73F1000405DB1C464FF04D
:100740000043524263EB0403994208BF904230BD1C
:10075000064C074D06E0E06840F0010394E807000E
:1007600098471034AC42F6D3FFF7B4FCF8B6000853
:1007700018B7000870B58C1810F8015B15F0070366
:1007800001D110F8013B2A1106D110F8012B03E02A
:1007900010F8016B01F8016B5B1EF9D12B0705D432
:1007A0000023521E0DD401F8013BFAE710F8013B7B
:1007B000CB1A921C03E013F8015B01F8015B521E97
:1007C000F9D5A142D8D3002070BD00BFFEE70000DC
:1007D00010B5202001F044FB28B1034805F019FAB8
:1007E000202001F037FB10BD482E002010B54FF43B
:1007F000005001F035FB30B1034804F0A5FA4FF486
:10080000005001F027FB10BD042D0020704700BFF1
:10081000FEE700BFFEE7704710B500BFBF2080F3C2
:100820001188BFF34F8FBFF36F8F00BF06F0B4F98D
:1008300018B14FF080500449086000BF002080F3D9
:10084000118800BF10BD000004ED00E017480068EB
:1008500020F00100401C1549086000BF13480068E3
:10086000C0F340000028F9D01048406820F0030091
:100870000E49486000BF0D484068C0F38100002861
:10088000F9D10A4800680A49084008490860002070
:10089000486041F61070C8624FF4801008634FF44E
:1008A0001F008860C80303490860704700100240B9
:1008B000FFFFF2FE08ED00E010B501210A4804F048
:1008C00092FE80B1002408E004EB4401074A02EBE9
:1008D000C10001F025FD601CC4B2052CF4DB012130
:1008E000014804F072FE10BD00400140F02B0020D2
:1008F00010B50121054804F076FE30B1044803F03C
:10090000F1FA0121014804F060FE10BD00480140E9
:10091000AC2C002010B50121054804F064FE30B174
:10092000044801F012F80121014804F04EFE10BD08
:1009300000100040782B002010B5074908681021EE
:1009400005F057F830B1044805F005F90249086888
:1009500004F087FF10BD0000482E002010B50749A5
:100960008868102105F045F830B1044804F070F9AA
:100970000249886804F075FF10BD0000042D0020B6
:1009800000BFFEE70FB4084B10B504A902AA0398F4
:1009900000F0DEF8044602A9002000F05CFC2046CE
:1009A00010BC5DF814FB00005712000802E008C8F4
:1009B000121F08C1002AFAD170477047002001E0D9
:1009C00001C1121F002AFBD1704700002DE9FF5F13
:1009D00082B00021DDE90430020DDDF840B00343B0
:1009E00018D044F61050A2F2FF3242431514119869
:1009F00001281FD0A5EB0B00401C5FEA000A4FF056
:100A000000064E4FDFF83891B046504615D5CAF172
:100A1000000413E0119801244AA3012801D16FEAD0
:100A20000B010298119AC0E90031C0E9024206B0F8
:100A3000BDE8F09FCBF10000DFE704460021404A0B
:100A4000491842EB0450CDE9001012E0E00707D04E
:100A500032463B4640464946FFF79EFC8046894663
:100A600032463B4610461946FFF796FC06460F46AF
:100A70006410002CEAD1DDE90401DDE90023BAF1BC
:100A8000000F06DAFFF788FC42464B46FFF784FC6E
:100A900005E0FFF7F3FC42464B46FFF7EFFC044648
:100AA0000E460022284BFFF73BFE03D84FF0FF30E5
:100AB000014607E00022254B20463146FFF7C5FBE3
:100AC000FFF715FE102409E0002C0ADB0A220023A0
:100AD000FFF766FB039B30321A55641E50EA010291
:100AE000F2D1641C039AC4F111031444119A012A2F
:100AF00003D0012208430DD10AE0084304D00020AE
:100B00004FF0110B119072E7A3EB0B056D1E0DE07A
:100B10005B4504DD4FF0000205F1010504E003DA56
:100B20004FF00002A5F10105002AECD002981199BE
:100B3000C0E90231C0E9004579E700000000144037
:100B40000000F03F300000000000F0430000E03FF4
:100B50002DE9FF4F95B09A46884606460025EEE1FE
:100B6000252877D100242746F94A0121039400E083
:100B7000044316F8013F203B01FA03F01042F7D17D
:100B800030782A2811D06FF02F033078A0F130028E
:100B9000092A16D8039A44F0020402EB820203EBFE
:100BA00042021044761C0390EFE758F8042B03929E
:100BB000002A03DA504244F40054039044F0020443
:100BC000761C30782E2816D116F8010F44F0040454
:100BD0002A280DD06FF02F023078A0F13003092BB6
:100BE00009D807EB870302EB4303C718761CF3E72A
:100BF00058F8047B761C30786C280FD006DC4C2823
:100C000017D068280DD06A2814D104E0742810D0B9
:100C10007A280FD10DE044F400140AE044F4801463
:100C200001E044F440147278824202D104F5801449
:100C3000761C761C307866280BD013DC582877D0C9
:100C400009DC002875D04528F6D04628F4D047287E
:100C50001AD193E118E0632835D0642879D065284B
:100C600012D18BE1702873D008DC6728F1D0692895
:100C70006FD06E280DD06F2806D1ACE073282CD031
:100C8000752874D0782853D05246179990476D1C18
:100C900054E1C4F30250022809D003280DD0D8F83B
:100CA000001004280DD00D6008F1040846E1D8F8C2
:100CB0000010EA17C1E90052F6E7D8F800100D80DD
:100CC000F2E70D70F0E718F8041B8DF80010002013
:100CD0008DF80100EB46012003E058F804BB4FF00B
:100CE000FF3061074FF0000102D40DE009F101016E
:100CF0008946B9420FDA8145F8DB1BF80910002953
:100D0000F4D108E009F1010189468142FADB1BF8C0
:100D100009100029F6D103985346A0EB0907214694
:100D20003846179A00F080FA284400EB090507E0DE
:100D300044E008E10DE01BF8010B5246179990477B
:100D4000B9F10109F7D2534621463846179AF2E025
:100D500039E00A21C4F302524FF0000B0091022A3D
:100D600006D058F8040BC117032A09D00AE023E083
:100D700008F1070020F00702F2E80201904605E0C2
:100D800000B2C117042A01D140B2C117002906DA06
:100D90000A460021404261EB02012D2202E02205B9
:100DA00004D52B228DF80420012203E0E20701D0B4
:100DB0002022F7E7914657E00A2100E010214FF08A
:100DC000000B00910BE010214FF0000B44F00404E5
:100DD0000827009103E008204FF0000B0090C4F3B7
:100DE0000252022A05D058F8040B0021032A08D029
:100DF00008E008F1070020F00702F2E8020190463F
:100E000003E080B2042A00D1C0B24FF000092207EB
:100E10002AD53278702A07D0DDF800C08CF0100C8B
:100E20005CEA0B0C05D00EE040228DF80420012274
:100E300008E050EA010306D030238DF804308DF825
:100E4000052002229146009B83F0080353EA0B031E
:100E50000AD150EA010201D1620705D530228DF88E
:100E600004204FF001097F1E3278582A04D039A29D
:100E70000C920CAA02920BE03BA2F9E75B46009AA7
:100E8000FFF78EF90C9B9B5C029A521E0292137024
:100E900050EA0102F2D1029804A9081A00F1200BCD
:100EA000600702D524F4803400E001275F4502DDAD
:100EB000A7EB0B0000E0002000EB0B010090039873
:100EC0004944401A0390E00306D453462146179A3A
:100ED000039800F0A9F90544002706E001A852464E
:100EE000C05D179990476D1C7F1C4F45F6DBE003F2
:100EF0000CD553462146179A039800F095F90544FE
:100F000004E030205246179990476D1C0099481E06
:100F100000900029F5DC08E002980299524600781A
:100F2000491C0291179990476D1CBBF10001ABF170
:100F3000010BF1DC5BE100F065F90544761C3078CB
:100F400000287FF40DAE19B02846BDE8F08F0000F0
:100F5000092801003031323334353637383961628F
:100F60006364656600000000303132333435363753
:100F7000383941424344454600000000600700D430
:100F8000062708F1070020F00700F0E8022380465A
:100F900003F0004C5FEA0C0001D097A009E02005A7
:100FA00001D596A005E0E00701D095A001E0AFF2E1
:100FB0004C001390307823F0004365280CD006DCF9
:100FC000452809D046281DD047287FD13BE0662818
:100FD00018D067287AD136E00021112F01DB1120CB
:100FE00000E0781CCDE9000104A90CA8FFF7EEFC95
:100FF000DDE90D010C9A4FF0000B07F10109109289
:1010000000914EE04FF000400097CDE9011004A997
:101010000CA8FFF7DBFCDDE90D020C9B0F994FF0EC
:10102000000B91461093009211B9791C00EB010955
:10103000B7EB090003D4C0F1FF3B07F10109A9EBAD
:101040000700019042E0012F00DA01270021112F53
:1010500001DD112000E03846CDE9000104A90CA80B
:10106000FFF7B4FCDDE90D010C9A00914FF0000B85
:10107000B946109221070FD4009A4A4503DA9146E7
:1010800001E0A9F10109B9F1010F05DD109AA9F1FB
:101090000101515C3029F4D0B84202DA10F1040F9A
:1010A00003DA0121CDE9011010E0002803DC8344BC
:1010B000A9EB000102E0411C494500DD8946A0EB97
:1010C0000B00401C01904FF000400290200705D417
:1010D0000198484502DB4FF0FF30019000208DF869
:1010E0004B0002980DF14B07B0F1004F25D00220C4
:1010F0000C902B200D90029800280CDA40420290B0
:101100002D200D9007E00A210298FFF74CFA3031AC
:10111000029007F8011D0C99481E0C900029F2DC82
:1011200002980028EFD1791E0D980870307800F0F1
:10113000200040F0450007F8020D11A8C01BC01D9B
:1011400002901398007800B1012000EB090101988A
:1011500001EBE071029801440398401A401E03908D
:10116000E00306D453462146179A039800F05CF832
:1011700005441398007818B15246179990476D1C92
:10118000E00323D553462146179A039800F04CF804
:1011900005441BE0BBF1000F07DB0098584504DD58
:1011A0001098179910F80B0001E01799302052465B
:1011B000904701980BF1010B401E05F101050190CC
:1011C00004D12E205246179990476D1CB9F10001A9
:1011D000A9F10109DEDC05E017F8010B5246179969
:1011E00090476D1C0299481E02900029F4DC53467A
:1011F0002146179A03989EE62D0000002B00000060
:10120000200000002DE9F041044600251E46174647
:10121000880404D405E039462020B0476D1C641EC4
:10122000F9D52846BDE8F0812DE9F04104460025B6
:101230001E469046C80301D5302700E020278804C9
:1012400004D505E041463846B0476D1C641EF9D50B
:101250002846BDE8F0810A68531C0B601070704787
:1012600008B51F4800680090022000F083FB694623
:101270001C4800F039F8072301220821194800F022
:101280007AF9072302221021164800F074F9072387
:1012900003221121134800F06EF9012207211148A1
:1012A00000F0BDF901210F4800F01CF9012000F009
:1012B00077FA01210B4800F01AF90A4800F02AF8E1
:1012C00000BF084800F02CF80028FAD1054800F0CB
:1012D00030F800BF034800F032F80028FAD108BD0A
:1012E0001C720008002401400B78426863F3082256
:1012F00042604B78826863F3410282608B78826837
:1013000063F3CB228260CA78521EC36A62F317531A
:10131000C3627047816821F008010831816070471D
:1013200001468868C0F3C00008B101207047002062
:10133000FCE7816821F00401091D816070470146C6
:101340008868C0F3800008B1012070470020FCE7E6
:1013500028B1016819B1416809B1816801B97047C4
:1013600090F8381039B900214E4A11704E4A117068
:101370004E4A117094E04B490978B9B3002132E02C
:1013800000F10C0252F8212090F83630B2FBF3F352
:1013900000F10C0252F82120D31A00F10C0242F89D
:1013A000213052F82130183232F81120134400F164
:1013B0000C0242F8213052F8212090F83630B2FB6E
:1013C000F3F293B200F12A0222F81130123A52F8E5
:1013D0002130123232F81120134400F1180242F881
:1013E00021304A1CD1B20329CADB35E0FFE72E4980
:1013F0000978491CC9B22C4A117090F836209142E4
:1014000002DB0121274A1170002123E000F10C02C8
:1014100052F82130183232F81120134400F10C0236
:1014200042F8213052F821201F4B1B78B2FBF3F217
:1014300093B200F12A0222F81130123A52F8213008
:10144000123232F81120134400F1180242F8213010
:101450004A1CD1B20329D9DB14490978491CC9B205
:10146000124A117090F83720914219DB00210F4A7F
:10147000117000BF12E000F1180252F8212090F81C
:101480003730B2FBF3F293B200F1300222F81130A0
:101490000023183A42F821304A1CD1B20329EADB72
:1014A00000BF5CE76C0000206D0000206E00002093
:1014B00010B586B004461422084901A8FEF7A1FE23
:1014C0000294074800F012FD01A9054800F0D6FC7F
:1014D0000021034800F0B2FC06B010BD08720008FD
:1014E00008000240826861F30822826070478268C7
:1014F00061F30002826070471CB5044903C9CDE95D
:1015000000016946024800F016FD1CBD007200088B
:101510000004004810B50446FFF7EEFF2046FFF731
:10152000C7FFFFF79DFE10BD2DE9F04704460D46AD
:1015300016461F46DDE9088914B10DB106B10FB991
:10154000BDE8F0873C212046FEF774FE256066600A
:10155000A760B8F1050F01DA052000E0404684F8E5
:101560003600B9F1030F01DA032000E0484684F8A1
:10157000370000BFE4E770B504460A290CDA206999
:1015800001EB41060725B540A84301EB410503FAED
:1015900005F5284320610FE0E068A1F10A0505EB9D
:1015A00045060725B540A843A1F10A0505EB450509
:1015B00003FA05F52843E0600D2A10DBE06AA2F18A
:1015C0000D0505EB85061F25B540A843A2F10D05C5
:1015D00005EB850501FA05F52843E0621EE0072AC0
:1015E0000EDB206BD51F05EB85061F25B540A843F4
:1015F000D51F05EB850501FA05F5284320630DE0AD
:10160000606B551E05EB85061F25B540A843551E8A
:1016100005EB850501FA05F52843606370BD0729D0
:1016200004DD836861F35343836003E0836861F3FF
:1016300053438360836862F3145383607047826806
:1016400061F396528260704710B504462CB1206851
:1016500018B1606808B1A06800B910BD0021206809
:1016600000F0ECFB0321206800F0F1FB0121206871
:1016700000F0E4FB01216068FFF7E1FF012084F83E
:10168000380000BFE9E700001CB503200521314BFD
:10169000314ACDE9001031493148FFF745FF304864
:1016A000FFF7D2FF54E02E48FFF752FE2C4890F887
:1016B000380000282ED02A49488EFEF74EFF80467B
:1016C0004FF06632274BFEF767FE06460022264B98
:1016D000FEF7D4FE0446254A254BFEF75AFE824605
:1016E000244A254BFEF7CAFE0022244BCDE9000117
:1016F000FEF7ABFD224A03C21949888EFEF72DFF83
:10170000044622460B4600201E49FEF7B7FE1E4A3D
:1017100003C208E000211D48194AC2E900101C4814
:10172000194AC2E900101B48407848B91A48806835
:1017300030B1194900231A468868194605F03AF86D
:10174000002004F0B9FA154908600A2004F0A0FB53
:10175000A9E70000780000200024014008000240B2
:101760003C2B002066660A4000FEAF407B14AE476B
:10177000E17AF43F22FDF675E09C71BF000039402C
:10178000800000200032B34088000020F069F8405B
:101790000000F0BFBA010020982C00207400002047
:1017A0000349096860F3D751014A1160704700008E
:1017B0000824014010B504460CB1206800B910BDE2
:1017C000237C0BB9012300E000231A46A38899B2B9
:1017D000206800F0ABFB00BFF1E710B504460CB188
:1017E000206800B910BD237C0BB1012300E0002369
:1017F0001A46A38899B2206800F098FB00BFF1E771
:101800001CB5074903C9CDE900016946054800F048
:1018100092FB4FF40051034800F084FB1CBD000014
:10182000207200080008004810B5FFF7E9FF00F03B
:1018300043F810BD30B5039C00B930BD0160426073
:10184000836000258581C581047400BFF5E770B50C
:1018500004460D460CB1A06800B970BD204600F0EA
:101860004BF80020A081E5812046FFF7B6FF204617
:1018700000F05AF800BFF0E708B501200A4B420318
:101880000A4900900A48FFF7D5FF32210848FFF7C0
:10189000DEFF07E0002004F00FFA064908600A2086
:1018A00004F0F6FAF6E700000010004000080048D7
:1018B000782B00209400002010B5772240F2E73109
:1018C0000C4803F03BFE01210A4803F08EFF012182
:1018D000084803F07AFE01221146064803F078FE1C
:1018E00000220121112002F0A5FB0021014803F094
:1018F00062FE10BD0010004010B504460CB1A06897
:1019000000B910BDA068006800F0010038B10021E6
:10191000A06803F050FE0021024803F051FE00BF12
:10192000EFE700000010004010B504460CB1A068BD
:1019300000B910BDA068006800F0010018B90121CD
:10194000A06803F038FE00BFF3E710B504460CB101
:10195000A06800B910BDA089401C80B2A081E189B7
:10196000884205DB2046FFF725FF2046FFF7C4FF2E
:1019700000BFEFE70649496860F38F31044A5160C0
:1019800082080349496862F31C71014A516070473B
:10199000001002400349496860F30711014A516091
:1019A00070470000001002400349496860F30A21B3
:1019B000014A516070470000001002400349496825
:1019C00060F3CD21014A51607047000000100240D1
:1019D000012807D10749496D21F030013031054A0E
:1019E000516505E00349496D21F03001014A516517
:1019F0007047000000100240052827D2DFE800F001
:101A0000030A11181F00134A126861F30002114BF8
:101A10001A601CE00F4A126861F310420D4B1A6005
:101A200015E00C4A126861F318620A4B1A600EE066
:101A3000084A126A61F30002064B1A6207E0054A7F
:101A4000526A61F30002034B5A6200E000BF00BF1C
:101A500070470000001002402DE9F04F85B00446A9
:101A60000025AA46AB460026A94600200490039014
:101A70000290019000F0DAF90090009820B101285E
:101A800012D0022875D112E05648406DC0F34020B4
:101A900038B15448006BC0F3406010B15248206028
:101AA00001E05248206067E05048206064E04D4803
:101AB0004068C0F3004B4B48C06AC00F30BB494878
:101AC0004068C0F3834547484068C0F3417ABAF1A3
:101AD000000F01D10F2D04D14FEA0A10401C05441C
:101AE00000E0AD1CBBF1000F03D14148684320600A
:101AF0003DE03C484068C0F3404018B13C48684372
:101B0000206034E039486843206030E03548C06ADE
:101B1000C0F3031003903348C06AC0F3082002905A
:101B20003048C06A00F007000190BBF1000F02D1FD
:101B30002F48049009E02B484068C0F3404010B1A2
:101B40002B48049001E0294804900121019801FAF2
:101B500000F0039900FB01FC02990498A0FB0170BE
:101B60000146624600233846FEF71AFB206003E078
:101B7000FFE71E48206000BF00BF1A484068C0F35E
:101B800003161C4810F80690206820FA09F06060DF
:101B900014484068C0F30226174810F806906068A1
:101BA00020FA09F0E0600F484068C0F3C2261348ED
:101BB00010F80690606820FA09F0A06009484068B3
:101BC000C0F3007607484068C0F3813040EA8606DB
:101BD0000B4810F80690A068B0FBF9F0206105B042
:101BE000BDE8F08F00100240006CDC0200127A00A9
:101BF00000093D00D8710008E8710008F071000884
:101C0000F871000810B501460020094B03EB1142A2
:101C1000126801F01F040123A3401A4001F01F04C1
:101C20000123A3409A4200D000E0012010BD000033
:101C30000010024010B501290DD10E4B03EB1042EC
:101C4000126800F01F040123A3401A43094C04EB5F
:101C500010431A600CE0074B03EB1042126800F0CF
:101C60001F040123A3409A43024C04EB10431A6063
:101C700010BD00000010024030B5024600200023D5
:101C800072B9354C646824F48034334D6C60334849
:101C90002C46246B24F0007404F100742C6319E0CA
:101CA0002D4C646824F4803404F580342A4D6C6033
:101CB000012A06D12A482C46646824F400346C605A
:101CC00008E02648244C646824F4003404F5003409
:101CD000214D6C60234CA04204D9234CA04201D278
:101CE000002326E0214CA04204D9214CA04201D27D
:101CF00001231EE01F4CA04204D91F4CA04201D278
:101D0000022316E01C4CA04204D91C4CA04201D274
:101D100003230EE01A4CA04204D91A4CA04201D26F
:101D2000042306E0174CA04203D9174CA04200D26E
:101D30000523094C646861F39544074D6C600D09F7
:101D4000054C646865F35E74034D6C602C46E46A70
:101D500063F31A64EC6230BD0010024000093D00DC
:101D600000127A0060823B00404B4C0080584F00CC
:101D7000105E5F0094357700101B7F0020BCBE0012
:101D8000286BEE0030D73D01D8E9DC011648006829
:101D900020F00100401C1449086000BF1248006890
:101DA000C0F340000028F9D00F48406820F003003D
:101DB0000D49486000BF0C484068C0F3810000280E
:101DC000F9D109480068094908400749086000201E
:101DD000486041F61070C8624FF4801008634FF4F9
:101DE0001F0088607047000000100240FFFFF2FEF5
:101DF0000D49496860F301010B4A516000BF00BF03
:101E000000BF00BF00BF00BF00BF00BF00BF00BFDA
:101E100000BF00BF00BF00BF00BF00BF00BF00BFCA
:101E200000BF00BF70470000001002400248406839
:101E3000C0F381007047000000100240026861F3A7
:101E40000002026070470146486880B270474160F6
:101E500070470000014948607047000000000240E0
:101E6000014600200022044B1A6802EA01030BB16C
:101E7000012000E0002070470000024002684BF69D
:101E8000EF731A40026002680B891A4302604B7CB0
:101E9000026863F30D320260CB7B026863F38B222E
:101EA00002608B7B026863F3092202604B7B02684D
:101EB00063F3C71202600B7B026863F38612026051
:101EC0000B7C026863F3451202604A8942600A682B
:101ED00082604A68C26070471AB103680B430360AE
:101EE00002E003688B430360704700000021026832
:101EF00022F0010202600022026042608260C26041
:101F00000146CAB2083A1423B2FBF3F293000F223F
:101F10009A40034B5B681A43014B5A6070470000BC
:101F20000000024081627047816170470AB181619F
:101F300000E08162704770B50A4600211488A3B2A0
:101F400033E003F001046CB304684E000325B54090
:101F5000AC43046094794D00AC4005682C430460A8
:101F6000446801258D40AC434460446815798D4038
:101F70002C43446084684E000325B540AC43846024
:101F8000D4794D00AC4085682C438460C4684E0011
:101F90000325B540AC43C46054794D00AC40C568DE
:101FA0002C43C4605B104C1CA1B2002BC9DC70BD7B
:101FB0000246002013690B408B4200D000E0012054
:101FC00070470246002053690B400BB1012000E02E
:101FD00000207047F0B5002300244D07ED0E02FAF3
:101FE00005F3CD105DB1456A4E07F70E0F26BE40D2
:101FF000B5434562456A45EA030444620AE0056A5E
:102000004E07F70E0F26BE40B5430562056A45EA46
:1020100003040462F0BD00001CB5044633480621E9
:1020200000234022CDE9001031A1344804F080FDA6
:102030003348062100234022CDE9001031A1344865
:1020400004F076FD3348052100234022CDE900103D
:1020500031A1344804F06CFD33480721002380226D
:10206000CDE9001031A1344804F062FD3348042169
:1020700000234022CDE9001031A1344804F058FD7E
:102080003348032100234022CDE9001031A1344818
:1020900004F04EFD3348062100234022CDE9001014
:1020A00031A1344804F044FD334804210023402288
:1020B000CDE9001031A1344804F03AFD334806213F
:1020C00000234022CDE9001031A1344804F030FD56
:1020D0003348022100234022CDE9001031A13448C9
:1020E00004F026FD002003F001FF1CBD700000205D
:1020F0006164635F7461736B0000000089160008FF
:1021000090000020626565705F7461736B00000071
:10211000791800089C0000206B65795F7461736B0F
:1021200000000000AD250008AC0100206C63645F76
:102130007461736B000000001D370008C0010020AF
:102140006C65645F7461736B00000000D13D000832
:10215000C401002070776D5F7461736B0000000034
:10216000ED490008CC01002072733438355F74618A
:10217000736B00009D4C0008D401002073657276DB
:102180006F5F7461736B000061500008EC01002008
:1021900075736172745F7461736B0000B55B0008E6
:1021A000F40100207773323831325F7461736B0051
:1021B0007D63000810B5044604B910BD204603F045
:1021C00067FE00BFF9E700000421024880F82410F0
:1021D00070470000F02B00200021024880F82410F6
:1021E00070470000F02B00200021024880F82410E6
:1021F00070470000F02B002070B504462CB1206819
:1022000018B1606808B1A06800B970BD207B1E4994
:102210000870002526E0A068006810F835001A490B
:10222000097888421CD1A068006800EBC50040789E
:10223000A1688979884213D1A068006800EBC500C5
:102240008078A1688871A068006800EBC5004068CC
:1022500028B1A168096801EBC5014868804705E01D
:10226000681C85B2A0688088A842D4DC00BF207BAF
:1022700005490978884205D103480078042801D02F
:102280000020207300BFC0E79800002008B101B112
:1022900002B970470023036043600160828083714C
:1022A00000BFF6E71CB5114903C9CDE90001694635
:1022B0000F48FFF740FE8020009069460C48FFF76A
:1022C0003AFE0420009069460A48FFF734FE4FF4B6
:1022D0000060009069460748FFF72DFE4FF48060CC
:1022E000009069460348FFF726FE1CBD28720008CF
:1022F000001400480004004810B500B101B910BD39
:10230000002404604460846001604260037200BF86
:10231000F5E710B5FFF7C6FF00F0DEF910BD0000CD
:1023200010B504462CB1206818B1606808B1A068E7
:1023300000B910BDA07C78B1E089401C80B2E0817A
:10234000218A884208DB0020A074E08103202073EA
:10235000C8210248FFF77BFA00BFEAE7782B00208C
:102360000948407801280AD108480078002805DD8E
:1023700006480078401E0549087000E000BF0421AF
:10238000034880F83C107047BA010020E8010020A3
:10239000F02B00200021024880F83C10704700001C
:1023A000F02B00200948407801280AD1084800781D
:1023B000002805DD06480078401E0549087000E049
:1023C00000BF0021034880F83C107047BA0100208C
:1023D000E8010020F02B00200548007818B9012002
:1023E0000349087002E000200149087070470000AE
:1023F000BA0100200021024880F86C1070470000EC
:10240000F02B00200948007858B908484078401C53
:10241000C0B2064948708978884202DB002003492F
:1024200048700021024880F86C107047BA01002003
:10243000F02B00202DE9F04104460D4617461E46BC
:10244000DDF8188024B11DB116B1B8F1000F01D12B
:10245000BDE8F08118212046FDF7ECFE256067609D
:10246000A66000202073A4F8108000BFF0E70000F1
:102470000948407801280AD108480078B42805DACC
:1024800006480078401C0549087000E000BF0421A0
:10249000034880F854107047BA010020E80100207A
:1024A000F02B00200021024880F8541070470000F3
:1024B000F02B00200948407801280AD1084800780C
:1024C000B42805DA06480078401C0549087000E089
:1024D00000BF0021034880F854107047BA01002063
:1024E000E8010020F02B002010B504462CB1206834
:1024F00018B1606808B1A06800B910BDE07C20BBCD
:102500002268928891B222681068FFF751FD216815
:10251000097A884219D10F20FFF74CFE2268928871
:1025200091B222681068FFF743FD2168097A88425A
:1025300026D10120E0740020E0810120A074204613
:1025400000F0EEF8022020731AE0E07CC0B12268AF
:10255000928891B222681068FFF72AFD2168097AF3
:1025600088420DD00020E074A074E0810120207327
:10257000A0688079022803D132210A48FFF767F961
:10258000207DE17C88420BD00748806830B1064945
:1025900000231A468868194604F00CF9E07C20757F
:1025A00000BFAAE7782B0020982C002008B5002354
:1025B000402240494048FFF79FFE002380223D49CA
:1025C0003D480C30FFF798FE002304223B493A486F
:1025D0001830FFF791FE00234FF400623749364868
:1025E0002430FFF789FE00234FF4806233493248DC
:1025F0003030FFF781FE00241DE0314A52F82410EC
:10260000304A02EBC4000622FFF740FE40F2DC50E5
:102610002C4A02EBC40304EB4402274D05EB820174
:1026200004EB4402284D009005EBC200274AFFF757
:1026300001FF601CC4B2052CDFDB3AE000240FE090
:1026400004EB4401204A02EBC100FFF74DFF04EB0D
:1026500044011D4A02EBC100FFF7CEFD601CC4B26D
:10266000052CEDDB00201A4908700EE018480078B0
:1026700000EB4000144901EBC000C07C00B108E051
:1026800013480078401C124908701148007805284A
:10269000ECDB00BF0E480078052802D10A4800F0A4
:1026A00050F8002003F008FB0A4908600A2003F0F4
:1026B000EFFBC3E7001400488C2B00200004004807
:1026C00098010020C82B0020F02B00200040014082
:1026D000A4000020A000002010B5772240F2E731CE
:1026E0000E4802F02BFF00210C4802F05AFF012196
:1026F0000A4803F07AF80121084802F066FF012237
:102700001146064802F064FF00220121142001F066
:1027100091FC0021014802F04EFF10BD0040014035
:1027200010B504460CB1606800B910BD606800685F
:1027300000F0010018B90121606802F03CFF00BF01
:10274000F3E710B504460CB1606800B910BD6068CD
:10275000006800F0010038B10021606802F02BFF32
:102760000021606802F02CFF00BFEFE70420014960
:1027700008737047F02B0020002001490873704750
:10278000F02B00200020014908737047F02B002037
:1027900010B504460CB1206800B910BD2268928DB6
:1027A00091B222685069FFF7BDFB00BFF5E710B595
:1027B00004460CB1206800B910BD2268928D91B218
:1027C00022685069FFF7B0FB00BFF5E77CB504460F
:1027D0000D461CB1206808B1606800B97CBDE08975
:1027E000401E80B2CDE90005A089401E83B20022C0
:1027F0001146204600F047F800BFEFE710B5044649
:102800000CB1206800B910BD2268128C91B2226808
:102810009068FFF789FB00BFF5E710B504460CB1DF
:10282000206800B910BD2268128C91B222689068AD
:10283000FFF778FB00BFF5E710B504460CB1206840
:1028400000B910BD2268928C91B22268D068FFF75F
:1028500069FB00BFF5E710B504460CB1206800B96C
:1028600010BD2268928C91B22268D068FFF75CFBA1
:1028700000BFF5E710B5044604B910BD204603F0CB
:1028800007FB00BFF9E72DE9F84F04460F469046D5
:102890001D46DDE90A6B6CB1206858B1606848B12B
:1028A000AF4207DCB04505DCA089A84202DDE08923
:1028B000B04201DCBDE8F88F2B464246394620463F
:1028C000009600F082FC2046FFF7A7FF2046FFF7A6
:1028D000C2FFB9460FE0C24607E05946204602F063
:1028E000F1FA0AF101001FFA80FAB245F5DD09F1AB
:1028F00001001FFA80F9A945EDDD2046FFF77EFFB4
:1029000000BFD7E71CB5234903C9CDE900016946DB
:102910002148FFF710FB002205211F48FFF75AFB53
:102920000820009069461C48FFF705FB00220321A0
:102930001948FFF74FFB01208DF80600C0030090F7
:1029400069464FF09040FFF7F6FA4FF400414FF020
:102950009040FFF7E9FA1020009069460E48FFF713
:10296000EAFA10210C48FFF7DFFA40200090694690
:102970000948FFF7E0FA40210748FFF7D5FA802021
:10298000009069460448FFF7D6FA80210248FFF715
:10299000C9FA1CBD30A00008000400482DE9F04F22
:1029A00009AC94E8F010DDE910ABDDE90E8908B957
:1029B000BDE8F08F016042608360C46005614661DC
:1029C0008761C0F81CC0C0F82080C0F82490C0F80F
:1029D00028A0C0F82CB000BFEAE710B5FFF792FFBF
:1029E00000F08AFE10BD2DE9F04704460D4616465C
:1029F0001F46DDE908890CB105B10EB9BDE8F087C5
:102A00002560666003220021012003F031FEA060F2
:102A1000A781A4F80E8084F8109000BFEEE710B5EF
:102A200004461CB1206808B1606800B910BD20469A
:102A3000FFF7AEFEFE21204602F02CFAEF212046E1
:102A400002F028FA8021204602F024FAFF212046D5
:102A500002F04BFA8121204602F01CFAFF212046A9
:102A600002F043FA8221204602F014FAFF212046A8
:102A700002F03BFA8321204602F00CFAFF212046A7
:102A800002F033FA8421204602F004FAFF212046A6
:102A900002F02BFA8521204602F0FCF9FF212046A6
:102AA00002F023FA8621204602F0F4F9FF212046A5
:102AB00002F01BFA8721204602F0ECF9FF212046A4
:102AC00002F013FA8821204602F0E4F9FF212046A3
:102AD00002F00BFA8921204602F0DCF9FF212046A2
:102AE00002F003FA8A21204602F0D4F9FF212046A1
:102AF00002F0FBF98B21204602F0CCF9FF212046A1
:102B000002F0F3F98C21204602F0C4F9FF2120469F
:102B100002F0EBF98D21204602F0BCF9FF2120469E
:102B200002F0E3F98E21204602F0B4F9FF2120469D
:102B300002F0DBF98F21204602F0ACF9FF2120469C
:102B400002F0D3F93A21204602F0A4F905212046EB
:102B500002F0CBF9EC21204602F09CF9112120462D
:102B600002F0C3F97E21204602F094F97A21204632
:102B700002F0BBF97421204602F08CF902212046B4
:102B800002F0B3F90E21204602F0AFF900212046F1
:102B900002F0ABF90021204602F0A7F928212046D7
:102BA00002F0A3F90021204602F09FF900212046FF
:102BB00002F09BF99821204602F06CF93E21204654
:102BC00002F093F99921204602F064F93E21204653
:102BD00002F08BF9B521204602F05CF90E21204667
:102BE00002F083F90E21204602F07FF96021204691
:102BF00002F050F93821204602F077F909212046E9
:102C000002F073F96D21204602F06FF9672120462A
:102C100002F06BF96321204602F03CF9382120468E
:102C200002F063F9AD21204602F05FF96D212046E4
:102C300002F05BF96721204602F057F90521204692
:102C400002F053F96421204602F024F9382120468D
:102C500002F04BF90B21204602F047F97021204683
:102C600002F043F9AB21204602F03FF96D212046E6
:102C700002F03BF96721204602F037F96621204631
:102C800002F008F93821204602F02FF90F212046E2
:102C900002F02BF97021204602F027F9AF212046DF
:102CA00002F023F96D21204602F01FF9672120462A
:102CB00002F01BF96A21204602F0ECF800212046C0
:102CC00002F013F90021204602F00FF96821204696
:102CD00002F0E0F83B21204602F007F908212046E7
:102CE00002F003F90421204602F0FFF800212046FB
:102CF00002F0FBF80421204602F0F7F86421204698
:102D000002F0F3F86721204602F0EFF86C2120462C
:102D100002F0C0F82221204602F0E7F80221204606
:102D200002F0E3F82221204602F0DFF802212046DB
:102D300002F0DBF82221204602F0D7F822212046BB
:102D400002F0D3F85021204602F0CFF86E21204641
:102D500002F0A0F80021204602F0C7F8002120462A
:102D600002F0C3F80021204602F0BFF800212046FF
:102D700002F0BBF80721204602F0B7F801212046F7
:102D800002F0B3F81321204602F0AFF811212046DB
:102D900002F0ABF80B21204602F0A7F809212046EB
:102DA00002F0A3F81621204602F09FF815212046D4
:102DB00002F09BF81D21204602F097F81E212046C4
:102DC00002F093F80021204602F08FF800212046FF
:102DD00002F08BF80021204602F087F800212046FF
:102DE00002F083F81E21204602F07FF81D212046C4
:102DF00002F07BF81521204602F077F816212046D4
:102E000002F073F80A21204602F06FF80C212046E8
:102E100002F06BF81221204602F067F814212046D8
:102E200002F063F80221204602F05FF808212046F4
:102E300002F05BF80021204602F057F800212046FE
:102E400002F053F80021204602F04FF800212046FE
:102E500002F04BF8A921204602F01CF81B21204665
:102E600002F043F8A821204602F014F86B21204616
:102E700002F03BF8A821204602F00CF86D21204614
:102E800002F033F8A721204602F004F84021204642
:102E900002F02BF8AD21204601F0FCFF472120462F
:102EA00002F023F8AF21204601F0F4FF7321204601
:102EB00002F01BF8AF21204601F0ECFF7321204601
:102EC00002F013F8AC21204601F0E4FF4421204633
:102ED00002F00BF8A321204601F0DCFF6C21204614
:102EE00002F003F8CB21204601F0D4FF0021204658
:102EF00001F0FBFFCD21204601F0CCFF222120462E
:102F000001F0F3FFC221204601F0C4FF102120464A
:102F100001F0EBFFC521204601F0BCFF0021204657
:102F200001F0E3FFC621204601F0B4FF0E21204648
:102F300001F0DBFFC721204601F0ACFF1F21204636
:102F400001F0D3FFC821204601F0A4FF0E21204646
:102F500001F0CBFFBF21204601F09CFF002120465D
:102F600001F0C3FFF921204601F094FF2021204603
:102F700001F0BBFF9B21204601F08CFF3B21204646
:102F800001F0B3FF9321204601F084FF3321204656
:102F900001F0ABFF7F21204601F0A7FF0021204672
:102FA00001F0A3FF7021204601F074FF0E2120469E
:102FB00001F09BFF0F21204601F097FF03212046DF
:102FC00001F093FF0E21204601F08FFF0F212046D4
:102FD00001F08BFF0321204601F087FF712120467D
:102FE00001F058FF0E21204601F07FFF16212046F8
:102FF00001F07BFF0321204601F077FF912120465D
:1030000001F048FF0E21204601F06FFF0921204604
:1030100001F06BFFC321204601F03CFF2C2120462C
:1030200001F063FFC421204601F034FF1A2120463D
:1030300001F05BFFF021204601F02CFF51212046DA
:1030400001F053FF1321204601F04FFF0C212046D1
:1030500001F04BFF0621204601F047FF00212046EA
:1030600001F043FF2F21204601F03FFFF2212046CF
:1030700001F010FF5121204601F037FF13212046B7
:1030800001F033FF0C21204601F02FFF06212046DE
:1030900001F02BFF0021204601F027FF33212046BD
:1030A00001F023FFF121204601F0F4FE3C212046EF
:1030B00001F01BFF9421204601F017FF4F2120460D
:1030C00001F013FF3321204601F00FFF3421204689
:1030D00001F00BFFCF21204601F007FFF32120462E
:1030E00001F0D8FE4D21204601F0FFFE942120463C
:1030F00001F0FBFE4F21204601F0F7FE3321204670
:1031000001F0F3FE3421204601F0EFFECF212046EE
:1031100001F0EBFE3621204601F0BCFE207C08B910
:10312000002000E0C0200146204601F0DEFE112113
:10313000204601F0AFFEC820FFF79CFB2921204666
:1031400001F0A8FE2C21204601F0A4FE2046FFF746
:103150002EFB00BF6AE410B504460CB1206800B92C
:1031600010BD2268128D91B222681069FEF7DCFE54
:1031700000BFF5E710B504460CB1206800B910BDDA
:103180002268128D91B222681069FEF7CBFE00BF53
:10319000F5E710B504461CB1206808B1606800B9B5
:1031A00010BD2046FFF7D7FF0A20FFF763FB20463C
:1031B000FFF7E0FF0A20FFF75DFB2046FFF7CBFF9C
:1031C0006420FFF757FB00BFEAE72DE9F041044612
:1031D0000E4617461D46DDF818806CB1206858B1C0
:1031E000606848B1AE4207DC474505DCA089A842CB
:1031F00002DDE089404501DCBDE8F0812A2120465E
:1032000001F048FE390A204601F06FFEF9B220466F
:1032100001F06BFE4FEA1821204601F066FE08F02F
:10322000FF01204601F061FE2B21204601F032FE15
:10323000A089401B401EC0F30721204601F055FE27
:10324000207B401B401EC1B2204601F04EFEA089EB
:10325000801B401EC0F30721204601F046FE207B64
:10326000801B401EC1B2204601F03FFE2C212046AB
:1032700001F010FE00BFBFE72DE9FF4F83B0044609
:1032800099460025002700200290DDF81080059E59
:1032900074B1206860B1606850B1119840B1B9F163
:1032A0007F0F05DCA089404502DDE089B04202DCE9
:1032B00007B0BDE8F08F1098052813D2DFE800F0C2
:1032C0000306090C0F00082510270EE01025102713
:1032D0000BE01025182708E01025202705E0182509
:1032E000202702E00825102700BF00BF08EB0500DB
:1032F000A189884203DD4FF00008F01986B2F01969
:10330000E189884200DD0026F019401E80B200905D
:1033100008EB0500401E83B2324641462046FFF7C7
:1033200054FF2046FFF779FA2046FFF794FA284623
:10333000E91705EB5171C910794389B202914FF039
:10334000000A1EE04FF0000B14E0029809FB00A2F7
:103350001198805C40FA0BF000F0010008B112985F
:1033600000E013980146204601F0ACFD0BF101008E
:1033700000F0FF0BBBF1080FE7DB0AF101001FFAB9
:1033800080FA02988245DDDB2046FFF737FA00BF5E
:103390008EE72DE9FF4F8BB004468946DDE91B8A95
:1033A0004FF0000B00200A904E460D9F142105A8F7
:1033B000FCF740FF05AD64B1206850B1606840B1D2
:1033C000BAF1000F05D0A089B04202DDE089B84211
:1033D00002DC0FB0BDE8F08FB8F1050F1DD2DFE8B9
:1033E00008F003080D1217004FF0080B10200A9088
:1033F00018E04FF0100B10200A9013E04FF0100B64
:1034000018200A900EE04FF0100B20200A9009E0DF
:103410004FF0180B20200A9004E04FF0080B10200A
:103420000A9000BF00BF05A8DDE918231A99FDF72F
:10343000A9FA28E006EB0B00A02803DD00260A9875
:10344000384487B20A983844282800DD0027DDE98F
:103450001D10CDE9008ACDE902102878202801D17D
:10346000002006E028782E2801D1012001E02878EC
:103470002E38C3B23A4631462046FFF7FDFE06EB32
:103480000B0086B26D1C28780028D3D100BFA0E7BE
:103490002DE9FF4F8BB004468946DDE9198A4FF0CC
:1034A000000B00200A904D460D9E142105A8FCF744
:1034B000C1FE05AF64B1206850B1606840B1BAF197
:1034C000000F05D0A089A84202DDE089B04202DCED
:1034D0000FB0BDE8F08FB8F1050F1DD2DFE808F09E
:1034E00003080D1217004FF0080B10200A9018E087
:1034F0004FF0100B10200A9013E04FF0100B182023
:103500000A900EE04FF0100B20200A9009E04FF0D7
:10351000180B20200A9004E04FF0080B10200A90AE
:1035200000BF00BF05A80E9A1899FDF72BFA23E0FB
:1035300005EB0B00A02803DD00250A98304486B275
:103540000A983044282800DD0026DDE91B10CDE96B
:10355000008ACDE902103878202801D1002001E04E
:1035600038782E38C3B2324629462046FFF784FE0B
:1035700005EB0B0085B27F1C38780028D8D100BF3E
:10358000A6E72DE9F84F04460E4617469846DDE9B2
:103590000B9BDDF828A0B4B12068A0B1606890B1A1
:1035A000B9F1000F0FD0A089B0420CDDE089B8421C
:1035B00009DD06EB0800A189884204DC07EB0A005C
:1035C000E189884201DDBDE8F88F07EB0A00401E63
:1035D00080B2009006EB0800401E83B23A463146A6
:1035E0002046FFF7F2FD2046FFF717F92046FFF7C8
:1035F00032F900250DE0012000EB450019F800002C
:1036000019F8152040EA0221204601F05BFC681CF5
:1036100085B20BEBDB71B5EB610FECDB2046FFF7FE
:10362000EDF800BFCFE72DE9F04F87B0044689469B
:1036300092461D46DDE9108B0020069005904E460F
:1036400057466CB1206858B1606848B1BBF1000FB3
:1036500006D02DB1A089B04202DDE089B84202DC7B
:1036600007B0BDE8F08FB8F1050F1CD2DFE808F015
:1036700003080C111600082006901020059017E092
:1036800010200690059013E0102006901820059059
:103690000EE0102006902020059009E018200690EA
:1036A0002020059004E0082006901020059000BF1F
:1036B00000BF1CE006983044A02803DD00260598D2
:1036C000384487B205983844282800DD0027DDE912
:1036D0001210CDE9008BCDE9021015F8013B3A46F6
:1036E00031462046FFF7C8FD0698304486B2287858
:1036F0000028DFD100BFB3E71CB5064903C9CDE9F7
:1037000000016946044801F030FD0121024801F042
:103710001DFD1CBD38A00008003001408AB080208B
:10372000402110220302CDE90532CDE9071008201F
:103730002021FE4A0192CDE902214FF0904311462B
:1037400000920490FA48FFF729F900202821A023CD
:10375000F84ACDE90010F649F748FFF744F9F64872
:10376000FFF717FDF448FFF75AF90021F248FFF779
:103770002DF841F23060F14928224723CDE900219C
:10378000029000222D21EC48FFF7FBFE4FF4FA6077
:1037900002F07EFB0021E848FFF718F821E2E64836
:1037A000806800287ED0E44880684FF0FF3109909F
:1037B00003F0C0F8012875D1E1484078E149097863
:1037C00088420AD00021DC48FFF700F8DC48407846
:1037D000DC4908706420DC490870D9480078DB496E
:1037E000097888420DD00021D348FEF7EFFFD44876
:1037F0000078D64908706420D34908700020D44965
:103800000870CF480078002873D14FF62051D14A74
:10381000CDE90002CDE90210CF48C07C08B15520A7
:1038200000E020200346182278210990C248FFF7C3
:1038300023FD00204FF62051C64ACDE90002CDE914
:103840000210C54890F82B0008B1442000E0202069
:103850000346182280210990B748FFF70DFD00208C
:103860004FF62051BB4ACDE90002CDE90210BA481B
:1038700090F8430008B14C2000E0202003461822B5
:1038800088210990AC48FFF7F7FC00204FF6205143
:10389000B04ACDE90002CDE90210AF4890F87300BC
:1038A00018B100E095E14D2000E0202003461822E9
:1038B00090210990A048FFF7DFFC00204FF620512F
:1038C000A44ACDE90002CDE90210A34890F85B00BC
:1038D00008B1522000E020200346182298210990C8
:1038E0009548FFF7C9FC9648407818B101287DD16A
:1038F000FEE06DE194480078401CC0B29249087027
:10390000642874DB002008709148007820B10128F9
:1039100059D002286CD19CE09048008E90490880D4
:10392000002040F2FF718B4ACDE900028DA30246D0
:10393000CDE9021080218048FFF775FE00204FF688
:10394000E0718A4A0123CDE90132CDE9031088A054
:10395000009083480388002211467748FFF798FDBE
:103960004FF6FF7015215F231422CDE900100021CE
:103970007148FEF788FF7A480088FCF7EEFD4FF0AB
:1039800066327D4BCDE90401FCF706FD00227B4B3E
:10399000CDE90601FCF772FDCDE9080100204FF6E4
:1039A000E071724A0123CDE90332CDE9051074A01C
:1039B0000290DDE908011822CDE9000100215E48EE
:1039C000FFF7E7FC88E0002040F2FF71614ACDE993
:1039D00000026DA30246CDE9021080215648FFF790
:1039E00022FE00204FF6E071604A02E0EEE07EE049
:1039F00071E00123CDE90132CDE903105CA0009014
:103A00005648408E03460022114609904A48FFF767
:103A10003FFD4FF6FF7015215F231422CDE9001002
:103A200000214548FEF72FFF00204FF6E0714F4A76
:103A30000123CDE90332CDE9051055A00290564887
:103A400003C81822CDE9000100213B48FFF7A1FC83
:103A500042E0002040F2FF713E4ACDE900024FA350
:103A60000246CDE9021080213348FFF7DCFD00203B
:103A70004FF6E0713D4A0123CDE90132CDE9031053
:103A80003BA000903548808E0346002211460990E5
:103A90002948FFF7FDFC4FF6FF7015215F23142224
:103AA000CDE9001000212448FEF7EDFE00204FF67E
:103AB000E0712E4A0123CDE90332CDE9051030A093
:103AC0000290384803C81822CDE9000100211A48A5
:103AD000FFF75FFC00E000BF00BF1D480078401CFE
:103AE000C0B21B490870032801DB002008706EE09B
:103AF00000204FF61F01174ACDE900022AA3024613
:103B0000CDE9021078210C48FFF78DFD002040F22E
:103B1000FF71274A0423CDE90132CDE9031025A026
:103B20000090264880790346042249E000040048BA
:103B3000682C002000300140982C002040A0000894
:103B4000BA010020B8010020B6010020B901002010
:103B5000B701002030720008F02B00203C2B002021
:103B6000B40100202041444300000000309A0008C6
:103B7000252D36750000000066660A4000FEAF4045
:103B8000252D362E346C660054656D7000000000E3
:103B9000252D362E316C6600800000205672656639
:103BA0000000000088000020536572766F0000005E
:103BB000B09B0008252D337500000000E0010020B7
:103BC000002109900748FFF763FC00E000BF00E018
:103BD00000BF002002F070F8034908600A2002F0DC
:103BE00057F9DCE5982C0020B00100207CB5054693
:103BF0000C4605B97CBD054903C9CDE90001009417
:103C000069462846FEF797F900BFF3E788B6000833
:103C10002DE9FC4107460C4615461E460FB9BDE886
:103C2000FC81084903C9CDE9000100946946384682
:103C3000FEF781F9324629463846FEF7CBF900BF38
:103C4000EDE7000080B600081CB50F4903C9CDE9B7
:103C5000000169464FF09040FEF76DF905220721FB
:103C60004FF09040FEF7B6F901208DF80600009065
:103C700069464FF09040FEF75EF901214FF0904009
:103C8000FEF750F91CBD000070B6000810B5FFF734
:103C9000DBFF00F0E9F810BD2DE9F05F04460D46AA
:103CA00016461F46DDE90CABDDE90A9804B10DB9F3
:103CB000BDE8F09F24212046FCF7BCFA2560666031
:103CC000277284F80990C4F80C80A4F814A0A4F812
:103CD00010B00E9860820F9820830120A076119872
:103CE000E07612982077B8F1000F01D0002000E0B4
:103CF0000220A07700206077109884F8200000BF91
:103D0000D6E710B5044624B1206810B1A07F022880
:103D100000D010BD94F820300BB9012300E000233F
:103D20001A46A38899B22068FEF700F900BFF0E7B1
:103D300028B102681AB1C2680AB1642900DA704772
:103D4000018300BFFBE748B102683AB1C2682AB1FB
:103D5000C27E8A4202DC027F8A4200DA70478176A4
:103D600000BFFBE770B504460D461CB1206808B1E2
:103D7000E06800B970BD25B1012D10D0022D22D10F
:103D800019E0637A227AD4E90001FFF741FF218A22
:103D9000E06801F032FD204600F0F2F814E0D4E9CA
:103DA0000001FFF723FF618AE06801F026FD20464D
:103DB00000F0E6F808E0D4E90001FFF717FF20461D
:103DC00000F0EFF800E000BF00BFA57700BFD1E72B
:103DD0008AB01420012100224FF4FA73CDE9053294
:103DE000CDE9071040F2E73041F287311B4BCDE9B6
:103DF0000131CDE903100520072380224FF09041C7
:103E000000901748FFF748FF14211548FFF79BFF64
:103E10004FF496711248FFF78BFF00211048FFF70F
:103E2000A1FF002005900690079008900190029055
:103E300003900490034601224FF0904100900948FE
:103E4000FFF72AFF02210748FFF78CFF0548FFF71D
:103E500058FF02E00A2002F01BF8FBE7004801408F
:103E6000AC2C0020D02C00201CB51C4903C9CDE986
:103E70000001772241F28731194801F05FFB0021F0
:103E8000174801F08EFB0121154801F0AEFC6A468F
:103E90000021134801F0D4FB41F287320021104881
:103EA00001F06BFB012200210D4801F0A8FB01216C
:103EB0000B4801F08AFB01221146094801F088FBFA
:103EC00000220121162000F0B5F80121044801F07C
:103ED00087FC0121024801F06EFB1CBD78B600088A
:103EE0000048014010B50446A07F98BB0020E08246
:103EF000607FB8B9A08AA17E084441F28731884228
:103F000004DCA08AA17E0844A0821DE0A08A41F2C0
:103F10008731884203DAA08A401CA08214E0012085
:103F2000607711E0A08AA17E884204DBA08AA17E8E
:103F3000401AA08208E0A08A002803DDA08A401E63
:103F4000A08201E000206077A28A00210B4801F0E6
:103F500014FB12E0FFE7A07F01280ED10020A08211
:103F60006077E08A401C80B2E082218B884204DBCB
:103F70000020E082204600F029F810BD00480140F2
:103F800010B504460CB1E06800B910BDE0680068E7
:103F900000F0010018B90121E06801F00CFB00BF3E
:103FA000F3E710B504460CB1E06800B910BDE06855
:103FB000006800F0010038B10021E06801F0FBFA70
:103FC0000021E06801F0FCFA00BFEFE770B504469D
:103FD0001CB1206808B1A07F00B970BDA28891B261
:103FE0002068FDF7EEFF08B9012000E0002005463B
:103FF000A28891B22A462068FDF798FF00BFECE73F
:104000001CB501F025FA0020012103464022CDE92C
:10401000001004A1064802F08BFD02F09FF800207A
:104020001CBD0000696E69745F7461736B000000F1
:10403000192000082DE9F0470B4614464FF0000CFC
:1040400000BF2C4A1268C2F302211D4626460A46CA
:10405000C2F10709B9F1040F02D94FF0040901E0D8
:10406000C2F10709C84602F10409B9F1070F02D2EB
:104070004FF0000901E0A2F103094F464FF001099A
:1040800009FA08F9A9F1010909EA050909FA07F984
:104090004FF0010A0AFA07FAAAF1010A0AEA060A27
:1040A00049EA0A09CC4601466246002904DB1507A5
:1040B0002E0E114D6E5407E015072F0E0D4D0C35C9
:1040C00001F00F06361FAF5500BF014600290DDB7A
:1040D00000BF00BF01F01F050122AA404D09AD003D
:1040E00005F1E025C5F8002100BF00BF00BFBDE815
:1040F000F08700000CED00E000E400E000BF00F0FD
:104100000702064B19684FF6FF031940044B0B4397
:1041100043EA0221014B196000BF70470CED00E03B
:104120000000FA052DE9F04105460E4626480768CD
:1041300026480068001D01F0ABFD50B92348006817
:1041400090F82C10012088402149096881432048BB
:104150000160681CD8B9D6B11E4948681B49096876
:1041600088601A4982680968CA6018490968091D87
:104170008268516015490968091D8160154A134913
:1041800009684A6111460968491C11601AE07C19E6
:104190000E4800684460BC4207D20C480168091D03
:1041A0000D48006801F0ACFD0CE008480168091DED
:1041B0000A48006801F0A4FD09480068844201D261
:1041C00007480460BDE8F081400000202C0000207A
:1041D00044000020282B0020340000203000002064
:1041E0005C00002010B5044601F0B0FD2F480068C7
:1041F000401C2E4908602E48006840B92C480460D5
:104200000846006801280DD100F09AF90AE0294813
:10421000006838B926480068C06AE16A884201D857
:104220002348046024480068401C2349086094F82F
:104230002C10012088402149096808431F49086063
:10424000E16A01EB81011E4A02EB81014868A0602E
:104250008268E260211D826851608160E16A01EB41
:104260008101174A02EB81026261E16A01EB81017F
:10427000134A52F82110491CE26A02EB8202104BE9
:1042800043F8221001F08CFD0A48006868B1084824
:104290000068C06AE16A884207D24FF0805009493D
:1042A0000860BFF34F8FBFF36F8F10BD3C0000203D
:1042B0002C0000204800002058000020440000206E
:1042C000102A002004ED00E010B516E001F03EFDDC
:1042D0000C48C068C468201D01F0DAFC0A48006878
:1042E000401E0949086009480068401E07490860E7
:1042F00001F056FD204600F04AF804480068002806
:10430000E4D110BD142B00203C0000203800002018
:104310002DE9F04104460F4615464FF00008A66B04
:10432000206C48B9206800282CD1A06802F012FD4A
:1043300080460020A06025E07DB93946226C606887
:10434000FBF75FFF216C606808446060D4E90101FD
:10435000884217D32068606014E03946226CE06818
:10436000FBF74FFF216CE068411AE1602168E068CB
:10437000884203D2216CA068411AE160022D01D16C
:1043800006B1761E701CA0634046BDE8F08110B5F2
:104390000446206B01F022FD204601F01FFD10BDF8
:1043A00001464A6A22B10A6B1268C2F10A0000E0B3
:1043B0000020704730B54FF42053154800F0070433
:1043C0002CB1C01D20F00700114C041B1B1B024622
:1043D000104C226000240F4D6C60D018083820F07B
:1043E00007000D4C206000240B4D2D686C600A4DB9
:1043F0002D682C601146441A4C60074C24680C60F0
:10440000064D4C682C60064D4C682C6030BD000099
:1044100010020020040000200C00002014000020E6
:104420001000002000BFFFF74FFF0648006801287A
:10443000F9D94FF0805004490860BFF34F8FBFF3A4
:104440006F8FF0E7102A002004ED00E02DE9F04125
:1044500006460D4617469846069C0DB9246000E0B6
:104460002760E66325640121204602F035F9BDE8A6
:10447000F0812DE9F05F82460F4690469B460A9EEA
:104480000C9C4FEA8801A522206BFBF7CCFEA8F11B
:104490000100216B01EB800929F0070909F00700F1
:1044A00008B9012000E0002050B900BFBF2080F310
:1044B0001188BFF34F8FBFF36F8F00BF00BFFEE7C0
:1044C0007FB1002507E0795D04F134004155785D46
:1044D00000B902E06D1C0C2DF5D300BF00213F2078
:1044E00001550A2E01D2012000E0002050B900BF82
:1044F000BF2080F31188BFF34F8FBFF36F8F00BFD2
:1045000000BFFEE70A2E00D30926E6622664201DBE
:1045100001F0F3FB04F1180001F0EFFB2461C6F198
:104520000A00A06164625A465146484600F0A8FA63
:1045300020600B9808B10B980460BDE8F09F000064
:1045400010B5002407E004EB84010F4A02EB810060
:1045500001F0C6FB641C0A2CF5D30C4801F0C0FB2B
:104560000B4801F0BDFB0B4801F0BAFB0A4801F013
:10457000B7FB0A4801F0B4FB044809490860044845
:104580000849086010BD0000102A0020D82A002029
:10459000EC2A0020002B0020142B0020282B0020C8
:1045A000300000203400002010B50146164800E01D
:1045B000006803688B42FBD30246436813448B4276
:1045C00004D143684C682344436001460A464B6863
:1045D00013440468A34211D10C4C03682468A3421D
:1045E00008D04B680468646823444B6003681B6808
:1045F0000B6005E0054B1B680B6001E003680B6076
:10460000884200D0016010BD040000200C00002092
:1046100070B5054601F09AFBA86B08B9012400E0CB
:10462000002401F0BDFB204670BD70B5054601F0C9
:104630008DFBA86BE96B884201D1012400E00024C6
:1046400001F0AEFB204670BD09480068006808B95B
:10465000012000E0002020B14FF0FF300549086044
:1046600005E003480068C0680068024908607047B8
:10467000300000205C0000200246002101E0521CB6
:10468000491C1078A528FAD0890888B27047000024
:104690000E480068401C08B9012000E0002050B915
:1046A00000BFBF2080F31188BFF34F8FBFF36F8F20
:1046B00000BF00BFFEE700BFBF2080F31188BFF33B
:1046C0004F8FBFF36F8F00BF00BFFEE720000020B9
:1046D00070B5044601F03AFB94F9455010E0606A69
:1046E00008B9012000E0002038B904F1240002F0EC
:1046F0001FFC18B101F084FC00E003E0681E45B225
:10470000002DECDC00BFFF2084F8450001F048FBE1
:1047100001F01CFB94F9445010E0206908B9012015
:1047200000E0002048B904F1100002F001FC08B1DB
:1047300001F066FC681E45B200E001E0002DECDCF3
:1047400000BFFF2084F8440001F02AFB70BD000088
:104750002DE9F04705464FF0000901F047FD4248BA
:10476000006808B9FFF726FE75B105F00700C0F133
:104770001008C8F1FF30A84201D2012000E000205B
:1047800008B9454400E00025012000EBE570002851
:1047900053D0002D51D03548006885424DD8344E55
:1047A0003046046801E0264624686068A84202D2C8
:1047B00020680028F7D12C48006884423DD030683A
:1047C00000F10809206830606068401B102819D982
:1047D000671907F0070008B9012000E0002050B970
:1047E00000BFBF2080F31188BFF34F8FBFF36F8FDF
:1047F00000BF00BFFEE76068401B78606560384618
:10480000FFF7D2FE194960680968081A174908605D
:104810000846006817490968884203D213480068AF
:1048200014490860606840F000406060002020602B
:1048300011480068401C1049086002F009FC09F0AA
:10484000070008B9012000E0002050B900BFBF20D8
:1048500080F31188BFF34F8FBFF36F8F00BF00BF8E
:10486000FEE74846BDE8F0870C000020100000205D
:1048700004000020140000201800002006480068F2
:1048800030B10549096801F14400496C491C0160D7
:1048900001480068704700002C00002070B50446F5
:1048A0000CB1206800B970BD206800F08BFE451C7B
:1048B000206800F09FFF401C45430A48B0FBF5F01C
:1048C000A0602179206800F041FE401C642100FBBB
:1048D00001F5206800F08EFF401CB5FBF0F020735E
:1048E00000BFE0E7000E27071CB5074903C9CDE963
:1048F000000169460548FDF71EFB0022012103481F
:10490000FDF768FB1CBD000090B6000800040048DD
:1049100010B5FFF7E9FF00F089F810BD2DE9F0416F
:1049200004460D46164604B10DB9BDE8F081256078
:104930002671206800F046FE471C206800F05AFFF0
:10494000401C47430A48B0FBF7F0A060217920687B
:1049500000F0FCFD401C642100FB01F7206800F022
:1049600049FF401CB7FBF0F0207300BFDDE70000FB
:10497000000E270770B504460D461CB1206808B12B
:10498000642D00DD70BD206800F034FF401C6843DA
:104990006421B0FBF1F60EB1731E00E000231A464D
:1049A0002179206800F0E9FD00BFEBE770B504460F
:1049B0000D4634B1206820B1102D02D3094885423C
:1049C00000D970BD206800F0FDFD401C6843064919
:1049D000B1FBF0F0461E3146206800F00EFF00BF2C
:1049E000EFE70000A0860100000E270700220C4917
:1049F0000C48FFF793FF64210A48FFF7D7FF3221E5
:104A00000848FFF7B7FF0748FFF748FF07E0002017
:104A100001F052F9044908600A2001F039FAF6E77A
:104A200000200040F42C0020C80100201CB51249D1
:104A300003C9CDE9000177226321104800F07EFD13
:104A400000210E4800F0ADFD01210C4800F0CDFE24
:104A50006A460021094800F0F3FD092200210748B9
:104A600000F08BFD01220021044800F0C8FD012167
:104A7000024800F0A0FD1CBD98B6000800200040D0
:104A8000001F4FF080730360001F21F001030360DB
:104A9000001F034B03601438026020387047000089
:104AA0009146000830B585B005460C4614221849D9
:104AB0006846FBF7A6FB01951648FDF717FA69460D
:104AC0001448FDF7DBF9012202211248FDF704FA30
:104AD000002201210B20FFF7ADFA00210D48FDF760
:104AE000ADF901940020ADF808008020ADF80A006F
:104AF00008481430FDF7FAF9694606481430FDF706
:104B0000BDF9012103481430FDF798F905B030BD17
:104B1000A8B60008440002401CB5164903C9CDE9F7
:104B2000000169464FF09040FDF705FA02214FF071
:104B30009040FDF7F7F902208DF806000420009060
:104B400069464FF09040FDF7F6F9012202214FF03F
:104B50009040FDF73FFA0820009069464FF09040E2
:104B6000FDF7E9F9012203214FF09040FDF732FAF9
:104B70001CBD0000A0B6000870B504460D46FFF746
:104B8000CBFF29462046FFF78DFF00F005F970BDE9
:104B9000F0B503460C464FF6FF764AF20107314660
:104BA0000BB90020F0BD002014E0255C6940002511
:104BB0000CE001F0010CBCF1000F02D087EA6101AA
:104BC00000E0491005F1010C0CF0FF05082DF0DBA9
:104BD000451CA8B29042E8DB0846E3E72DE9F04720
:104BE00004460E4617461D46DDE908981CB115B16E
:104BF000B8F1000F01D1BDE8F0874FF48E71204667
:104C0000FBF718FB26606760A560C4F80C90C4F839
:104C10001080012084F81801002084F81901012077
:104C200084F81A0100BFE6E710B504460CB120690C
:104C300000B910BD802104F19800FBF7FBFA0121B7
:104C40002069FDF7FBF8002084F8190100BFF0E7A8
:104C500010B504460CB1206900B910BD00212069CF
:104C6000FDF7ECF82069FDF7EEF8C0F18000E08276
:104C700080212069FDF7EBF8012084F8190100BFBD
:104C8000EBE710B504460CB1206800B910BDA2884E
:104C900091B22068FDF746F900BFF7E71CB526483A
:104CA00025491439254B0222CDE900104FF09041DF
:104CB0002348FFF793FF3DE0214890F819010128B0
:104CC00030D11F48C08A062829DB1D48C08A801EB3
:104CD00082B21B4998311A48FFF75AFF0446184818
:104CE00090F89800164991F81A11884216D1144884
:104CF000C08A401E12499831085CA04201D10122AD
:104D000000E000220E48C08A801E0D499831085CE0
:104D100042EA002010B100BF00BF00BF00BF08483A
:104D2000FFF782FF002000F0C7FF0649086032202D
:104D300001F0AEF8C0E70000580002400044004017
:104D4000042D0020D001002010B504460CB1E0680D
:104D500000B910BD00BF40210E4800F0D0FD002872
:104D6000F9D02046FFF78DFF0021A06800F04CFF2E
:104D70000121A06800F0D6FE0021E068FDF75EF892
:104D800001212069FDF75AF8012084F8180100BFBD
:104D9000DFE700000044004010B500231A464FF43E
:104DA000E131134800F0D4FD0021114800F094FED9
:104DB00001210F4800F028FF01210D4800F0B2FE4C
:104DC00001210B4800F091FD0121094800F088FD08
:104DD00001220849064800F0F1FD002201211C20B3
:104DE000FFF728F90121024800F084FD10BD000002
:104DF0000044004004000C0070B504460D460CB1A0
:104E0000206800B970BD00BF21680868022100F069
:104E1000A4F90028F8D015B12268127901E02268BF
:104E2000527911462268106800F095F900BF216898
:104E30000868022100F091F90028F8D000BFE1E7EE
:104E400070B504460D460CB1606800B970BD00BF76
:104E50000221606800F081F90028F9D029466068D5
:104E600000F079F900BFF1E770B504460E460CB1C9
:104E7000206800B970BD002508E006FA05F000F0D2
:104E800080012046FFF7B8FF681CC5B2082DF4DB8F
:104E900000BFEFE770B504460D461CB1206808B1AD
:104EA000606800B970BD2046FDF7B7FC2046FDF7ED
:104EB000C3FC29462046FFF7C3FF2046FDF79EFCB2
:104EC00000BFEFE770B504460D461CB1206808B17D
:104ED000606800B970BD290A2046FFF7B1FFE9B24A
:104EE0002046FFF7ADFF00BFF4E770B504460D465E
:104EF0001CB1206808B1606800B970BD2046FDF79C
:104F00008CFC2046FDF7A7FC29462046FFF798FFBA
:104F10002046FDF773FC00BFEFE770B504460CB107
:104F2000206800B970BD002516E000BF2168086840
:104F3000022100F012F90028F8D022689179106857
:104F400000F009F900BF21680868022100F005F9A6
:104F50000028F8D0681C85B2B5F5967FE5DB00BF68
:104F6000E0E700001CB5084903C9CDE90001694626
:104F70004FF09040FCF7DFFF022208214FF09040F5
:104F8000FDF728F81CBD0000BCB6000810B5FFF7FF
:104F9000E9FF00F0A7F810BD2DE9F04104460D46E9
:104FA000164604B10DB9BDE8F0812560267121795E
:104FB000206800F0CBFA401C642100FB01F7206858
:104FC00000F018FC401CB7FBF0F060710020A071ED
:104FD00000BFE8E72DE9F0478246BAF1B40F02DDE1
:104FE00040F6C31010E05046FBF7B7FA0646084AF1
:104FF000084BFBF7D1F904460022074BFBF725F9D4
:105000008046FBF7B7FA401E80B2BDE8F08700008B
:10501000B81E85EB5138264000487F4070B50446E5
:105020000D460CB1B42D00DD70BD2846FFF7D2FF50
:10503000064621793246206800F09FFA21792068DF
:1050400000F084FA401C642100FB01F6206800F0A7
:10505000D1FB401CB6FBF0F06071A57100BFE3E727
:10506000002219491948FFF797FF5A211748FFF7FF
:10507000D5FF5A201649087024E0164800781449D4
:105080000978884216D0124801781048FFF7C6FF09
:105090000F4800780F4908700F484078012809D15F
:1050A0000E48806830B10D4900231A4688681946B9
:1050B00001F080FB002000F0FFFD094908600A2094
:1050C00000F0E6FED9E70000002C0140E0010020DE
:1050D000E8010020DC010020BA010020982C00200B
:1050E000D80100201CB5174903C9CDE9000177227A
:1050F00044F61F61144800F021FA0021124800F024
:1051000055FA0021104800F04CFA01210E4800F039
:105110006CFB6A4600210C4800F092FA40F2F31250
:105120000021094800F029FA01220021064800F078
:1051300066FA0121044800F053FB0121024800F007
:105140003AFA1CBDC4B60008002C0140026861F3A5
:10515000861202607047C160704702460020936863
:105160000B4003B900E001207047C26922F40062DD
:10517000C2610A7862B9026822F4004202600268E1
:1051800022F480420260026822F48062026036E00B
:105190000A78012A0ED1026822F4004202600268F5
:1051A00022F480420260026822F4806202F580628A
:1051B000026024E00A78022A0ED1026822F400423A
:1051C00002F500420260026822F480420260026836
:1051D00022F48062026012E00A78032A0FD102688A
:1051E00022F4004202F500420260026822F480428A
:1051F00002F580420260026822F480620260CB798C
:10520000026863F3492202604A78012A09D1CA7907
:10521000012A06D1026822F4807202F580720260CF
:1052200003E0026822F4807202604B78026863F344
:10523000820202608A78072A0BDD426822F48072BB
:1052400002F5807242608A78036862F3C5030360E6
:1052500008E0426822F4807242608B78026863F34F
:10526000C5020260CB78026863F3C71202600B7953
:10527000026863F3CB2202604B79026863F3410258
:1052800002608B79026863F30002026070470000DD
:1052900010B5FCF77BFD40F2531017490860002160
:1052A0000120FCF7A9FB1D210020FCF7E5FC0121F2
:1052B0000220FCF7A1FB00BF1920FCF7A3FC01288A
:1052C000FAD10020FCF766FB0020FCF777FB0020FA
:1052D000FCF76AFB0120FCF77BFB0220FCF788FD52
:1052E00000BFFCF7A3FD0228FBD10020FCF770FBF8
:1052F00000F004F810BD0000002002402DE9FF5F1F
:10530000002400250026A146A246A34600200390C3
:1053100002900190FCF78AFD0090009820B10128CE
:1053200014D0022874D115E04348406DC0F34020EA
:1053300040B14148006BC0F3406018B13F4840495C
:10534000086002E03F483E49086065E03D483C494E
:10535000086061E038484068C0F300463648C06ADB
:10536000C00F20BB34484068C0F3834432484068D3
:10537000C0F341750DB90F2C03D12801401C044422
:1053800000E0A41C26B9304860432D4908603DE088
:1053900029484068C0F3404020B12B486043284969
:1053A000086033E027486043254908602EE0224822
:1053B000C06AC0F3031003901F48C06AC0F30820FE
:1053C00002901D48C06A00F00700019016B9DFF88E
:1053D00078B009E018484068C0F3404010B1DFF8E9
:1053E00068B001E0DFF85CB00121019801FA00F03B
:1053F000039900FB01FC0298ABFB0070014662467A
:1054000000233846FAF7CCFE0D49086004E0FFE7B8
:105410000C480B49086000BF00BF07484068C0F354
:1054200003190A4810F809A00548006820FA0AF094
:1054300003490860BDE8FF9F00100240006CDC02D9
:105440000000002000127A0000093D00C871000829
:1054500010B5FFF71DFF0520FEF750FE0121314872
:10546000FCF7E8FB01214FF4A010FCF7E3FB01215E
:105470002D48FCF7DFFB01212B48401CFCF7DAFB31
:1054800001212948801CFCF7D5FB01212648401D3D
:10549000FCF7D0FB01212348C01CFCF7CBFB01210A
:1054A0002248FCF7C7FB01211E48801CFCF7C2FB09
:1054B00001211E480A38FCF7BDFB01211B48801F53
:1054C000FCF7B8FB01211748C01DFCF7B3FB012115
:1054D00014480930FCF7AEFB01211248401DFCF7CF
:1054E000A9FB01211148C01CFCF7A4FB1048FCF7E4
:1054F00011F8FCF799F9FCF70CFFFDF76EFAFEF7CF
:10550000C5FBFFF705FA0B49A1F18000FFF734FB5B
:10551000FFF73CFD0849A1F1800000F070F900F0B0
:10552000C7FE10BD09001800110014000E001C0079
:10553000602B00209C2D0020D82E0020C1628262AA
:10554000436923F001035B1C4361704710B50246B9
:1055500000200B4633B1022B06D0042B06D0062BBD
:1055600008D105E0506B06E0906B04E0D06B02E0E0
:10557000106C00E000BF00BF10BD0B4633B1022B22
:1055800006D0042B06D0062B08D105E0426306E0C6
:10559000826304E0C26302E0026400E000BF00BF77
:1055A0007047026861F3092202607047026861F384
:1055B000061202607047026861F3000202607047E1
:1055C000416270470146886A7047CA43026170476A
:1055D000012A03D1C3680B43C36003E012B9C36857
:1055E0008B43C36070470246002013690B4023B110
:1055F000D3680B400BB1012000E00020704710B5CC
:105600000B4633B1022B09D0042B0CD0062B14D13E
:105610000EE0846962F3C30484610FE0846962F37D
:10562000CB2484610AE0C46962F3C304C46105E069
:10563000C46962F3CB24C46100E000BF00BF10BDA9
:105640002DE9F04100250026002701F108035C1C2C
:1056500092F801C00CFA03FC1FFA8CF592F802C014
:105660000CFA04FC1FFA8CF6D0F804C04FF00108C5
:1056700008FA04F82CEA080CC0F804C0D0F804C0FA
:105680004CEA060CC0F804C0D0F804C04FF0010882
:1056900008FA03F82CEA080CC0F804C0D0F804C0DB
:1056A0004CEA050CC0F804C00F4637B1022F0DD0EC
:1056B000042F14D0062F24D11AE092F80080D0F8DD
:1056C00018C068F3061CC0F818C01BE092F80080F0
:1056D000D0F818C068F30E3CC0F818C012E092F879
:1056E0000080D0F81CC068F3061CC0F81CC009E09C
:1056F00092F80080D0F81CC068F30E3CC0F81CC0C3
:1057000000E000BF00BF4FF0010C0CEB41034FF075
:10571000030C0CEB410492F803C00CFA03FC1FFAD3
:105720008CF592F804C00CFA04FC1FFA8CF64FF0CA
:10573000010808FA04F8D0F820C02CEA080CC0F8D8
:1057400020C0D0F820C04CEA060CC0F820C04FF0B2
:10575000010C0CFA03FCD0F8208028EA0C08C0F8F1
:105760002080D0F820C04CEA050CC0F820C04B00C7
:105770004FF0020C0CEB410492F805C04FEA4108CF
:105780000CFA08FC1FFA8CF592F806C04FF00208DC
:1057900008EB41080CFA08FC1FFA8CF64FF00108E0
:1057A00008FA04F8D0F820C02CEA080CC0F820C091
:1057B000D0F820C04CEA060CC0F820C04FF0010819
:1057C00008FA03F8D0F820C02CEA080CC0F820C072
:1057D000D0F820C04CEA050CC0F820C0BDE8F0812C
:1057E000426C61F3CF3242647047026861F3C712C2
:1057F000026070470146C86A7047C162704770B561
:1058000004460D4600F084F82946204600F02EF8A4
:1058100000F00EFA70BD2DE9F04104460F46154622
:1058200000260CB107B115B90220BDE8F081802631
:10583000314604F11000FAF7FDFCB54208DD3246AE
:10584000394604F11000FAF7DCFCA6810120ECE7F0
:105850002A46394604F11000FAF7D3FCA58100204E
:10586000E3E70146486880B27047000030B585B074
:1058700005460C46142218496846FAF7C2FC019501
:105880001648FCF733FB69461448FCF7F7FA012287
:1058900002211248FCF720FB002201210A20FEF71A
:1058A000C9FB00210D48FCF7C9FA01940020ADF8AE
:1058B00008008020ADF80A0008481430FCF716FBF9
:1058C000694606481430FCF7D9FA01210348143020
:1058D000FCF7B4FA05B030BDD4B600081C00024095
:1058E000426961F3861242617047426961F3C712EF
:1058F00042617047C26861F34D32C2607047024630
:105900001068084008B1012070470020FCE7000043
:105910001CB50E4903C9CDE9000169464FF090401E
:10592000FCF709FB01220921C806FCF753FB4FF4E1
:105930008060009069464FF09040FCF7FCFA01222D
:105940000A214FF09040FCF745FB1CBDCCB6000887
:105950002DE9F04385B004460F46904699466846C7
:10596000FCF77AF81448844201D1029E00E0039EBD
:1059700006EB86004000B0FBF7F50A20B5FBF0F11E
:1059800000FB1150052803D20A20B5FBF0F503E017
:105990000A20B5FBF0F0451CA06865F30F00A0607D
:1059A000E06868F30C30E060206969F30D30206135
:1059B00005B0BDE8F08300000038014030B5012A91
:1059C0000BD100EB11431B6801F01F050124AC4013
:1059D000234300EB114423600AE000EB11431B68F2
:1059E00001F01F050124AC40A34300EB11442360E8
:1059F00030BD02460023202927D00CDC042939D0F1
:105A000004DC01293BD002293DD134E0082920D013
:105A1000102938D12AE0402913D080290DD0B1F5C2
:105A2000807F06D0B1F5007F2DD15069C0F380236F
:105A30002BE01069C0F3801327E0D068C0F3C013D7
:105A400023E0D068C0F380131FE0D068C0F3401398
:105A50001BE0D068C0F3401018B9506900F0010095
:105A600008B1012000E0002003460EE0D068C0F33A
:105A700000130AE000BF506900F0010305E0D068A0
:105A8000C0F3002301E0002300BF00BF012B01D0C1
:105A9000002070471068084008B10120F9E7002095
:105AA000F7E72DE9F04104460D4617461E460CB1B6
:105AB00005B10EB9BDE8F0814FF48A712046FAF7BE
:105AC000B9FB25606760A660012084F81001002002
:105AD00084F8110100BFEDE741B9C26822F40072F9
